:020000040000FA
:060000008BEF2BF0120053
:0100060000F9
:0100070000F8
:06000800F7EF26F01200E4
:02000E000F01E0
:060010003F0EF216120083
:0100160000E9
:0600180058EF27F0120072
:02001E000B00D5
:1000200061580000D40100002B0000005F58000060
:10003000EC020000020000005B580000E602000035
:10004000040000004E580000E30000000D00000016
:1000500016000000F20200000100000047580000F6
:10006000F30300000700000011580000A403000083
:100070003600000007000000F1020000010000004F
:100080000A580000EC030000070000000600000012
:10009000F00200000100000091570000EF02000094
:0400A000010000005B
:0C00A4000201D96BDA6BDB6BDC6B0DEC3E
:1000B00029F000D01200D9CFE6FFDACFE6FFE1CF7A
:1000C000D9FFE2CFDAFF0201DD51106E116AD40EC2
:1000D000105C000E115803E3DD6BDA6BA5D0DA512A
:1000E000060A01E191D0040A15E0010A13E0070AAB
:1000F00011E0050A0FE0040A0DE0050A01E08FD0C7
:10010000DB6BDC6BDD6BFD0EDB50020802E1020EE7
:10011000DA6F89D0DA0535E10201EC0515E1FD0E53
:10012000DB50200AE66E0201DD51EA6A000FE96E3B
:10013000020EEA22E552E750EF6EFD0EDB50DB1BAC
:10014000DD2B0201EC6B1CD0FD0EDB50100808E02B
:10015000FD0EDB50030804E0FD0EDB50020803E156
:10016000010EEC6F0DD00201DD51EA6A000FE96E5D
:10017000020EEA22FD0EDBCFEFFFDB50DB1BDD2B97
:100180000CD0DD51EA6A000FE96E020EEA22FD0E84
:10019000DBCFEFFFDB50DB1BDD2B0201DA51050A61
:1001A00029E0040A1EE0050A19E0070A14E0010A22
:1001B00001E029D059EC29F0F36EFD0EDB50F35C21
:1001C00006E00201DB6BDD6BDA6BD96B03D0020159
:1001D000030EDA6F18D0040EDA6F15D0010EDA6F45
:1001E00012D0030EDD5D0201025D03E10201050E86
:1001F000DA6F09D0DB5104E0DB6BDD6BDA6BD96BB6
:10020000060EDA6F00D00FD0DB6BDD6BDA6B010E00
:10021000D96FFD0EDB50030801E0D96B04D0DB6B16
:10022000DD6BDA6BD96B00D0E552E5CFDAFFE7CFB3
:10023000D9FF1200D9CFE6FFDACFE6FFE1CFD9FF31
:10024000E2CFDAFFE6520201D95101E18ED0D96B3B
:1002500002C2DFFF040EDF24E66EE66A000EE66EE1
:10026000020EE66E000EE66E010EE66E7BEC25F0E9
:10027000106E060EE15C02E2E16AE552E16E10509A
:10028000010103510F0A69E0010A5FE0030A55E02A
:10029000070A4AE0060A3FE0070A34E00C0A29E0B0
:1002A000020A1FE0060A15E0010A0BE0030A01E05A
:1002B0005CD0000EE66E010EE66E5ED8E552E552A9
:1002C00054D0000EE66E010EE66E13D9E552E552EB
:1002D0004CD0000EE66E010EE66E76D9E552E55280
:1002E00044D0000EE66E010EE66EBBDBE552E55231
:1002F0003CD0000EE66E010EE66EADEC05F0E55268
:10030000E55233D0000EE66E010EE66EBBEC06F051
:10031000E552E5522AD0000EE66E010EE66E51EC73
:1003200007F0E552E55221D0000EE66E010EE66EB2
:10033000DEEC07F0E552E55218D0020EE66E00C181
:10034000E6FF73DAE552E55210D0020EE66E00C108
:10035000E6FF6BDAE552E55208D0020EE66E00C108
:10036000E6FF63DAE552E55200D0E552E552E5CF0B
:10037000DAFFE7CFD9FF1200D9CFE6FFDACFE6FFE9
:10038000E1CFD9FFE2CFDAFF0D0EE12402E3E1680D
:10039000E652E16EECEC0DF0000901E19ED0010E99
:1003A000F36E080EF3CFDBFF010EE66ED950080F97
:1003B000E66E000EDA20E66EE66AF8EC17F0E5521B
:1003C000E552E552E5525FEC2AF0090E06C0DBFF6C
:1003D0000A0E07C0DBFF0B0E08C0DBFF0C0E09C0C6
:1003E000DBFF010EE66EE66A21EC29F0E552E552EC
:1003F000010EE66EE76EFC0EDBCFE9FFFD0EDBCFF4
:10040000EAFFE750E926000EEA22EF50E66E080EFA
:10041000E66ED9CFE6FFDACFE6FF5CEC0AF0106EAD
:10042000050EE15C02E2E16AE552E16E1050090E50
:10043000DBCF06F00A0EDBCF07F00B0EDBCF08F0A8
:100440000C0EDBCF09F0100ED890093208320732BB
:100450000632E806F9E10B6A010E0C6E0D6A0E6AAF
:10046000FFEC2AF0040E06C0DBFF090EDBCF06F01E
:100470000A0EDBCF07F00B0EDBCF08F00C0EDBCF44
:1004800009F00B6A0C6A010E0D6E0E6AFFEC2AF081
:10049000050E06C0DBFF090EDBCF06F00A0EDBCF30
:1004A00007F0086A096A0B6A010E0C6E0D6A0E6A83
:1004B0003FEC28F0060E06C0DBFF090EDB50E76EAE
:1004C000070EE7CFDBFF080EE66ED9CFE6FFDACFE7
:1004D000E6FF03D9E552E552E5520D0EE15C02E27A
:1004E000E16AE552E16EE552E5CFDAFFE7CFD9FFE9
:1004F0001200D9CFE6FFDACFE6FFE1CFD9FFE2CF96
:10050000DAFFD1D9000901E159D0020EE76EFC0EE5
:10051000DBCFE9FFFD0EDBCFEAFFE750E926000E57
:10052000EA22EF04E66E040EE76EFC0EDBCF10F05D
:10053000FD0EDBCF11F0E7501026000E112210C087
:10054000E6FF11C0E6FF020EE66EF8EC17F0E5528A
:10055000E552E552E552010EE76EFC0EDBCFE9FFF6
:10056000FD0EDBCFEAFFE750E926000EEA22EF504E
:10057000E66E24D9E552020EE76EFC0EDBCFE9FFF2
:10058000FD0EDBCFEAFFE750E926000EEA22EF047A
:10059000E66E040EE76EFC0EDBCF10F0FD0EDBCF37
:1005A00011F0E7501026000E112210C0E6FF11C016
:1005B000E6FFC4EC0CF0E552E552E552E552E5CF1A
:1005C000DAFFE7CFD9FF1200D9CFE6FFDACFE6FF97
:1005D000E1CFD9FFE2CFDAFF080EE12402E3E168C0
:1005E000E652E16E60D9000901E16BD0020EF36EB4
:1005F000060EF3CFDBFF040EE76EFC0EDBCFE9FF48
:10060000FD0EDBCFEAFFE750E926000EEA22070ED7
:10061000EFCFDBFF020EE66ED950060FE66E000E3E
:10062000DA20E66EE66AF8EC17F0E552E552E5529C
:10063000E552030EE66E010EE76EFC0EDBCFE9FF1E
:10064000FD0EDBCFEAFFE750E926000EEA22EF506D
:10065000E66E050EE66ED950010FE66E000EDA204A
:10066000E66E5CEC0AF0106E050EE15C02E2E16AF7
:10067000E552E16E1050040EE76EFC0EDBCFE9FF91
:10068000FD0EDBCFEAFFE750E926000EEA22EF502D
:10069000E66E8CEC0CF0E552DF6EDF0402E1000E3A
:1006A00001D0010EE76E050EE7CFDBFFE66ED950F5
:1006B000010FE66E000EDA20E66E0FD8E552E55225
:1006C000E552080EE15C02E2E16AE552E16EE552B4
:1006D000E5CFDAFFE7CFD9FF1200D9CFE6FFDACFB7
:1006E000E6FFE1CFD9FFE2CFDAFFE652E652E6526B
:1006F000DF6A020EE66ECBEC28F0E552020EDB6AF2
:10070000FB0EDB50F36E020EDBCFF4FFF350F45C14
:1007100040E2020EDB50E76EFC0EDBCFE9FFFD0E80
:10072000DBCFEAFFE750E926000EEA22010EEFCF09
:10073000DBFF030EF36E020EDBCFF4FFF350F45C2D
:100740001CE3010EDB50020808E0010EDB50030839
:1007500004E0010EDB50100810E1100EE66ECBEC49
:1007600028F0E552010EDB50200AE66ECBEC28F0B3
:10077000E552010EDB50DF1A09D0010EDBCFE6FF98
:10078000CBEC28F0E552010EDB50DF1A020EDB2A1B
:10079000B7D7DFCFE6FFCBEC28F0E552030EE66ECD
:1007A000CBEC28F0E552010E00D0E552E552E552BF
:1007B000E552E5CFDAFFE7CFD9FF1200D9CFE6FF48
:1007C000DACFE6FFE1CFD9FFE2CFDAFFE652E65219
:1007D000E652E652060EE66EFD0EDBCFE6FF040E95
:1007E000E66ED9CFE6FFDACFE6FF5CEC0AF0106EDA
:1007F000050EE15C02E2E16AE552E16E1050040E82
:10080000E66ED9CFE6FFDACFE6FF67DFE552E552C5
:10081000E552040EE15C02E2E16AE552E16EE55266
:10082000E5CFDAFFE7CFD9FF1200D9CFE6FFDACF65
:10083000E6FFE1CFD9FFE2CFDAFFE652E652E65219
:10084000E652E652150EE66EFD0EDBCFE6FF050E14
:10085000E66ED9CFE6FFDACFE6FF5CEC0AF0106E69
:10086000050EE15C02E2E16AE552E16E1050FC0E19
:10087000DB50E76E040EE7CFDBFF050EE66ED9CF47
:10088000E6FFDACFE6FF29DFE552E552E552050E35
:10089000E15C02E2E16AE552E16EE552E5CFDAFFA2
:1008A000E7CFD9FF120053EC29F0F350010B02E01F
:1008B000010E01D0000E00D01200D9CFE6FFDACF32
:1008C000E6FFE1CFD9FFE2CFDAFFE652E652E65289
:1008D000EADF000901E1AED0FA0EDBCFE6FFFC0E45
:1008E000DBCFE6FFFD0EDBCFE6FF020EE66EF8EC97
:1008F00017F0E552E552E552E552FA0EDBCF10F063
:10090000FB0EDBCF11F01006000E115A010E10C0C5
:10091000DBFF020E11C0DBFF010EDBCF10F0020E79
:10092000DBCF11F00001800E11142BE1010EDBCFA3
:1009300012F0020EDBCF13F0FC0EDB501224E96E36
:10094000FD0EDB501320EA6EEF50E66E010EDBCF9A
:1009500010F0020EDBCF11F0040E1026000E112253
:10096000FC0EDB501024E96EFD0EDB501120EA6E08
:10097000E552E750EF6E010EDB06020E01E2DB06E8
:10098000CBD7FC0EDBCFE9FFFD0EDBCFEAFFEF6A32
:1009900059EC29F0E66E010EE76EFC0EDBCFE9FFA5
:1009A000FD0EDBCFEAFFE750E926000EEA22E55212
:1009B000E750EF6E010EE76EFA0EDBCF10F0FB0E84
:1009C000DBCF11F0E7501026000E1122020EE76E69
:1009D000FC0EDBCFE9FFFD0EDBCFEAFFE750E92697
:1009E000000EEA2210C0EFFF030EE76EFC0EDBCF15
:1009F000E9FFFD0EDBCFEAFFE750E926000EEA2211
:100A0000020EEF6EE76EFC0EDBCFE9FFFD0EDBCFD3
:100A1000EAFFE750E926000EEA22EF50030FE66EE8
:100A2000FC0EDBCFE6FFFD0EDBCFE6FF56DEE55228
:100A3000E552E552E552E552E552E552E5CFDAFFDF
:100A4000E7CFD9FF1200D9CFE6FFDACFE6FFE1CF3B
:100A5000D9FFE2CFDAFFE552E5CFDAFFE7CFD9FFE2
:100A60001200D9CFE6FFDACFE6FFE1CFD9FFE2CF20
:100A7000DAFF090EE12402E3E168E652E16E13DFDA
:100A8000000901E15ED0040EF36E080EF3CFDBFF28
:100A9000010EE66ED950080FE66E000EDA20E66E03
:100AA000E66AF8EC17F0E552E552E552E55253ECF0
:100AB00029F0060EF3CFDBFF070EF4CFDBFF050EA8
:100AC000E66E010EE76EFC0EDBCFE9FFFD0EDBCF1D
:100AD000EAFFE750E926000EEA22EF50E66E060E26
:100AE000E66ED9CFE6FFDACFE6FF5CEC0AF0106ED7
:100AF000050EE15C02E2E16AE552E16E1050060E7D
:100B0000DBCF06F0070EDBCF07F0086A096A0B6A35
:100B1000010E0C6E0D6A0E6A3FEC28F0040E06C042
:100B2000DBFF060EDB50E76E050EE7CFDBFF060EA0
:100B3000E66ED9CFE6FFDACFE6FFCFDDE552E5522C
:100B4000E552090EE15C02E2E16AE552E16EE5522E
:100B5000E5CFDAFFE7CFD9FF1200D9CFE6FFDACF32
:100B6000E6FFE1CFD9FFE2CFDAFF110EE12402E385
:100B7000E168E652E16E97DE000901E1F0D0050E72
:100B8000F36E0C0EF3CFDBFF010EE66ED9500C0FA7
:100B9000E66E000EDA20E66EE66AF8EC17F0E55233
:100BA000E552E552E552070EE66E010EE76EFC0EC9
:100BB000DBCFE9FFFD0EDBCFEAFFE750E926000EB1
:100BC000EA22EF50E66E0C0EE66ED9CFE6FFDACFE2
:100BD000E6FF5CEC0AF0106E050EE15C02E2E16AF1
:100BE000E552E16E105073EC28F00D0E06C0DBFFED
:100BF0000E0E07C0DBFF0F0E08C0DBFF100E09C092
:100C0000DBFF0D0EDBCF06F00E0EDBCF07F00F0E75
:100C1000DBCF08F0100EDBCF09F0D8900932083294
:100C200007320632E806F9E10B6A010E0C6E0D6A16
:100C30000E6AFFEC2AF0040E06C0DBFF0D0EDBCFC0
:100C400006F00E0EDBCF07F00F0EDBCF08F0100E14
:100C5000DBCF09F00B6A0C6A010E0D6E0E6AFFEC19
:100C60002AF0050E06C0DBFF0D0EDBCF06F00E0EE0
:100C7000DBCF07F0086A096A0B6A010E0C6E0D6A79
:100C80000E6A3FEC28F0060E06C0DBFF0D0EDB50AF
:100C9000E76E070EE7CFDBFF9FEC28F00D0E06C0D6
:100CA000DBFF0E0E07C0DBFF0F0E08C0DBFF100ED0
:100CB00009C0DBFF0D0EDBCF06F00E0EDBCF07F019
:100CC0000F0EDBCF08F0100EDBCF09F0D890093201
:100CD000083207320632E806F9E10B6A010E0C6EA3
:100CE0000D6A0E6AFFEC2AF0080E06C0DBFF0D0E3F
:100CF000DBCF06F00E0EDBCF07F00F0EDBCF08F0D8
:100D0000100EDBCF09F00B6A0C6A010E0D6E0E6A35
:100D1000FFEC2AF0090E06C0DBFF0D0EDBCF06F05C
:100D20000E0EDBCF07F0086A096A0B6A010E0C6E23
:100D30000D6A0E6A3FEC28F00A0E06C0DBFF0D0EAE
:100D4000DB50E76E0B0EE7CFDBFF0C0EE66ED9CF64
:100D5000E6FFDACFE6FFC1DCE552E552E552110EBF
:100D6000E15C02E2E16AE552E16EE552E5CFDAFFCD
:100D7000E7CFD9FF1200D9CFE6FFDACFE6FFE1CF08
:100D8000D9FFE2CFDAFF090EE12402E3E168E6527F
:100D9000E16E89DD000901E178D0070EF36E080EDF
:100DA000F3CFDBFF010EE66ED950080FE66E000EA2
:100DB000DA20E66EE66AF8EC17F0E552E552E55205
:100DC000E552040EE76EFC0EDBCFE9FFFD0EDBCF34
:100DD000EAFFE750E926000EEA22080EEFCFDBFF1C
:100DE000050EE76EFC0EDBCFE9FFFD0EDBCFEAFF61
:100DF000E750E926000EEA22070EEFCFDBFFDBCF3C
:100E0000E6FF080EDBCFE6FF2FEC1AF0E552E552C5
:100E1000E76E060EE7CFDBFFDB0402E0070EDB68C0
:100E20000B0EE66E010EE76EFC0EDBCFE9FFFD0E4A
:100E3000DBCFEAFFE750E926000EEA22EF50E66E2C
:100E4000060EE66ED9CFE6FFDACFE6FF35DB106E91
:100E5000050EE15C02E2E16AE552E16E1050080E17
:100E6000DB50E76E040EE7CFDBFF070EDB50E76ECB
:100E7000050EE7CFDBFF060EE66ED9CFE6FFDACF31
:100E8000E6FF2BDCE552E552E552090EE15C02E299
:100E9000E16AE552E16EE552E5CFDAFFE7CFD9FF2F
:100EA0001200D9CFE6FFDACFE6FFE1CFD9FFE2CFDC
:100EB000DAFF0A0EE12402E3E168E652E16EF3DCB8
:100EC000000901E16FD0070EF36E090EF3CFDBFFCF
:100ED000010EE66ED950090FE66E000EDA20E66EBE
:100EE000E66AF8EC17F0E552E552E552E552040ED9
:100EF000E76EFC0EDBCFE9FFFD0EDBCFEAFFE7502C
:100F0000E926000EEA22080EEFCFDBFFD950060FCC
:100F1000E66E000EDA20E66E080EDBCFE6FFB8ECD8
:100F20001AF0E552E552E552E76E070EE7CFDBFF18
:100F3000DB5002E1060EDB680C0EE66E010EE76E7A
:100F4000FC0EDBCFE9FFFD0EDBCFEAFFE750E92621
:100F5000000EEA22EF50E66E060EE66ED9CFE6FFEF
:100F6000DACFE6FFA9DA106E050EE15C02E2E16A73
:100F7000E552E16E1050080EDB50E76E040EE7CF2D
:100F8000DBFF060EDB50E76E050EE7CFDBFF060E3C
:100F9000E66ED9CFE6FFDACFE6FF6DEC03F0E5525F
:100FA000E552E5520A0EE15C02E2E16AE552E16EC9
:100FB000E552E5CFDAFFE7CFD9FF1200D9CFE6FF40
:100FC000DACFE6FFE1CFD9FFE2CFDAFF6CDC000930
:100FD00001E1EED0000EE66EE66A52EC19F0E55241
:100FE000E552010801E0CFD0010EE76EFC0EDBCF29
:100FF000E9FFFD0EDBCFEAFFE750E926000EEA220B
:10100000EF50E66EFC0EDBCFE9FFFD0EDBCFEAFF13
:10101000E552E750EF6E59EC29F0E66E010EE76EEF
:10102000FC0EDBCFE9FFFD0EDBCFEAFFE750E92640
:10103000000EEA22E552E750EF6E030EE76EFC0E5B
:10104000DBCFE9FFFD0EDBCFEAFFE750E926000E1C
:10105000EA220A0EEF6E050E00016325E66E020E0F
:10106000E76EFC0EDBCFE9FFFD0EDBCFEAFFE750BA
:10107000E926000EEA22E552E750EF6E040EE76E15
:10108000FC0EDBCFE9FFFD0EDBCFEAFFE750E926E0
:10109000000EEA2260C0EFFF050EE76EFC0EDBCF0C
:1010A000E9FFFD0EDBCFEAFFE750E926000EEA225A
:1010B00063C0EFFF61C006F062C007F0086A096A0A
:1010C0000B6A010E0C6E0D6A0E6A3FEC28F006509A
:1010D000E66E060EE76EFC0EDBCFE9FFFD0EDBCF02
:1010E000EAFFE750E926000EEA22E552E750EF6EEC
:1010F000070EE76EFC0EDBCFE9FFFD0EDBCFEAFF4C
:10110000E750E926000EEA2261C0EFFF00016351BB
:10111000E66EE66A640EE66E000EE66E080EE76E98
:10112000FC0EDBCF10F0FD0EDBCF11F0E7501026E8
:10113000000E112210C0E6FF11C0E6FF7BEC25F087
:10114000126E060EE15C02E2E16AE552E16E1250B7
:10115000020EE76EFC0EDBCFE9FFFD0EDBCFEAFFF0
:10116000E750E926000EEA22EF50030FE66EFC0E70
:10117000DBCFE6FFFD0EDBCFE6FF6DEC03F0E552C3
:10118000E552E55215D0030EE66E010EE76EFC0E39
:10119000DBCFE9FFFD0EDBCFEAFFE750E926000ECB
:1011A000EA22EF50E66E15EC04F0E552E55200D06D
:1011B000E552E5CFDAFFE7CFD9FF1200D9CFE6FF3E
:1011C000DACFE6FFE1CFD9FFE2CFDAFF060EE12466
:1011D00002E3E168E652E16E53EC04F0000901E13C
:1011E0006CD00201ED2B020EE76EFC0EDBCFE9FFA7
:1011F000FD0EDBCFEAFFE750E926000EEA22EF04FE
:10120000E76E050EE7CFDBFF0D0EE66E010EE76E13
:10121000FC0EDBCFE9FFFD0EDBCFEAFFE750E9264E
:10122000000EEA22EF50E66E050EE66ED9CFE6FF1D
:10123000DACFE6FF41D9106E050EE15C02E2E16A09
:10124000E552E16E1050050EDB50106E116A440E2F
:10125000D8801054000E115406E2030EF36E040EF3
:10126000F3CFDBFF1CD0050EDBCFE6FF040EE76EED
:10127000FC0EDBCF10F0FD0EDBCF11F0E750102697
:10128000000E112210C0E6FF11C0E6FF03EC20F0B3
:10129000E552E552E552E76E040EE7CFDBFF050E9F
:1012A000E66ED9CFE6FFDACFE6FF6DEC03F0E5524C
:1012B000E552E5520201ED0700D0060EE15C02E2C4
:1012C000E16AE552E16EE552E5CFDAFFE7CFD9FFFB
:1012D0001200D9CFE6FFDACFE6FFE1CFD9FFE2CFA8
:1012E000DAFF0C0EE12402E3E168E652E16E53EC12
:1012F00004F0000901E186D00E0EE66E010EE76EE5
:10130000FC0EDBCFE9FFFD0EDBCFEAFFE750E9265D
:10131000000EEA22EF50E66E080EE66ED9CFE6FF29
:10132000DACFE6FFC9D8106E050EE15C02E2E16A91
:10133000E552E16E1050E9EC20F0080E06C0DBFF2C
:10134000090E07C0DBFF0A0E08C0DBFF0B0E09C049
:10135000DBFFF3EC20F0080EDBCF06F0090EDBCF4D
:1013600007F00A0EDBCF08F00B0EDBCF09F0100EF2
:10137000D8900932083207320632E806F9E10B6AE2
:10138000010E0C6E0D6A0E6AFFEC2AF0040E06C008
:10139000DBFF080EDBCF06F0090EDBCF07F00A0EED
:1013A000DBCF08F00B0EDBCF09F00B6A0C6A010EE5
:1013B0000D6E0E6AFFEC2AF0050E06C0DBFF080E6C
:1013C000DBCF06F0090EDBCF07F0086A096A0B6A6B
:1013D000010E0C6E0D6A0E6A3FEC28F0060E06C078
:1013E000DBFF080EDB50E76E070EE7CFDBFF080ED2
:1013F000E66ED9CFE6FFDACFE6FF6DEC03F0E552FB
:10140000E552E5520C0EE15C02E2E16AE552E16E62
:10141000E552E5CFDAFFE7CFD9FF1200D9CFE6FFDB
:10142000DACFE6FFE1CFD9FFE2CFDAFFE652E652AC
:10143000E652E652E65253EC04F0000901E130D0E6
:101440000F0EE66E010EE76EFC0EDBCFE9FFFD0E20
:10145000DBCFEAFFE750E926000EEA22EF50E66E06
:10146000050EE66ED9CFE6FFDACFE6FF25D8106E7F
:10147000050EE15C02E2E16AE552E16E10500EEC0D
:1014800021F0E76E040EE7CFDBFF050EE66ED9CF45
:10149000E6FFDACFE6FF6DEC03F0E552E552E552E8
:1014A000050EE15C02E2E16AE552E16EE552E5CF4C
:1014B000DAFFE7CFD9FF1200D9CFE6FFDACFE6FF98
:1014C000E1CFD9FFE2CFDAFFFC0EDBCFE9FFFD0E63
:1014D000DBCFEAFFFA0EDBCFEFFF59EC29F0E66E27
:1014E000010EE76EFC0EDBCFE9FFFD0EDBCFEAFF5E
:1014F000E750E926000EEA22E552E750EF6EFB0EB8
:10150000DB50FD0FE66E020EE76EFC0EDBCFE9FF4F
:10151000FD0EDBCFEAFFE750E926000EEA22E55296
:10152000E750EF6E030EE76EFC0EDBCFE9FFFD0E1A
:10153000DBCFEAFFE750E926000EEA22F90EDBCF07
:10154000EFFF00D0E552E5CFDAFFE7CFD9FF120079
:10155000D9CFE6FFDACFE6FFE1CFD9FFE2CFDAFF5E
:10156000230EE12402E3E168E652E16EDC0EE66E52
:10157000190EE66EE66AE66A040EE66EE66A7AEC34
:1015800022F0106E060EE15C02E2E16AE552E16EC5
:1015900010500201D56BD66BD5C210F0D6C211F037
:1015A000126A136A11AE02D012681368D8901350F1
:1015B000000A08E6000E105C020E1158000E1258C8
:1015C000000E135826E2D5C210F0D6C211F0020E5A
:1015D0000D6E0E6A10C008F011C009F019EC28F069
:1015E00004C010F005C011F01050111002E0AA0E56
:1015F00001D0550EE66E000E0201D525E96E080EEB
:10160000D621EA6EE552E750EF6ED52B000ED623B9
:10161000C3D7B0D9A9D9E66AE7DAE5520201D46B9B
:10162000D869D56BD66B120EE66EE66AE66AE66A94
:1016300043EC1EF0E552E552E552E5520201D76F48
:101640005DD9000972E1D2D801086EE1880EE66E1C
:10165000130EE66EE66AE66AFCEC29F0E552E55206
:10166000E552E5528C0E106E570E116E126A10C0C4
:10167000E6FF11C0E6FF12C0E6FFD9CFE6FFDACFE2
:10168000E6FFE3EC25F0136E050EE15C02E2E16A91
:10169000E552E16E1350D9CFE6FFDACFE6FFFCEC5E
:1016A00025F0E552E552F350E66ED9CFE6FFDACFEA
:1016B000E6FF6AD9E552E552E552880EE66E130E52
:1016C000E66EE66AE66AFCEC29F0E552E552E55280
:1016D000E552810E106E570E116E126A10C0E6FFB1
:1016E00011C0E6FF12C0E6FFD9CFE6FFDACFE6FF72
:1016F000E3EC25F0136E050EE15C02E2E16AE552CF
:10170000E16E1350D9CFE6FFDACFE6FFFCEC25F00F
:10171000E552E552F350E66ED9CFE6FFDACFE6FFA9
:1017200033D9E552E552E55203D00201010ED46FE0
:101730000201D40540E1020EE66EE66A21EC29F0D2
:10174000E552E552200EDB6ADB50106E116A020E84
:10175000105C000E11582FE2200EDB50030DF3CF6A
:10176000E9FFF4CFEAFFFA0EE926030EEA22EF04BE
:101770001FE1200EDB50030DF3CFE9FFF4CFEAFFAA
:10178000FA0EE926030EEA22EE52010EEF6E200E4B
:10179000DB50030DF3CFE9FFF4CFEAFFFA0EE926A1
:1017A000030EEA22020EE926000EEA22010EEF6E77
:1017B000200EDB2AC9D7880EE66E130EE66EE66AA7
:1017C000E66A43EC1EF0E552E552E552E5520301AC
:1017D000F36F230EE15C03E200D0E16AE552E16EB3
:1017E000E552E5CFDAFFE7CFD9FF120083AC02D094
:1017F000010E2FD08C8AD00EE66E070EE66EE66ADA
:10180000E66AFCEC29F0E552E552E552E55283BC6C
:1018100019D08C9A640EE66EE66AE66AE66AFCEC1B
:1018200029F0E552E552E552E5528C8AD00EE66E7B
:10183000070EE66EE66AE66AFCEC29F0E552E55230
:10184000E552E55283BC02D0000E03D08C9A010E03
:1018500000D01200D9CFE6FFDACFE6FFE1CFD9FF03
:10186000E2CFDAFFE652100EE66E270EE66EE66A6B
:10187000E66A43EC1EF0E552E552E552E552DF6EB2
:1018800083AC2BD08C8AD00EE66E070EE66EE66A2D
:10189000E66AFCEC29F0E552E552E552E5528C9AF5
:1018A000100EE66E270EE66EE66AE66ADFCFE6FF0A
:1018B0007BEC1FF0106E050EE15C02E2E16AE5527E
:1018C000E16E1050DFCFE6FF2CEC1FF0E55200096F
:1018D00003E18350400BF6E147D8D9CFE6FFDACFDA
:1018E000E6FFBBEC1EF0E552E552010E00D0E552DA
:1018F000E552E5CFDAFFE7CFD9FF12008350400B66
:1019000001E0010E00D01200A5DF000902E06EDF49
:1019100002D0000E00D01200D9CFE6FFDACFE6FFEA
:10192000E1CFD9FFE2CFDAFF1FD8100EF36EFD0E24
:10193000DBCFF4FFF350F45C03E2FD0EDBCFD8F213
:10194000FF0E0201D85D08E0F00E89160F0ED815C3
:1019500089128998010E02D0000E00D0E552E5CF21
:10196000DAFFE7CFD9FF120089880201D869F00EAB
:10197000891612008C9A959A958C929092929294D4
:101980009296929889881200D9CFE6FFDACFE6FFC7
:10199000E1CFD9FFE2CFDAFF83BC02D0000E18D02E
:1019A000FB0EDB5013E0FC0EDBCFE9FFFD0EDBCFBF
:1019B000EAFFEF50E66EFAEC22F0E552FC0EDB2A6D
:1019C000FD0E01E3DB2AFB0EDB06EAD7010E00D099
:1019D000E552E5CFDAFFE7CFD9FF1200D9CFE6FF16
:1019E000DACFE6FFE1CFD9FFE2CFDAFF120EE66EE3
:1019F000E66AE66AE66AD7C2E6FF7BEC1FF0106E85
:101A0000050EE15C02E2E16AE552E16E1050D5C2DA
:101A100010F0D6C211F0126A136A11AE02D0126829
:101A20001368D8901350000A08E6FF0E105C010EF0
:101A30001158000E1258000E135803E30201D56B23
:101A4000D66B000E0201D525E96E080ED621EA6E8E
:101A5000FD0EDBCFEFFFD52B000ED62300D0E552D5
:101A6000E5CFDAFFE7CFD9FF1200D9CFE6FFDACF13
:101A7000E6FFE1CFD9FFE2CFDAFFE652E652E652C7
:101A8000DE6ADD6A0201D551D61101E19BD0D5C2D3
:101A900010F0D6C211F0126A136A11AE02D01268A9
:101AA0001368D8901350000A08E6FF0E105C010E70
:101AB0001158000E1258000E135808E2D7C2E6FF64
:101AC0002CEC1FF0E552010801E07CD00201D4515A
:101AD00068E17C0E106E570E116E126A10C0E6FFA0
:101AE00011C0E6FF12C0E6FF000EE66E080EE66EBD
:101AF00035EC26F0136E050EE15C02E2E16AE55278
:101B0000E16E1350F3CFDEFFF4CFDDFFD9CFE9FF55
:101B1000DACFEAFFEE50ED1043E00201010ED46F80
:101B2000020EE66EE66A21EC29F0E552E552020E5D
:101B3000DB6ADB50106E116A020E105C000E115849
:101B40002FE2020EDB50030DF3CFE9FFF4CFEAFFE3
:101B5000FA0EE926030EEA22EF041FE1020EDB5023
:101B6000030DF3CFE9FFF4CFEAFFFA0EE926030EE7
:101B7000EA22EE52010EEF6E020EDB50030DF3CFA0
:101B8000E9FFF4CFEAFFFA0EE926030EEA22020E7D
:101B9000E926000EEA22010EEF6E020EDB2AC9D7FB
:101BA0000ED0D5C2E6FFD6C2E6FF000EE66E080EE6
:101BB000E66E5DEC04F0E552E552E552E5520201B5
:101BC000D56BD66B00D0E552E552E552E552E5CF34
:101BD000DAFFE7CFD9FF12000201D40502E0000EC0
:101BE00001D0010E00D01200D9CFE6FFDACFE6FF18
:101BF000E1CFD9FFE2CFDAFF010E00D0E552E5CF09
:101C0000DAFFE7CFD9FF12000201D85100D012004D
:101C1000D9CFE6FFDACFE6FFE1CFD9FFE2CFDAFF97
:101C2000100EE12402E3E168E652E16E0301F45193
:101C3000040803E2F46B030E2CD1F551050A01E10F
:101C400003D1010A01E1B7D0070A6CE0010A5EE0A6
:101C5000030A19E0010A02E0020E1BD1FF0EF65D35
:101C60000EE1D00EE66E070EE66EE66AE66A43EC1B
:101C70001EF0E552E552E552E5520301F66F8C8AFB
:101C8000010EF56F06D1F6C3E6FF2CEC1FF0E5520E
:101C900001083CE18C9A0301F42B83BC20D00A0E8E
:101CA000E66EE66AE66AE66AFCEC29F0E552E55281
:101CB000E552E5528C8A0301020EF56FD00EE66EF6
:101CC000070EE66EE66AE66A43EC1EF0E552E55260
:101CD000E552E5520301F66F010EDBD017D0F46B2D
:101CE000030EF56F880EE66E130EE66EE66AE66A80
:101CF000F6C3E6FF7BEC1FF0106E050EE15C02E21E
:101D0000E16AE552E16E1050010EC3D0F6C3E6FF62
:101D10002CEC1FF0E552010803E10301010EF56F01
:101D2000010EB7D0F6C3E6FF2CEC1FF0E552010818
:101D300040E18C0E106E570E116E126A10C0E6FF55
:101D400011C0E6FF12C0E6FFD9CFE6FFDACFE6FF0B
:101D5000E3EC25F0136E050EE15C02E2E16AE55268
:101D6000E16E1350D9CFE6FFDACFE6FFFCEC25F0A9
:101D7000E552E552F350E66ED9CFE6FFDACFE6FF43
:101D800003DEE552E552E552880EE66E130EE66E6E
:101D9000E66AE66AF6C3E6FF7BEC1FF0106E050EFE
:101DA000E15C02E2E16AE552E16E10500301040ECB
:101DB000F56F010E6ED0F6C3E6FF2CEC1FF0E55276
:101DC000010840E1810E106E570E116E126A10C0AC
:101DD000E6FF11C0E6FF12C0E6FFD9CFE6FFDACF7B
:101DE000E6FFE3EC25F0136E050EE15C02E2E16A2A
:101DF000E552E16E1350D9CFE6FFDACFE6FFFCECF7
:101E000025F0E552E552F350E66ED9CFE6FFDACF82
:101E1000E6FFBADDE552E552E5520301050EF56F26
:101E2000100EE66E270EE66EE66AE66AF6C3E6FF79
:101E30007BEC1FF0106E050EE15C02E2E16AE552F8
:101E4000E16E1050010E25D0F6C3E6FF2CEC1FF01A
:101E5000E552010803E0C0DE010819E1F60EE66E66
:101E6000030EE66EBBEC1EF0E552E5520301F56B86
:101E7000B3DE01080AE1020EE66EE66A21EC29F003
:101E8000E552E552000E05D002D0040E02D0010E3C
:101E900000D0106E100EE15C02E2E16AE552E16EE4
:101EA0001050E552E5CFDAFFE7CFD9FF1200D9CFC6
:101EB000E6FFDACFE6FFE1CFD9FFE2CFDAFFE65265
:101EC0000301F751640A48E0650A27E0010A04E0CB
:101ED000FF0EF85D72E068D0FF0EF85D08E0F80EC6
:101EE000E66E030EE66EBBEC1EF0E552E552FF0E09
:101EF0000301F85D0EE1D00EE66E070EE66EE66AAF
:101F0000E66A43EC1EF0E552E552E552E552030164
:101F1000F86F010EF76F8C8A54D0F8C3E6FF2CECF3
:101F20001FF0E552010816E1100EE66E270EE66E70
:101F3000E66AE66AF8C3E6FF7BEC1FF0106E050E5A
:101F4000E15C02E2E16AE552E16E10508C9A030115
:101F5000640EF76F010E35D08350400B01E0010E87
:101F6000DF6EF8C3E6FF2CEC1FF0E552010803E03A
:101F70008350400B17E183BC15D00301F76BF80EBB
:101F8000E66E030EE66EBBEC1EF0E552E552020172
:101F9000D46B020EE66EE66A3AEC29F0E552E552A1
:101FA000000E0FD0010E0DD0F76BF80EE66E030E8B
:101FB000E66EBBEC1EF0E552E552020E02D0010EB9
:101FC00000D0E552E552E5CFDAFFE7CFD9FF1200A6
:101FD000D9CFE6FFDACFE6FFE1CFD9FFE2CFDAFFD4
:101FE000E652DF680301F951020A68E0030A24E0BF
:101FF000010A01E0A8D0F3C3E6FF2CEC1FF0E55284
:10200000010819E1E9DD000904E10301010EF96F9E
:102010009AD0F40EE66E010EE66EE66AE66AF3C347
:10202000E6FF7BEC1FF0106E050EE15C02E2E16A58
:10203000E552E16E105087D0CFDD00092AE15EDC69
:10204000010826E134DF020A0EE0010A0CE0070A6B
:102050000AE0050A07E0010A01E01AD00301020EB6
:10206000F96F71D070D00301F96BF40EE66E010EBA
:10207000E66EE66AE66AF3C3E6FF7BEC1FF0106EDD
:10208000050EE15C02E2E16AE552E16E10505BD0C0
:1020900015D00301F96BF40EE66E010EE66EE66AEA
:1020A000E66AF3C3E6FF7BEC1FF0106E050EE15C01
:1020B00002E2E16AE552E16E105045D08DDD000983
:1020C0002DE1A6DD020A15E0010A13E0070A11E07E
:1020D000050A0EE0010A01E036D00301F96BF30EA8
:1020E000E66E030EE66EBBEC1EF0E552E5522BD019
:1020F0002AD00301F96BF40EE66E010EE66EE66A75
:10210000E66AF3C3E6FF7BEC1FF0106E050EE15CA0
:1021100002E2E16AE552E16E105015D00301F96B5D
:10212000F40EE66E010EE66EE66AE66AF3C3E6FFBB
:102130007BEC1FF0106E050EE15C02E2E16AE552F5
:10214000E16E105000D0E552E552E5CFDAFFE7CF5F
:10215000D9FF1200D9CFE6FFDACFE6FFE1CFD9FFF2
:10216000E2CFDAFFD950FA0FE96EFF0EDA20EA6EFD
:10217000EECFE6FFEECFE6FFEECFE6FFEFCFE6FFD6
:10218000F3C3E6FF7BEC1FF0106E050EE15C02E28C
:10219000E16AE552E16E105000D0E552E5CFDAFF7A
:0621A000E7CFD9FF120099
:0A21A600D3EC2BF000D01200D9CFCB
:1021B000E6FFDACFE6FFE1CFD9FFE2CFDAFFE65262
:1021C000E652E652E6528AD9000902E1FF0E65D0D6
:1021D000D950F60FE96EFF0EDA20EA6EEE50ED10E0
:1021E00002E1000E5AD0E3EC2BF0D20EE66EB4EC16
:1021F0002AF0E552D950F80FE96EFF0EDA20EA6EA8
:10220000EECFE6FFEECFE6FFEECFE6FFEFCFE6FF45
:1022100093D9E552E552E552E552040EDE6EDD6AD1
:10222000E668B4EC2AF0E552D9CFE9FFDACFEAFF4D
:10223000EE06000EED5AEECF10F0EDCF11F010507B
:102240001110EEE1FC0EDBCF08F0FD0EDBCF09F044
:10225000020E08C0DBFF030E09C0DBFF8BEC2AF087
:10226000E66E020EDBCFE9FFDB2A030EDBCFEAFFCF
:1022700001E3DB2AE552E750EF6EF60EDB06DBCF1B
:1022800010F0F70E01E2DB06DBCF11F01050111059
:10229000E5E1DCEC2BF0DF5000D0106E040EE15CC9
:1022A00002E2E16AE552E16E1050E552E5CFDAFF55
:1022B000E7CFD9FF1200D9CFE6FFDACFE6FFE1CFB3
:1022C000D9FFE2CFDAFFE652E652E652E652E65294
:1022D000D950FC0FE96EFF0EDA20EA6EEE50ED10D9
:1022E00009E0D950F60FE96EFF0EDA20EA6EEE50E3
:1022F000ED1002E1000EE4D0F80EDBCF06F0F90E8F
:10230000DBCF07F0FA0EDBCF08F0FB0EDBCF09F0D6
:10231000080E0B6E010E0C6E0D6A0E6AFFEC2AF0B1
:10232000020E02C0DBFF030E03C0DBFFF80EDBCFA3
:1023300006F0F90EDBCF07F0FA0EDBCF08F0FB0E4C
:10234000DBCF09F0080E0B6E010E0C6E0D6A0E6AE3
:10235000FFEC2AF006C0DEFF07C0DDFFF60EDBCF84
:1023600014F0F70EDBCF15F0020EDB501424106EC4
:10237000030EDB501520116E126A136A1334000E1F
:10238000131809E6D880080E1054010E1154000EDF
:102390001254000E135475E2080E146E010E156EE1
:1023A000166A176A020EDBCF18F0030EDBCF19F0A6
:1023B0001A6A1B6A1850145C106E19501558116E69
:1023C0001A501658126E1B501758136E040E10C078
:1023D000DBFFFC0EDBCFE6FFFD0EDBCFE6FF040EDE
:1023E000DBCFE6FF020EDBCFE6FF030EDBCFE6FF1F
:1023F000DECFE6FFDDCFE6FF98D9106E070EE15C79
:1024000002E2E16AE552E16E1050040EDB50E76E25
:10241000FC0EDBCF10F0FD0EDBCF11F0E7501026E5
:10242000000E112210C0E6FF11C0E6FF040EDB50C3
:10243000146E156AF60EDBCF08F0F70EDBCF09F04D
:102440001450085C126E15500958136E1250E66E47
:10245000000EE66EE66ADECF16F0DDCF17F0010E55
:102460001626000E172216C0E6FF17C0E6FF5DD93C
:10247000186E070EE15C02E2E16AE552E16E185067
:102480001CD0FC0EDBCFE6FFFD0EDBCFE6FFF60E29
:10249000DBCFE6FF020EDBCFE6FF030EDBCFE6FF6E
:1024A000DECFE6FFDDCFE6FF40D9106E070EE15C20
:1024B00002E2E16AE552E16E1050F60EDB5000D008
:1024C000106E050EE15C02E2E16AE552E16E105029
:1024D000E552E5CFDAFFE7CFD9FF1200D9CFE6FF0B
:1024E000DACFE6FFE1CFD9FFE2CFDAFFE652E652DC
:1024F000E3EC2BF0D70EE66EB4EC2AF0E552010EB9
:10250000DB6A8BEC2AF0DF6E010EDB2ADB50100851
:1025100004E1DCEC2BF0000E07D0800EDF5CF1E371
:10252000DCEC2BF0010E00D0E552E552E552E5CF90
:10253000DAFFE7CFD9FF1200D9CFE6FFDACFE6FF07
:10254000E1CFD9FFE2CFDAFF060EE12402E3E16832
:10255000E652E16EFA0EDBCF06F0FB0EDBCF07F0A2
:10256000FC0EDBCF08F0FD0EDBCF09F0080E0B6E82
:10257000010E0C6E0D6A0E6AFFEC2AF0040E02C00A
:10258000DBFF050E03C0DBFFFA0EDBCF06F0FB0E10
:10259000DBCF07F0FC0EDBCF08F0FD0EDBCF09F040
:1025A000080E0B6E010E0C6E0D6A0E6AFFEC2AF01F
:1025B00006C0DEFF07C0DEFF08C0DEFF09C0DDFF8A
:1025C000DD52DD52040EDBCF10F0050EDBCF11F033
:1025D000126A136AD9CFE9FFDACFEAFFEECF14F01F
:1025E000EECF15F0EECF16F0EFCF17F0090E1F0B60
:1025F00007E0D8901436153616361736E806F9E196
:102600001450102615501122165012221750132262
:1026100010C0DFFF010E11C0DBFF020E12C0DBFF96
:10262000030E13C0DBFFD9CFE9FFDACFEAFFEECF0D
:10263000E6FFEECFE6FFEECFE6FFEFCFE6FF10D8E6
:10264000E552E552E552E552060EE15C02E2E16A2E
:10265000E552E16EE552E5CFDAFFE7CFD9FF120090
:10266000D9CFE6FFDACFE6FFE1CFD9FFE2CFDAFF3D
:10267000E652E652E652E652030EDB6AF36EDBCF19
:10268000F4FFF350F45C24E2D9CF10F0DACF11F06C
:10269000030EDB500F011024E96E000E1120EA6ECC
:1026A000FA0EDBCFEFFFD950FA0FE96EFF0EDA20FA
:1026B000EA6E080EE76ED890030EEB32020EEB3294
:1026C000010EEB32EF32E706F6E1030EDB2AD6D736
:1026D000030EDB6AF36EDBCFF4FFF350F45C19E218
:1026E000D9CF10F0DACF11F0030EDBCFE6FF020EE8
:1026F000E552D880E7540F011024E96E000E112036
:10270000EA6EEF50E66EB4EC2AF0E552030EDB2AD7
:10271000E1D7040EE15C02E2E16AE552E16EE552C6
:10272000E5CFDAFFE7CFD9FF1200D9CFE6FFDACF46
:10273000E6FFE1CFD9FFE2CFDAFFF90EDB5009E087
:10274000D950F70FE96EFF0EDA20EA6EEE50ED1069
:1027500001E163D0F90EDB50E76EFA0EDBCF10F02B
:10276000FB0EDBCF11F0E7501026000E1122126A8B
:10277000136A1334000E131809E6D880080E10549B
:10278000010E1154000E1254000E13541DE2080ED7
:10279000146E010E156E166A176AFA0EDBCF18F06A
:1027A000FB0EDBCF19F01A6A1B6A1850145C106E0E
:1027B00019501558116E1A501658126E1B50175892
:1027C000136EF90E10C0DBFF89DEE3EC2BF0FC0E7C
:1027D000DBCFE6FFFD0EDBCFE6FFB0D8E552E552DA
:1027E0007DDEF70EDBCFE6FFF80EDBCFE6FFF90E5E
:1027F000DBCFE6FFFA0EDBCFE6FF15D8E552E55258
:10280000E552E552FC0EDBCFE6FFFD0EDBCFE6FF27
:102810004ED8E552E552DCEC2BF0E552E5CFDAFF7D
:10282000E7CFD9FF1200D9CFE6FFDACFE6FFE1CF3D
:10283000D9FFE2CFDAFFE652E3EC2BF0840EE66E2E
:10284000B4EC2AF0E552FD0EDBCF10F0116A126AEB
:10285000136A10C0E6FF11C0E6FF12C0E6FF13C006
:10286000E6FFFEDEE552E552E552E552DF6AFC0E78
:10287000DB50DF5C13E2DF50E76EFA0EDBCFE9FFDF
:10288000FB0EDBCFEAFFE750E926000EEA22EF500D
:10289000E66EB4EC2AF0E552DF2AE9D7DCEC2BF047
:1028A000E552E552E5CFDAFFE7CFD9FF1200D9CFE5
:1028B000E6FFDACFE6FFE1CFD9FFE2CFDAFFE6525B
:1028C000E652E652E652E3EC2BF0830EE66EB4ECF1
:1028D0002AF0E552FC0EDBCF10F0FD0EDBCF11F03D
:1028E00010C011F0106AD8901136000E10C0DFFF32
:1028F000010E11C0DBFF020EDB6A030EDB6AD9CFCB
:10290000E9FFDACFEAFFEECFE6FFEECFE6FFEECF4C
:10291000E6FFEFCFE6FFA4DEE552E552E552E552D1
:10292000DCEC2BF0040EE15C02E2E16AE552E16EC0
:10293000E552E5CFDAFFE7CFD9FF1200D9CFE6FFA6
:10294000DACFE6FFE1CFD9FFE2CFDAFFE652E65277
:10295000E652E652E3EC2BF0530EE66EB4EC2AF0AE
:10296000E552FC0EDBCF10F0FD0EDBCF11F010C0F6
:1029700011F0106AD8901136000E10C0DFFF010E62
:1029800011C0DBFF020EDB6A030EDB6AD9CFE9FF61
:10299000DACFEAFFEECFE6FFEECFE6FFEECFE6FFBF
:1029A000EFCFE6FF5DDEE552E552E552E552DCECA5
:1029B0002BF0040EE15C02E2E16AE552E16EE552C1
:0A29C000E5CFDAFFE7CFD9FF1200E0
:0629CA00D9CFE6FFDACFD1
:1029D000E6FFE1CFD9FFE2CFDAFFE652F80EDBCF18
:1029E000F6FFF90EDBCFF7FFFA0EDBCFF8FFDF6A59
:1029F000F70EDB50DF5C0EE20900FC0EDBCFE9FFD7
:102A0000DB2AFD0EDBCFEAFF01E3DB2AF5CFEFFF88
:102A1000DF2AEED7F70EDB5000D0E552E552E5CFC6
:102A2000DAFFE7CFD9FF1200D9CFE6FFDACFE6FF12
:102A3000E1CFD9FFE2CFDAFFE652E652E652E652A4
:102A4000E652F80EDBCF06F0F90EDBCF07F0FA0EF8
:102A5000DBCF08F0FB0EDBCF09F0400E0B6E0C6AEB
:102A60000D6A0E6AFFEC2AF0DE5206C0DEFF07C0D8
:102A7000DDFFDD52F80EDBCF06F0F90EDBCF07F0FD
:102A8000FA0EDBCF08F0FB0EDBCF09F0400E0B6E29
:102A90000C6A0D6A0E6AFFEC2AF0030E02C0DBFF1F
:102AA000F70EDBCFE6FF030EDB50E552E724106E96
:102AB000116A126A136A1334000E131809E6D880DB
:102AC000400E1054000E1154000E1254000E1354F8
:102AD0006FE2400E146E156A166A176A030EDBCF9A
:102AE00018F0196A1A6A1B6A1850145C106E195093
:102AF0001558116E1A501658126E1B501758136E37
:102B0000040E10C0DBFFDBCFE6FFFC0EDBCFE6FFE1
:102B1000FD0EDBCFE6FF030EDBCFE6FF010EDBCFC2
:102B2000E6FF020EDBCFE6FF73D8106E060EE15C07
:102B300002E2E16AE552E16E1050000902E1000E86
:102B400059D0F70EDBCFE6FF040EDB50E552E75C11
:102B5000E66E040EDB50E76EFC0EDBCF10F0FD0ED0
:102B6000DBCF11F0E7501026000E112210C0E6FF57
:102B700011C0E6FFE66A010EE76EDBCF12F0020E2F
:102B8000DBCF13F0E7501226000E132212C0E6FF2F
:102B900013C0E6FF3DD8146E060EE15C02E2E16A66
:102BA000E552E16E1450000902E1000E23D01FD05F
:102BB000F70EDBCFE6FFFC0EDBCFE6FFFD0EDBCF33
:102BC000E6FF030EDBCFE6FF010EDBCFE6FF020ED2
:102BD000DBCFE6FF1DD8106E060EE15C02E2E16A73
:102BE000E552E16E1050000902E1000E03D0F70E2D
:102BF000DB5000D0106E050EE15C02E2E16AE552A6
:102C0000E16E1050E552E5CFDAFFE7CFD9FF1200B1
:102C1000D9CFE6FFDACFE6FFE1CFD9FFE2CFDAFF87
:102C2000490EE12402E3E168E652E16EFC0EDBCFDF
:102C300010F0FD0EDBCF11F0126A136A060ED89069
:102C40001036113612361336E806F9E1FB0EDBCFEB
:102C500014F0156A166A176A1450102615501122BE
:102C6000165012221750132210C0DFFF010E11C0A0
:102C7000DBFF020E12C0DBFF030E13C0DBFF400EB2
:102C8000E66ED9CFE9FFDACFEAFFEECFE6FFEECF6F
:102C9000E6FFEECFE6FFEFCFE6FFD950040FE66E7A
:102CA000000EDA20E66E91DE106E070EE15C02E2A5
:102CB000E16AE552E16E1050D950040F126E000E19
:102CC000DA20136EFB0EDB5000011224106E000E92
:102CD0001320116E440E10C0DBFF450E11C0DBFF48
:102CE000F90EDBCF08F0FA0EDBCF09F0460E08C074
:102CF000DBFF470E09C0DBFFFB0EDB50E76E480E23
:102D0000E7CFDBFF480EDB50106E116A400E105CFF
:102D1000000E11581AE2460EDBCFE9FFDB2A470E00
:102D2000DBCFEAFF01E3DB2AEF50E66E440EDBCF98
:102D3000E9FFDB2A450EDBCFEAFF01E3DB2AE552A0
:102D4000E750EF6E480EDB2ADDD7DFCFF6FF010E2E
:102D5000DBCFF7FF020EDBCFF8FFC00EF616A69C06
:102D6000F00EF814300801E1A68CA68EA684A68881
:102D700007EC00F0550EA76EAA0EA76EA682C9EC4E
:102D80002BF00A00D950040F106E000EDA20116EDD
:102D9000440E10C0DBFF450E11C0DBFF480EDB6A9E
:102DA000480EDB50106E116A400E105C000E115878
:102DB0000FE2440EDBCFE9FFDB2A450EDBCFEAFF53
:102DC00001E3DB2AEF50F56E0F00480EDB2AE8D74F
:102DD000A69CF00EF814300801E1A68CA68EA684FD
:102DE00007EC00F0550EA76EAA0EA76EA682C9ECDE
:102DF0002BF0A694F80EDBCFE6FFD9CFE9FFDACFB0
:102E0000EAFFEECFE6FFEECFE6FFEECFE6FFEFCF35
:102E1000E6FFD950040FE66E000EDA20E66ED5DD2F
:102E2000106E070EE15C02E2E16AE552E16E1050BD
:102E3000D950040F106E000EDA20116E440E10C02F
:102E4000DBFF450E11C0DBFFF90EDBCF08F0FA0EF9
:102E5000DBCF09F0460E08C0DBFF470E09C0DBFFE1
:102E6000480EDB6AF80EDB50F36E480EDBCFF4FF42
:102E7000F350F45C1CE2440EDBCFE9FFDB2A450E85
:102E8000DBCFEAFF01E3DB2AEFCF10F0460EDBCF0A
:102E9000E9FFDB2A470EDBCFEAFF01E3DB2AEF5035
:102EA000105C02E0000E05D0480EDB2ADBD7010ED5
:102EB00000D0106E490EE15C02E2E16AE552E16E7B
:0E2EC0001050E552E5CFDAFFE7CFD9FF120040
:022ECE000201FF
:102ED000F20501E176D092EC23F00201010EF26FCF
:102EE000040EE66EE66A000EE66EE66AF00EE66E28
:102EF000000EE66E54EC21F0106E060EE15C02E26C
:102F0000E16AE552E16E1050040EE66EE66AE66E86
:102F1000E66AF40EE66E000EE66E54EC21F0106EDA
:102F2000060EE15C02E2E16AE552E16E1050E66AEB
:102F300053D9E552020EE66EE66A090EE66EE66ABF
:102F4000F90EE66E000EE66E54EC21F0106E060EE1
:102F5000E15C02E2E16AE552E16E1050010EE66EBC
:102F6000E66A080EE66EE66AF80EE66E000EE66E9B
:102F700054EC21F0106E060EE15C02E2E16AE552CB
:102F8000E16E10500001F851000815E2F86B010ED7
:102F9000E66EE66A080EE66EE66AF80EE66E000E6B
:102FA000E66ECEEC21F0106E060EE15C02E2E16A04
:102FB000E552E16E10500001F851030801E2F86B90
:102FC00000D01200D9CFE6FFDACFE6FFE1CFD9FF7C
:102FD000E2CFDAFF0201F25101E179DFFD0EDBCF32
:102FE000F8F000D0E552E5CFDAFFE7CFD9FF1200C5
:102FF000D9CFE6FFDACFE6FFE1CFD9FFE2CFDAFFA4
:10300000E6520201F25101E162DFFD0EDB500208DF
:1030100001E22CD0FA0EDB50DF6EDF507F0802E2B7
:103020007F0EDF6EFD0EDBCF60F0DFCFE6FFE66ADE
:10303000FB0EDBCFE6FFFC0EDBCFE6FF640EE66E99
:10304000000EE66E7BEC25F0106E060EE15C02E2EF
:10305000E16AE552E16E1050DFCF63F0600EE66E7C
:10306000000EE66E0AD8E552E55200D0E552E55270
:10307000E5CFDAFFE7CFD9FF1200D9CFE6FFDACFED
:10308000E6FFE1CFD9FFE2CFDAFFE652E652E652A1
:10309000E652E6520001F9C010F0FAC011F0F92B27
:1030A000000EFA23FC0EDBCFE9FFFD0EDBCFEAFFBB
:1030B000EE5210C0EEFF11C0EDFF020EE66EE66AA2
:1030C000090EE66EE66AF90EE66E000EE66ECEECCE
:1030D00021F0106E060EE15C02E2E16AE552E16E5B
:1030E0001050FC0EDBCFE9FFFD0EDBCFEAFF030E35
:1030F000E926000EEA22EFCFDFFF040EDF26F4C040
:1031000006F0F5C007F0F6C008F0F7C009F0830E2E
:103110000B6E0C6A0D6A0E6AC4EC29F0010E02C037
:10312000DBFF020E03C0DBFF030E04C0DBFF040E57
:1031300005C0DBFFD950010FE96E000EDA20EA6E00
:103140002B0EEE26000EEE22EE22EE22DFCFE6FF61
:10315000D950010FE96E000EDA20EA6EEECFE6FFDD
:10316000EECFE6FFEECFE6FFEFCFE6FFFC0EDBCFC4
:10317000E6FFFD0EDBCFE6FFD8EC23F0106E070E66
:10318000E15C02E2E16AE552E16E10500DD8050EF5
:10319000E15C03E200D0E16AE552E16EE552E5CF81
:1031A000DAFFE7CFD9FF12000001F42B000EF52360
:1031B000F623F723020EE66E0FD8E55200D0120078
:1031C0000001F02B000EF123F223F323010EE66E33
:1031D00003D8E55200D01200D9CFE6FFDACFE6FFE0
:1031E000E1CFD9FFE2CFDAFFE652DF6AD880000EE6
:1031F0000001F055020EF155000EF255000EF35588
:1032000006E2F06BF16BF26BF36B000EDF80D8809F
:10321000000EF455020EF555000EF655000EF7554A
:1032200005E2F46BF56BF66BF76BDF82010EDF14D2
:1032300003E1FD0EDB0414E1040EE66EE66A000E07
:10324000E66EE66AF00EE66E000EE66ECEEC21F05B
:10325000106E060EE15C02E2E16AE552E16E10508A
:10326000020EDF1404E1FD0EDB50020813E1040E30
:10327000E66EE66AE66EE66AF40EE66E000EE66E4E
:10328000CEEC21F0106E060EE15C02E2E16AE5523E
:10329000E16E105000D0E552E552E5CFDAFFE7CFFE
:1032A000D9FF1200D9CFE6FFDACFE6FFE1CFD9FF91
:1032B000E2CFDAFFF00EE96E000EEA6EEE5000018A
:1032C000F41909E1EE50F51906E1EE50F61903E1A3
:1032D000EE50F71900E154E0830EE66EF0C010F0F6
:1032E000F1C011F0F2C012F0F3C013F00B6E0C6AD3
:1032F0000D6A0E6A10C006F011C007F012C008F087
:1033000013C009F0C4EC29F002C010F003C011F0A2
:1033100004C012F005C013F02B0E1026000E11226F
:103320001222132210C0E6FF11C0E6FF12C0E6FF12
:1033300013C0E6FF600EE66E000EE66E9CEC23F016
:10334000146E070EE15C02E2E16AE552E16E145090
:10335000D950FC0FE96EFF0EDA20EA6EEE50ED1048
:103360000BE0D950FC0FE96EDACFEAFFFF0EEA223C
:10337000600EEE6E000EED6E23DF010E07D004D05E
:10338000FC0EDB6AFD0EDB6A000E00D0E552E5CFD5
:10339000DAFFE7CFD9FF12000001F85100D0120088
:1033A000D9CFE6FFDACFE6FFE1CFD9FFE2CFDAFFF0
:1033B000E652E652E6520201E65103E1010EE66FE3
:1033C00001D044D0DF6AD950010FE96EDACFEAFFAD
:1033D000000EEA22FA0EEE6E030EED6EDF50106E56
:1033E000116A020E105C000E11582FE2DF50EA6ADB
:1033F000E70FE96E020EEA22EF50E66E010EDBCF18
:10340000E9FF020EDBCFEAFFE552E750EF6E010E57
:10341000DBCFE9FF020EDBCFEAFFEE52EF6A010ECF
:10342000DBCFE9FF020EDBCFEAFFE926000EEA223E
:10343000EF6ADF2AD950010FE96E000EDA20EA6E3A
:10344000030EEE26000EEF22C9D700D0E552E5525A
:10345000E552E552E5CFDAFFE7CFD9FF1200D9CF29
:10346000E6FFDACFE6FFE1CFD9FFE2CFDAFFE6529F
:10347000E652E652E652020EDB6AFA0EDE6E030EEA
:10348000DD6E020EDB50106E116A020E105C000E33
:1034900011585EE2DECFE9FFDDCFEAFFEF50F36EB9
:1034A000FD0EDB50F35C49E1DECFE9FFDDCFEAFF43
:1034B000EE52030EEFCFDBFFDB0404E0030EDB5024
:1034C000020805E1FC0EDB0402E1010E43D0030E0D
:1034D000DB5004E0030EDB50020805E1FC0EDB507C
:1034E00002E1010E37D0FC0EDB50020802E1010EB2
:1034F00031D0DECFE9FFDDCFEAFFEF50400B09E02E
:10350000DECFE9FFDDCFEAFFEE52FC0EDBCFEFFFAF
:1035100007D0DECFE9FFDDCFEAFFEE52020EEF6EFD
:10352000DECFE9FFDDCFEAFF020EE926000EEA2238
:10353000FC0EDBCFEFFF010E0DD0020EDB2AD9CF40
:10354000E9FFDACFEAFF030EEE26000EEF2299D74D
:10355000000E00D0106E040EE15C02E2E16AE5525A
:10356000E16E1050E552E5CFDAFFE7CFD9FF120048
:10357000D9CFE6FFDACFE6FFE1CFD9FFE2CFDAFF1E
:10358000E652E652E652020EDB6AFA0EDE6E030ED9
:10359000DD6E020EDB50106E116A020E105C000E22
:1035A000115828E2DECFE9FFDDCFEAFFEFCF10F0C0
:1035B000FD0EDB50105C13E1DECFE9FFDDCFEAFF4B
:1035C000EE52EF50E66EFB0EDBCFE9FFFC0EDBCFD9
:1035D000EAFFE552E750EF6EFD0EDB500DD0020E14
:1035E000DB2AD9CFE9FFDACFEAFF030EEE26000E81
:1035F000EF22CFD7000E00D0E552E552E552E5525A
:10360000E5CFDAFFE7CFD9FF1200D9CFE6FFDACF57
:10361000E6FFE1CFD9FFE2CFDAFFE652E652E6520B
:103620000201E65101E1BCDEFF0E0201E95D0DE1A0
:10363000640EE66EE66AE66AE66A43EC1EF0E55260
:10364000E552E552E5520201E96FE9C2E6FF2CECD2
:103650001FF0E552010844E1640EE66EE66AE66A90
:10366000E66AE9C2E6FF7BEC1FF0106E050EE15C36
:1036700002E2E16AE552E16E1050020EDB6AFA0ED8
:10368000DE6E030EDD6E020EDB50106E116A020E4E
:10369000105C000E115824E2DECFE9FFDDCFEAFF17
:1036A000020EE926000EEA22EFCF10F0DECFE9FF8E
:1036B000DDCFEAFFEE52EF50105C07E0DECFE6FF11
:1036C000DDCFE6FF17D8E552E552020EDB2AD9CF4F
:1036D000E9FFDACFEAFF030EEE26000EEF22D3D782
:1036E00000D0E552E552E552E552E5CFDAFFE7CFEB
:1036F000D9FF1200D9CFE6FFDACFE6FFE1CFD9FF3D
:10370000E2CFDAFFE652E652E652010EDB68FC0E2B
:10371000DBCFE9FFFD0EDBCFEAFFEF500F0BDF6ED3
:10372000DF50020A66E0030A01E066D0ECEC0DF01F
:10373000E76E020EE7CFDBFFFC0EDBCFE9FFFD0EED
:10374000DBCFEAFFEE52EF50020A01E051D0FC0E4F
:10375000DBCFE9FFFD0EDBCFEAFF020EE926000E0C
:10376000EA22EF500AE0010A01E046D008EC0EF030
:10377000E76E010EE7CFDBFF0DD0020EDB5003E159
:10378000010EDB6A06D057EC0FF0E76E010EE7CFB3
:10379000DBFF00D0DB502BE1FC0EDBCFE9FFFD0EA1
:1037A000DBCFEAFF020EE926000EEA22EF50E66EBA
:1037B000FC0EDBCFE9FFFD0EDBCFEAFFEE52E55258
:1037C000E750EF6EFC0EDBCFE9FFFD0EDBCFEAFF2B
:1037D000EE52EF500CE1300EE66E750EE66EE66AC4
:1037E000E66AAAEC10F0E552E552E552E55200D047
:1037F00003D0F9EC2BF000D0E552E552E552E5524A
:0A380000E5CFDAFFE7CFD9FF120091
:06380A0000000000038332
:103810006BF2F7703BE1F4F350131F979AC71C1437
:10382000F135E8E7A126EB64CAD4CF58D98ACCDBBE
:10383000B2783828E26B3BAB8999D0CF434DD34C5B
:1038400028BF27BF78AC243C135E6FC75E106C4462
:1038500035E298B765F19B340E037050C4D773D32B
:10386000AF258720FF3684A394C4A09F879AA31C0A
:10387000EC6857EFBC7B546CD789BF081D5DBC8BCF
:1038800076AF487826BC4BFB4D4EDE8EBD20DD0D5D
:10389000D6D229FE86C12A7DED33C11927E7C29A07
:1038A0004C1536691C0635EA77F411D664AA125510
:1038B0000F58E6A65F4BE52534B90E41FE6D0DC2EB
:1038C000959FF931C58CFAB2AE7EB149E330B2CAE8
:1038D00088C24639D8D145BAB323AEDE79F7AD5D9B
:1038E000120559AE42165A2D29E47E113ABA7D923C
:1038F00051488961015B8AE26AA96186A07D6205FF
:10390000CB8F96F69B9C9575F06EBC1D7B41BF9E40
:1039100010B34B6D40A048EE2B52A38AE186A0095C
:103920008A7454FADA675779B1957345A2CB70C699
:10393000C9398435992A87B6F2D86CD2380C6F51C0
:1039400053FE9BA203ED9821681FD3DA2551D0596D
:103950004EA324AA1EB027297542CC4DBF96CFCEC8
:10396000D4643B3D847738BEEF851C82FCDB1F01AD
:103970009729EBF2C73AE871ACC80315661C0096AC
:103980000DEEF4655DFDF7E6360F6293C6616110DA
:10399000AD9395E3FD80966096727D045CA67E876C
:1039A00037548A74674789F70CB5ADCB1FEBAE4827
:1039B00074195ABB240A59384FF8B25C852CB1DF10
:1039C000EEDE452CBECD46AFD53F0D5498710ED7D7
:1039D000F383FA24A390F9A7C86212C302B6114078
:1039E0006944E5B33957E63052A5C20C41FBC18F9B
:1039F0002A09357C7A1A36FF11E8DD9BDB3CDE189C
:103A0000B0CE2AEBE0DD29688B2F783BF6827BB8BD
:103A10009D708F4BCD638CC8A69167AC6C45642FAD
:103A200007B790DC57A4935F3C56B7632F08B4E008
:103A300044FA401314E943907F1BA8F4B5CFAB7749
:103A4000DE3D5F848E2E5C07E5DC17FCA892147FB8
:103A5000C360E08C9373E30FF881086B32550BE879
:103A600059A7FF1B09B4FC986246D8A47118DB273C
:103A70001AEA2FD44AF92C57210BC733EBDFC4B015
:103A8000802D3043D03E33C0BBCCA6B54BA2A5366B
:103A9000205051C5704352461BB1B922D165BAA11D
:103AA000BA974E52EA844DD1817669ED92286A6EBA
:103AB000F9DA9E9DA9C99D1EC23B767A08EF75F979
:103AC000631D810A330E828958FCC97215B2CAF18E
:103AD0007E403E022E533D8145A1D6E58F75D566C9
:103AE000E4872195B4942216DF66062ACC3805A90E
:103AF000A7CAF15AF7D9F2D99C2B19BD56FF1A3E25
:103B00003D0DEECD6D1EED4E06ECC4268DC3C7A552
:103B1000E6313356B62230D5DDD0DBB11704D832CA
:103B20007CF62CC12CE52F4247170B7E544908FD2B
:103B30003FBBFC0E6FA8FF8D045A14E9CE8E176AA6
:103B4000A57CE399F56FE01A9E9DABE1D3D3A86203
:103B5000B8215C91E8325F1283C0B4764914B7F59E
:103B600022E6430672F54085190764B90A59673A97
:103B700061AB93C931B8904A5A4A7B2E909E78AD7A
:103B8000FB6C8C5EAB7F8FDDC08D1AA830E3192BE8
:103B90005B11EDD80B02EE5B60F0053FAA2406BC7A
:103BA000C1D6F24F91C5F1CCFA37D5F0E969D67399
:103BB000829B2280D2882103B97ACA6773AEC9E496
:103BC000185C3D17484F3E9423BD756F6EF376EC3D
:103BD0000501821F5512819C3EE06AF8F434697B2E
:103BE0009FC69D88CFD59E0BA427BA37B779B9B4A5
:103BF000DC8B4D478C984EC4E76AA5A02DBEA6234A
:0A3C0000464C52D0165F51537DADC3
:063C0A000201F00501E1DA
:103C100028D0A00EE66EE66AE668000EE66E030E99
:103C2000E66EC9EC25F0106E050EE15C02E2E16A79
:103C3000E552E16E10500301A06BA16BA26BA36B68
:103C4000790ECA6E480ECB6E3F0EF2169D829F8291
:103C50009E92D08EC00EF212CA840201010EF06F45
:103C600000D01200A0C306F0A1C307F0A2C308F061
:103C7000A3C309F000D012000301A02B000EA12362
:103C8000A223A3231200D9CFE6FFDACFE6FFE1CFCC
:103C9000D9FFE2CFDAFFE6520201F05101E1B5DFD0
:103CA000010EDF6EDF50106E116A200E105C000EE8
:103CB000115843E2DF50050DF3CFE9FFF4CFEAFFDF
:103CC000000EE926030EEA22EF50FF0834E1DF5030
:103CD000050DF3CFE9FFF4CFEAFF000EE926030E4E
:103CE000EA22DFCFEFFFD950FA0FE96EFF0EDA209C
:103CF000EA6EEE500301A025106EEE50A121116E68
:103D0000EE50A221126EEE50A321136EDF50050D6E
:103D1000F3CFE9FFF4CFEAFF000EE926030EEA2213
:103D2000EE5210C0EEFF11C0EEFF12C0EEFF13C046
:103D3000EEFFDF5019D0DF2AB5D7DFCF00F3D9501F
:103D4000FA0FE96EFF0EDA20EA6EEE500301A025AD
:103D5000016FEE50A121026FEE50A221036FEE50D1
:103D6000A321046F000E00D0E552E552E5CFDAFF43
:103D7000E7CFD9FF1200D9CFE6FFDACFE6FFE1CFD8
:103D8000D9FFE2CFDAFF0201F05101E13EDFFC0E84
:103D9000DBCFE9FFFD0EDBCFEAFFEF50106E116ABB
:103DA000200ED8801054000E115409E3FC0EDBCF16
:103DB000E9FFFD0EDBCFEAFFEF50FF0801E146D03F
:103DC000FC0EDBCFE9FFFD0EDBCFEAFFEF50050D68
:103DD000F3CFE9FFF4CFEAFF000EE926030EEA2253
:103DE000EFCF10F0FC0EDBCFE9FFFD0EDBCFEAFFDB
:103DF000EF50105C01E02AD0050EE66EE66AE66838
:103E0000FC0EDBCFE9FFFD0EDBCFEAFFEF50050D27
:103E1000F3CF10F0F4CF11F0000E1026030E112294
:103E200010C0E6FF11C0E6FFC9EC25F0126E050ECA
:103E3000E15C02E2E16AE552E16E1250FC0EDBCF7A
:103E4000E9FFFD0EDBCFEAFFEF6800D0E552E5CFDA
:103E5000DAFFE7CFD9FF1200D9CFE6FFDACFE6FFCE
:103E6000E1CFD9FFE2CFDAFF0201F05101E1CDDE6F
:103E7000FD0EDB50106E116A200ED8801054000E1B
:103E8000115404E3FD0EDB50FF0802E1000E2DD0BB
:103E9000FD0EDB50050DF3CFE9FFF4CFEAFF000E76
:103EA000E926030EEA22EFCF10F0FD0EDB50105C86
:103EB00002E0000E1AD0FD0EDB50050DF3CFE9FF36
:103EC000F4CFEAFF000EE926030EEA22EE520301C8
:103ED000A051EE5CA151EE58A251EE58A351EE58FC
:103EE00002E2010E02D0000E00D0E552E5CFDAFF6B
:103EF000E7CFD9FF1200D9CFE6FFDACFE6FFE1CF57
:103F0000D9FFE2CFDAFFFD0EDB50106E116A200EF2
:103F1000D8801054000E115404E3FD0EDB50FF084E
:103F200002E1000E40D00201F05101E16EDEFD0E13
:103F3000DB50050DF3CFE9FFF4CFEAFF000EE926D1
:103F4000030EEA22EFCF10F0FD0EDB50105C02E012
:103F5000000E29D0D950F90FE96EFF0EDA20EA6E73
:103F6000EE500301A025106EEE50A121116EEE500F
:103F7000A221126EEE50A321136EFD0EDB50050D33
:103F8000F3CFE9FFF4CFEAFF000EE926030EEA22A1
:103F9000EE5210C0EEFF11C0EEFF12C0EEFF13C0D4
:103FA000EEFF010E00D0E552E5CFDAFFE7CFD9FFF3
:023FB0001200FD
:0E3FB200D9CFE6FFDACFE6FFE1CFD9FFE2CFAD
:103FC000DAFFE652010EE66EE66A0B0EE66EE66A70
:103FD000D9CFE6FFDACFE6FF54EC21F0106E060EE3
:103FE000E15C02E2E16AE552E16E1050DFA002D02E
:103FF000010E02D0000E00D0E552E552E5CFDAFF07
:10400000E7CFD9FF1200D9CFE6FFDACFE6FFE1CF45
:10401000D9FFE2CFDAFFE652E652E652E652040E4C
:10402000E66EE66A100EE66EE66AE20EE66E020ED6
:10403000E66E54EC21F0106E060EE15C02E2E16ADD
:10404000E552E16E1050000902E1010EB4D0FB0E02
:10405000DBCFE6FFE66AFC0EDBCFE6FFFD0EDBCF33
:10406000E6FFE2C2E6FFE3C2E6FFE4C2E6FFE5C226
:10407000E6FF58EC26F0106E080EE15C02E2E16A01
:10408000E552E16E105006C0E2F207C0E3F208C04C
:10409000E4F209C0E5F2040EE66EE66A100EE66E82
:1040A000E66AE20EE66E020EE66ECEEC21F0106ECF
:1040B000060EE15C02E2E16AE552E16E1050000991
:1040C00002E1010E78D0040EE66EE66A0C0EE66E92
:1040D000E66AD9CFE6FFDACFE6FF54EC21F0106EA6
:1040E000060EE15C02E2E16AE552E16E1050000961
:1040F00002E1010E60D0FB0EDBCFE6FFD9CFE9FF76
:10410000DACFEAFFEECF11F0EECF12F0EECF13F0E0
:10411000EFCF14F02F0E1126060E1222010E1322DD
:10412000000E142211C0E6FF12C0E6FF13C0E6FF26
:1041300014C0E6FFFC0EDBCFE6FFFD0EDBCFE6FF93
:10414000D8EC23F0156E070EE15C02E2E16AE5525D
:10415000E16E1550106EFB0EDB50105C02E0020E9B
:104160002AD0FB0EDBCF10F0116A126A136A1050CE
:10417000DE261150DE221250DE221350DD22DD52E7
:10418000DD52040EE66EE66A0C0EE66EE66AD9CFE4
:10419000E6FFDACFE6FFCEEC21F0106E060EE15C12
:1041A00002E2E16AE552E16E1050000902E1010EFF
:1041B00002D0010E00D0106E040EE15C02E2E16A52
:1041C000E552E16E1050E552E5CFDAFFE7CFD9FFB7
:1041D0001200E2C206F0E3C207F0E4C208F0E5C252
:1041E00009F000D012000201E26BE36BE46BE56BB7
:1041F000040EE66EE66A100EE66EE66AE20EE66E03
:10420000020EE66ECEEC21F0106E060EE15C02E2CC
:10421000E16AE552E16E105000D01200D9CFE6FFFE
:10422000DACFE6FFE1CFD9FFE2CFDAFFE652010EA7
:10423000E66EE66A0B0EE66EE66AD9CFE6FFDACFE7
:10424000E6FF54EC21F0106E060EE15C02E2E16A3A
:10425000E552E16E1050000902E1000E1ED0000E82
:10426000DF80010EE66EE66A0B0EE66EE66AD9CFD7
:10427000E6FFDACFE6FFCEEC21F0106E060EE15C31
:1042800002E2E16AE552E16E1050000902E1000E1F
:1042900004D0F9EC2BF0010E00D0E552E552E5CF49
:0842A000DAFFE7CFD9FF12009D
:0842A800D9CFE6FFDACFE6FFF3
:1042B000E1CFD9FFE2CFDAFFE652F80EDBCF14F000
:1042C000F90EDBCF15F0FA0EDB501424106EFB0E46
:1042D000DB501520116E1006000E115A126A136A77
:1042E0001334000E131809E6D880000E1054040E83
:1042F0001154000E1254000E135402E2000E47D067
:10430000DF6ADFCF10F0F80EDBCF11F0F90EDBCF54
:1043100012F01150105C000E125434E2D950FA0F12
:10432000E96EFF0EDA20EA6EEE52030EED16FA0E7B
:10433000DB50A96EFA0EDBCF06F0FB0EDBCF07F0E9
:10434000086A096A0B6A010E0C6E0D6A0E6A3FEC70
:1043500028F00650AA6EA69EA69CA680FC0EDBCF77
:10436000E9FFFD0EDBCFEAFFA8CFEFFFDF2AFC0E4F
:10437000DB2AFD0E01E3DB2AFA0EDB2AFB0E01E34A
:10438000DB2ABFD7A68EA68CA690010E00D0E552E0
:10439000E552E5CFDAFFE7CFD9FF1200D9CFE6FF2C
:1043A000DACFE6FFE1CFD9FFE2CFDAFFE652E652FD
:1043B000F80EDBCF14F0F90EDBCF15F0FA0EDB5060
:1043C0001424106EFB0EDB501520116E1006000E2B
:1043D000115A126A136A1334000E131809E6D880B2
:1043E000000E1054040E1154000E1254000E1354FB
:1043F00002E2000E77D0DF6ADFCF10F0F80EDBCFDD
:1044000011F0F90EDBCF12F01150105C000E1254B7
:1044100064E2D950FA0FE96EFF0EDA20EA6EEE522E
:10442000030EED16FA0EDB50A96EFA0EDBCF06F086
:10443000FB0EDBCF07F0086A096A0B6A010E0C6EEF
:104440000D6A0E6A3FEC28F00650AA6EFC0EDBCF18
:10445000E9FFFD0EDBCFEAFFEF50A86EA69EA69CFB
:10446000A684F29E550EA76EAA0EA76EA682F28EA5
:10447000A1A8FED7A198010EE66EE66AFA0EDBCF80
:10448000E6FFFB0EDBCFE6FFD950010FE66E000E14
:10449000DA20E66E09DF106E060EE15C02E2E16AE8
:1044A000E552E16E1050FC0EDBCFE9FFFD0EDBCFD5
:1044B000EAFFEF50F36E010EDB50F35C02E0000EFA
:1044C00011D0DF2AFC0EDB2AFD0E01E3DB2AFA0EF7
:1044D000DB2AFB0E01E3DB2A8FD7A68EA68CA694DF
:1044E000010E00D0E552E552E552E5CFDAFFE7CF05
:0444F000D9FF1200DE
:0C44F400D9CFE6FFDACFE6FFE1CFD9FF19
:10450000E2CFDAFFE652E652E6523F0EF216CF0E47
:104510009E169D169F16790EAB16FC0EDB50106E84
:10452000116A090ED8801054000E115405E2040ED1
:10453000F36EFC0EF3CFDBFFFB0EDB50010802E253
:10454000FB0EDB6AFA0EDB50020802E2FA0EDB6AAF
:10455000FC0EDBCFFDF0FA0EDBCFFFF0FB0EDBCF66
:10456000FEF00001FD51E96EEA6AD890E936EA36BC
:10457000C80EE926030EEA22EECFDEFFEDCFDDFF07
:10458000DF50AF6E010EDB50B06EC00E9412B886D5
:10459000B892B890AC98AC8AAC849E8A9D8AAB885D
:1045A000AB8EF212D950F80FE96EFF0EDA20EA6EE8
:1045B000EE50ED1006E0F80EDBCFFBF0F90EDBCF8E
:1045C000FCF000D0E552E552E552E552E5CFDAFFC6
:1045D000E7CFD9FF12000001FD5100D01200000109
:1045E000FE5100D012000001FF5100D01200AE5069
:1045F00000D01200D9CFE6FFDACFE6FFE1CFD9FF36
:10460000E2CFDAFFACA2FED7FD0EDB50AD6E050E99
:10461000E66E99EC2BF0E552E552E5CFDAFFE7CFF5
:10462000D9FF1200AB98AB9E9E9A9D9A00D01200C3
:10463000AB88AB8E9D8A9EAA0AD0ABA402D0AB9465
:10464000FAD7ABA202D0AB92F6D7D1DFF4D700D025
:104650001200D9CFE6FFDACFE6FFE1CFD9FFE2CFF4
:10466000DAFFFB0EDBCFF3FFDB06F350000810E2AE
:10467000FC0EDBCFE9FFFD0EDBCFEAFFEF50E66E6D
:10468000B9DFE552FC0EDB2AFD0E01E3DB2AE9D798
:10469000E552E5CFDAFFE7CFD9FF1200D9CFE6FF29
:1046A000DACFE6FFE1CFD9FFE2CFDAFFFD0EDBCFB5
:1046B00010F0116A10BE1168090ED8801054000E57
:1046C000115409E2B4C306F0B5C307F0B6C308F04D
:1046D000B7C309F021D0FD0EDBCFE9FFEA6AE9BEDE
:1046E000EA68D890E936EA36D890E936EA36A40E78
:1046F000E926030EEA22EECF10F0EECF11F0EECF56
:1047000012F0EFCF13F010C006F011C007F012C086
:1047100008F013C009F000D0E552E5CFDAFFE7CF8B
:04472000D9FF1200AB
:0C4724000201EE6BD3EC10F07DD8000910
:1047300001E1C4D800D01200D9CFE6FFDACFE6FFFE
:10474000E1CFD9FFE2CFDAFFE6520201EE5101E0FC
:10475000FCD7EE2BF70EDBCFE6FFE66AD950F80F59
:10476000E96EFF0EDA20EA6EEECFE6FFEECFE6FF4F
:10477000EECFE6FFEFCFE6FFFC0EDBCFE6FFFD0E50
:10478000DBCFE6FFD7EC10F0106E080EE15C02E222
:10479000E16AE552E16E1050DF6E0201EE07DF5074
:1047A00000D0E552E552E5CFDAFFE7CFD9FF12009E
:1047B000D9CFE6FFDACFE6FFE1CFD9FFE2CFDAFFCC
:1047C000E6520201EE5101E0FCD7EE2BF70EDBCFF3
:1047D000E6FFE66AD950F80FE96EFF0EDA20EA6EBE
:1047E000EECFE6FFEECFE6FFEECFE6FFEFCFE6FF40
:1047F000FC0EDBCFE6FFFD0EDBCFE6FF5BEC11F03E
:10480000106E080EE15C02E2E16AE552E16E1050C2
:10481000DF6E0201EE07DF5000D0E552E552E5CF32
:10482000DAFFE7CFD9FF1200D9CFE6FFDACFE6FFF4
:10483000E1CFD9FFE2CFDAFF0B0EE12402E3E1681A
:10484000E652E16E0B0EE66EE66AE66AE66AE66A34
:10485000D9CFE6FFDACFE6FF6FDF106E070EE15C1F
:1048600002E2E16AE552E16E10500B0EE66EE66A76
:10487000D40EE66E010EE66ED9CFE6FFDACFE6FF84
:104880000AEC26F0106E060EE15C02E2E16AE552E7
:10489000E16E1050000902E1010E01D0000E106E11
:1048A0000B0EE15C03E200D0E16AE552E16E1050CC
:1048B000E552E5CFDAFFE7CFD9FF12000B0EE66E27
:1048C000E66AE66AE66AE66AD40EE66E010EE66E0F
:1048D0006FDF106E070EE15C02E2E16AE552E16E05
:1048E0001050200EE66E0B0EE66EE66AE66AE66A89
:1048F000DF0EE66E010EE66E5BDF106E070EE15C0A
:0E49000002E2E16AE552E16E105000D01200B2
:02490E000001A6
:10491000EF0501E113D094908B90E66AE66AE66AAF
:10492000E66A43EC1EF0E552E552E552E55201011C
:10493000FF6F0001ED6B010EEF6F00D01200D9CFB9
:10494000E6FFDACFE6FFE1CFD9FFE2CFDAFFFD0ED7
:10495000DB50010BE8B08B80E8A08B90E552E5CFEF
:10496000DAFFE7CFD9FF1200D9CFE6FFDACFE6FFB3
:10497000E1CFD9FFE2CFDAFFE652E652E652E65245
:104980000001EF5101E1C3DFFFC1E6FF2CEC1FF096
:10499000E552000901E1A3D053EC29F0F3CFDEFF8B
:1049A000F4CFDDFFD9CFE9FFDACFEAFFEE50ED100B
:1049B00012E0960EE66EE66AE66AE66AFFC1E6FF78
:1049C0007BEC1FF0106E050EE15C02E2E16AE5523D
:1049D000E16E105012D0DC0EE66E050EE66EE66A51
:1049E000E66AFFC1E6FF7BEC1FF0106E050EE15C8E
:1049F00002E2E16AE552E16E10500001ED51010B57
:104A000023E1ED417F0BEA6AE80FE96E000EEA222E
:104A1000EF50E76E000EDFCF10F0010EDBCF11F08C
:104A2000E7501016116A105011100BE0ED417F0B8A
:104A3000EA6AE30FE96E000EEA22EFCFEEF0ED2B0B
:104A400002D0020EED2746D0ED417F0BEA6AE80F57
:104A5000E96E000EEA22EF50E76E000EDFCF10F095
:104A6000010EDBCF11F0E7501016116A1050111033
:104A700031E08B70EE07EE512DE1ED2BED417F0B18
:104A8000EA6AE30FE96E000EEA22EF50960DF3CFCB
:104A900010F0F4CF11F0B80ED88010560B0E11564E
:104AA000126A136A11AE02D01268136810C0E6FFD2
:104AB00011C0E6FF12C0E6FF13C0E6FFFFC1E6FF2C
:104AC0007BEC1FF0146E050EE15C02E2E16AE55238
:104AD000E16E14500001ED510A0801E2ED6B040E85
:104AE000E15C02E2E16AE552E16EE552E5CFDAFF10
:064AF000E7CFD9FF120020
:0A4AF600D9CFE6FFDACFE6FFFA0E93
:104B0000E3CFD9FFFB0EE3CFDAFFFC0EE3CFE9FFE3
:104B1000FD0EE3CFEAFFE9CFF3FFEACFF4FFF80E93
:104B2000E35003E1F90EE35008E0F80EE30602E279
:104B3000F90EE306DECFEEFFF2D7FF0EE3CFDAFF8A
:104B4000E552FF0EE3CFD9FFE5521200FB0EE3CF93
:104B5000F6FFFC0EE3CFF7FFFD0EE3CFF8FFFE0EEE
:104B6000E3CFE9FFFF0EE3CFEAFFE9CFF3FFEACFA0
:104B7000F4FFF90EE35003E1FA0EE35009E0F90EF9
:104B8000E30602E2FA0EE3060900F5CFEEFFF1D7E5
:104B90001200FE0EE3CFE9FFFF0EE3CFEAFFE9CFFD
:104BA000F3FFEACFF4FFFB0EE35003E1FC0EE3500A
:104BB00009E0FB0EE30602E2FC0EE306FD0EE35005
:104BC000EE6EF1D71200FB0EE3CFF6FFFC0EE3CF43
:104BD000F7FFFD0EE3CFF8FFFE0EE3CFE9FFFF0E78
:104BE000E3CFEAFFE9CFF3FFEACFF4FF0900F5CF07
:104BF000EFFFEE66FBD71200FE0EE3CFE9FFFF0EDC
:104C0000E3CFEAFFF36AF46AEE5203E0F34AF42AD0
:104C1000FBD71200D9CFE6FFDACFE6FFFA0EE3CFDB
:104C2000D9FFFB0EE3CFDAFFFC0EE3CFE9FFFD0E69
:104C3000E3CFEAFFF80EE35003E1F90EE3500AE098
:104C4000F80EE30602E2F90EE306DE50EF5C02E145
:104C5000EE66F0D7F36EFF0EE3CFDAFFE552FF0EFC
:104C6000E3CFD9FFE552F3501200FE0EE3CFF3FF7E
:104C7000FF0EE3CFF4FFFB0EE3CFF6FFFC0EE3CF16
:104C8000F7FFFD0EE3CFF8FFF3CFE9FFF4CFEAFF24
:104C90000900F5500CE0F550EF5C02E1EE52F8D758
:104CA000EF5203E0F34AF42AE6D7F36AF46A1200FB
:104CB000D9CFE6FFDACFE6FFE1CFD9FFE2CFDAFFC7
:104CC000D950F60FE96EFF0EDA20EA6EEE50ED10C5
:104CD00005E1066A076A086A096A83D0F60EDB06F0
:104CE000DBCF10F0F70E01E2DB06DBCF11F0105046
:104CF000111062E0FA0EDBCF1CF0FB0EDBCF1DF0D3
:104D0000FC0EDBCF1EF0FD0EDBCF1FF0080ED8909F
:104D10001F321E321D321C32E806F9E1F80EDBCFDD
:104D2000E9FFDB2AF90EDBCFEAFF01E3DB2AEFCF55
:104D300018F0196A1A6A1B6AD950FA0FE96EFF0E49
:104D4000DA20EA6EEE501818146EEE501918156E2F
:104D5000EE501A18166EEE501B18176E156A166A6A
:104D6000176A14C0F6FF15C0F7FFD890F636F7366D
:104D7000D890F636F7360A0EF626380EF7220900D6
:104D8000F5501C18106E0900F5501D18116E090021
:104D9000F5501E18126E0900F5501F18136EFA0E0A
:104DA00010C0DBFFFB0E11C0DBFFFC0E12C0DBFFEF
:104DB000FD0E13C0DBFF92D7FA0EDBCF10F0FB0E17
:104DC000DBCF11F0FC0EDBCF12F0FD0EDBCF13F0CA
:104DD00010C006F011C007F012C008F013C009F0AF
:0E4DE00000D0E552E5CFDAFFE7CFD9FF120091
:024DEE00E9CF0B
:104DF000E4FFEACFE4FFF6CFE4FFF7CFE4FFF5CF1F
:104E0000E4FFF3CFE4FFF4CFE4FFFACFE4FFE65290
:104E1000D9CFE6FFDACFE6FFE1CFD9FFE2CFDAFF65
:104E2000E652F2A209D0ECEC28F0DF6EDFCFE6FF0D
:104E30005BEC00F0E552F2929EA203D03CEC1EF037
:104E40009E929EAA1DD0ABA403D0F7EC22F018D0FE
:104E5000ABA204D0AB780000AB7812D00001FB51BC
:104E6000FC110DE0F7EC22F0DF6EDFCFE6FF05D09E
:104E7000FCC0FAFF0001FB51F96EFADFE552E1D701
:104E8000E552E552E5CFDAFFE7CFD9FFE552E5CFAE
:104E9000FAFFE5CFF4FFE5CFF3FFE5CFF5FFE5CF70
:104EA000F7FFE5CFF6FFE5CFEAFFE5CFE9FF110019
:084EB000E65200D0E5521100AA
:084EB800D9CFE6FFDACFE6FFD7
:104EC000E1CFD9FFE2CFDAFFE652FD0EDBCFE6FFFE
:104ED000E66A67EC2BF0E552E552F350DF6E300ED8
:104EE000DF5C07E3DF50390804E3300EDF5C0DD0F0
:104EF0000AD0410EDF5C07E3DF50460804E3410EB1
:104F0000DF5C0A0F02D0000E00D0E552E552E5CF7B
:104F1000DAFFE7CFD9FF1200D9CFE6FFDACFE6FFFD
:104F2000E1CFD9FFE2CFDAFFFC0EDBCF12F0FD0EAE
:104F3000DBCF13F0133404E212500008000E1354B8
:104F400007E2FC0EDBCF10F0FD0EDBCF11F00AD034
:104F5000FC0EDBCF10F0FD0EDBCF11F0106C111E3C
:104F6000000E112210C0F3FF11C0F4FF00D0E55273
:0A4F7000E5CFDAFFE7CFD9FF12000A
:064F7A0000D01200010E40
:104F8000E66EE66AE66AE66AFCEC29F0E552E5526E
:104F9000E552E552F0EC2BF0000908E100EC2CF0B2
:104FA000000904E1A7EC2BF000092BE0F0EC2BF05A
:104FB000010807E1040EE66EE66A21EC29F0E552ED
:104FC000E55200EC2CF0010807E1100EE66EE66AEF
:104FD00021EC29F0E552E552A7EC2BF0010807E19E
:104FE000080EE66EE66A21EC29F0E552E552010E64
:104FF000E66E9FEC24F0E552B4EC24F0F6EC2BF0D6
:10500000FBD7D0EC19F067EC17F087EC24F052ECEA
:1050100000F0A8EC0AF059EC29F01AEC01F035EC9C
:105020000DF0B4EC24F005EC1BF0F6EC2BF0F5D70A
:0250300012006C
:0E503200006A0EAE22EF28F00D6C0E1EE86A2A
:105040000E22001E09AE2AEF28F0086C091EE86A3D
:105050000922001E51EC2BF009BE3AEF28F000AEF9
:10506000000C086C091EE86A0922046C051EE86A37
:105070000522000C00BE31EF28F00188FF0C006A09
:10508000E86A0EAE4CEF28F00B6C0C1E0D1E0E1EC7
:105090000C220D220E22001E09AE57EF28F0066CDE
:1050A000071E081E091E072208220922001EFFEC07
:1050B0002AF009BE6EEF28F000AE000C066C071E49
:1050C000081E091EE86A072208220922026C031E34
:1050D000041E051E032204220522000C00BE5EEF02
:0650E00028F00188FF0C1E
:0A50E600000E0201EF151EE0040E9B
:1050F000E66EE66AF80E106E570E116E126A10C058
:10510000E6FF11C0E6FF12C0E6FFE40EE66E030EF6
:10511000E66EA6EC25F0136E070EE15C02E2E16A92
:10512000E552E16E13500201EF81E4C306F0E5C3DE
:1051300007F0E6C308F0E7C309F000D01200000E44
:105140000201EF151EE0040EE66EE66AFC0E106E1C
:10515000570E116E126A10C0E6FF11C0E6FF12C0B2
:10516000E6FFE80EE66E030EE66EA6EC25F0136E83
:10517000070EE15C02E2E16AE552E16E13500201C2
:10518000EF83E8C306F0E9C307F0EAC308F0EBC316
:0651900009F000D012003E
:0A51960007EC00F00201FF0EE3CF6A
:1051A000EAF2090EEB6FD8900F01D9EF28F0020157
:1051B000EA330F01D8A08B92D8B08B8200003BEC71
:1051C0002BF00201EB2FD7EF28F00F018B823BEC85
:1051D0002BF0C9EC2BF012000201080EEB6F0F014F
:1051E00081B0F0EF28F045EC2BF00F0181B0F0EF2B
:1051F00028F04BEC2BF00F0181A0D89081B0D88023
:105200000201EA33EB2FF9EF28F04BEC2BF045ECE1
:105210002BF000000201EA5112000F013F0EF216BE
:105220000F010F0EC16E0F01F19C0F01F2880F01EB
:10523000C00EF2120F0194928B820F019380818035
:0252400012005A
:0E524200D9CFE6FFDACFE6FFE1CFD9FFE2CF0A
:10525000DAFFFC0EDBCF08F0FD0EDBCF09F00850C3
:105260000301EC130950ED13E552E5CFDAFFE7CF68
:10527000D9FF1200D9CFE6FFDACFE6FFE1CFD9FFA1
:10528000E2CFDAFFFC0EDB1C106EFD0EDB1C116E94
:1052900010500301EC171150ED17E552E5CFDAFF7E
:1052A000E7CFD9FF1200ECC3F3FFEDC3F4FF00D04A
:1052B0001200E8680301EF1908E1E868F01905E158
:1052C000E868F11902E1E868F2190CE15FEC2AF0F4
:1052D00006C0EFF307C0F0F308C0F1F309C0F2F322
:0A52E000EFC3EEF3010E00D0120040
:0652EA001E0EF66E000E20
:1052F000F76E000EF86E03010900F550DF6F09002C
:10530000F550E06F03E1DF6701D03DD00900F550B3
:10531000DA6F0900F550DB6F0900F550DC6F09000A
:105320000900F550E96E0900F550EA6E0900090020
:105330000900F550DD6F0900F550DE6F0900090026
:10534000F6CFE1F3F7CFE2F3F8CFE3F3DAC3F6FFFA
:10535000DBC3F7FFDCC3F8FF0301DD5302E1DE53DB
:1053600007E00900F550EE6EDD07F8E2DE07F9D739
:10537000E1C3F6FFE2C3F7FFE3C3F8FF0301DF0772
:08538000000EE05BBFD7120034
:0853880006500B02F3CF02F006
:10539000F4CF03F00C02F3500326000EF420046E49
:1053A00006500D02F3500426000EF420056E065040
:1053B0000E02F350052607500B02F3500326F4505B
:1053C0000422000E052207500C02F3500426F4506C
:1053D000052207500D02F350052608500B02F3502A
:1053E0000426F450052208500C02F35005260950FB
:0853F0000B02F3500526120028
:0853F800D9CFE6FFDACFE6FF92
:10540000E1CFD9FFE2CFDAFFE652D950FA0FE96EC9
:10541000FF0EDA20EA6EEECFE6FFEECFE6FFEECF2C
:10542000E6FFEFCFE6FF43EC1EF0E552E552E55212
:10543000E552DF6EDFCFE6FF2CEC1FF0E5520009EE
:1054400001E1F8D7D9CFE6FFDACFE6FFBBEC1EF0DB
:10545000E552E55200D0E552E552E5CFDAFFE7CF5D
:04546000D9FF12005E
:0C546400D9CFE6FFDACFE6FFE1CFD9FF99
:10547000E2CFDAFFE652E652DF6AFB0EDB50DF5C7A
:1054800016E2ECEC28F0E76E010EE7CFDBFFFC0E36
:10549000DBCFE9FFFD0EDBCFEAFF010EDBCFEFFF35
:1054A000FC0EDB2AFD0E01E3DB2ADF2AE6D7E552FC
:0E54B000E552E552E5CFDAFFE7CFD9FF120053
:0254BE000201E9
:1054C000F1511FE1040EE66EE66A060E106E580EEC
:1054D000116E126A10C0E6FF11C0E6FF12C0E6FFAF
:1054E000DE0EE66E020EE66EA6EC25F0136E070EDB
:1054F000E15C02E2E16AE552E16E13500201010E45
:10550000F16FDEC206F0DFC207F0E0C208F0E1C2D0
:0655100009F000D01200BA
:0A551600D9CFE6FFDACFE6FFE1CFC0
:10552000D9FFE2CFDAFFE652E652010EDB6ADF6A0C
:10553000080EDF5C0DE2010EDBCFF3FFF39EF346B6
:10554000F3CFDBFF828682B8DB808296DF2AF0D73A
:105550008298010EDB5000D0E552E552E552E5CFCE
:08556000DAFFE7CFD9FF1200CA
:08556800D9CFE6FFDACFE6FF20
:10557000E1CFD9FFE2CFDAFFE652829ADF6A080E66
:10558000DF5C10E2FD0EDBAE02D0828A01D0829A8F
:10559000DBCFF3FFF39EF346F3CFDBFF82868296E9
:1055A000DF2AEDD7829A00D0E552E552E5CFDAFF47
:0655B000E7CFD9FF120055
:0A55B600D9CFE6FFDACFE6FFE1CF20
:1055C000D9FFE2CFDAFFFC0EDBCFE9FFFD0EDBCF28
:1055D000EAFFEF50E66ECBEC28F0E552FC0EDBCF95
:1055E000E9FFDB2AFD0EDBCFEAFF01E3DB2AEF5008
:0E55F000EAE1E552E5CFDAFFE7CFD9FF12007E
:0255FE00056A3C
:10560000046A036A026A200EE76ED89006360736EF
:105610000836093602360336043605360B50025C6E
:105620000C5003580D5004580E50055809E30B5008
:10563000025E0C50035A0D50045A0E50055A062AA9
:06564000E72EE4D7120082
:0A56460000D01200D9CFE6FFDACF42
:10565000E6FFE1CFD9FFE2CFDAFF00D0E552E5CF98
:10566000DAFFE7CFD9FF120000D0120000D01200FD
:06567000000E00D0120044
:0A567600160EE66EB3EC2BF0E552C1
:1056800000000000000000001200180EE66EEAECB8
:105690002BF0E5521200350EE66EEAEC2BF0E552E7
:0256A0001200F6
:0E56A200056A046A100EE76ED89008360936C5
:1056B000043605360D50045C0E50055805E30D50B8
:0E56C000045E0E50055A082AE72EF0D712009D
:0256CE00FF0ECD
:1056D000E124E96EFF0EE220EA6EEDCFF4FFEFCF9A
:1056E000F3FFF46607D0600EF36404D07B0EF36022
:0656F00001D0F39A120044
:0A56F600000EF36E00EE00F00D0E42
:1057000001D81200EA6002D0EE6AFCD7F350E960DB
:065710001200EE6AFCD756
:0A5716001CEE00F02CEE00F0F86A23
:10572000019C75EC29F0BDEC27F0BFEC27F0FBD70E
:02573000120065
:0E573200FF0EE350206E1B0E00D001D0200EA3
:0E574000E76EE72EFED7202EFAD700D012001B
:02574E00D0A2E7
:1057500009D0D0A406D0D0A003D0D0B6000C010C44
:06576000000C000C000C1F
:0A576600FF0EE350E84E12000000B1
:0C57700000D000D000D0E82EFAD71200C4
:04577C002B49505213
:105780000041542B4950523D3F0D0A002E41542EEA
:015790000018
:015791000017
:0E5792000F01F290F2920F01F090F0920F01D1
:0657A000C00EF21212001F
:0A57A60082848288829A829694948D
:0857B0009488949A949612006B
:0857B8008284000000000000E3
:0657C000000000D0120001
:0A57C60082940000000000000000C3
:0457D00000D01200F3
:0C57D400FF0EE3500000E82EFDD712008D
:0C57E000D0B003D0D0A2000C010C000CD3
:0457EC00040000D0E5
:0857F0001200FF0000D01200BE
:0857F8000000020100030001A2
:06580000A1B4010C000C34
:04580600320000006C
:06580A000000FFFFFFFF9C
:01581000FF98
:0F5811002C010000B004000060090000C012006C
:105820000080250000004B00000096000000E10011
:105830000000C20100FF3BFF0E7F07BF03DF01EF47
:075840000077004F00270074
:07584700FF0000FF00FF005D
:02584E00020452
:0B58500006080A010204081000000016
:04585B00000102FF47
:01585F000048
:015860000047
:0F586100594857482D526170686100AAFF55FFE2
:10587000AAFF55FFAAFF55FFAAFF55FFAAFF55FF34
:0C588000AAFF55FFAAFF55FFAAFF55FF25
:020000040030CA
:0100010002FC
:0100020001FC
:010003001FDD
:01000500807A
:010006008178
:0200000400F00A
:1000000001000000000000000000000000000000EF
:0C001000000000007856341212435678AD
:00000001FF
