:020000040000FA
:06000000DDEF20F012000C
:0100060000F9
:0100070000F8
:0600080024EF1DF01200C0
:02000E000F01E0
:060010003F0EF216120083
:0600180085EF1DF012004F
:02001E000A00D6
:1000200000430000B40300002B000000FA4200006F
:10003000DF03000006000000F7420000F6030000A6
:1000400003000000EA420000EA0200000D00000088
:1000500007000000FC03000001000000E342000074
:10006000F702000007000000AD420000B4020000EB
:100070003600000006000000FB0300000100000045
:10008000A6420000F8000000070000003542000012
:08009000FA030000010000006A
:080098000301EA6BEB6BEC6B5A
:1000A000ED6BD1EC1DF000D01200D9CFE6FFE1CF0F
:1000B000D9FF0301EE51106E116AB40E105C000EF0
:1000C000115803E3EE6BEB6B6CD0EB51060A59E071
:1000D000040A15E0010A13E0070A11E0050A0FE01F
:1000E000040A0DE0050A01E057D0EC6BED6BEE6BF6
:1000F000FE0EDB50020802E1020EEB6F51D0EE5112
:10010000EA6A000FE96E030EEA22FE0EDBCFEFFF74
:10011000DB50EC1BEE2BEB51050A29E0040A1EE034
:10012000050A19E0070A14E0010A01E029D006ECEB
:100130001FF0F36EFE0EDB50F35C06E00301EC6B88
:10014000EE6BEB6BEA6B03D00301030EEB6F18D081
:10015000040EEB6F15D0010EEB6F12D0030EEE5DA7
:100160000301025D03E10301050EEB6F09D0EC51C1
:1001700004E0EC6BEE6BEB6BEA6B060EEB6F00D002
:100180000FD0EC6BEE6BEB6B010EEA6FFE0EDB50EB
:10019000030801E0EA6B04D0EC6BEE6BEB6BEA6BEF
:1001A00000D0E552E7CFD9FF1200D9CFE6FFE1CF6B
:1001B000D9FFE6520301EA5101E180D0EA6B02C3A4
:1001C000DFFF040EDF24E66EE66A000EE66E030E25
:1001D000E66E000EE66E020EE66E82EC18F0106E11
:1001E000060EE15E1050020103510E0A5EE0030AA2
:1001F00053E0070A48E0060A3DE0070A33E00C0A2C
:1002000029E0020A1FE0060A15E0010A0BE0030AD2
:1002100001E054D0000EE66E020EE66E54D8E552B0
:10022000E5524CD0000EE66E020EE66EA3D8E55203
:10023000E55244D0000EE66E020EE66E00D9E5529D
:10024000E5523CD0000EE66E020EE66EE5DAE552AF
:10025000E55234D0000EE66E020EE66E4ADBE55241
:10026000E5522CD0000EE66E020EE66ED5DBE552AE
:10027000E55224D0000EE66E020EE66E97EC05F015
:10028000E552E5521BD0000EE66E020EE66E18EC4B
:1002900006F0E552E55212D0000EE66E020EE66E52
:1002A0000DEC07F0E552E55209D0000EE66E020EA5
:1002B000E66EAFEC07F0E552E55200D0E552E552AC
:1002C000E7CFD9FF1200D9CFE6FFE1CFD9FF050E66
:1002D000E126F0EC09F0000901E142D0010EF36ED5
:1002E000040EF3CFDBFF010EE66ED950040FE66E6D
:1002F000000EDA20E66EE66A6DEC10F0E552E5528B
:10030000E552E552010EE66EE66ADAEC1EF0E552C1
:10031000E552010EE76EFD0EDBCFE9FFFE0EDBCFEF
:10032000EAFFE750E926000EEA22EFCFDFFF06ECF6
:100330001FF0E76E010EE7CFDBFFF36E020EF3CF87
:10034000DBFF010EF36E030EF3CFDBFF040EE66E50
:10035000D9CFE6FFDACFE6FFF8D8E552E552E5520D
:10036000050EE15C02E2E16AE552E16EE552E7CF9B
:10037000D9FF1200D9CFE6FFE1CFD9FF84D9000918
:1003800001E159D0020EE76EFD0EDBCFE9FFFE0E54
:10039000DBCFEAFFE750E926000EEA22EF04E66E23
:1003A000040EE76EFD0EDBCF10F0FE0EDBCF11F07A
:1003B000E7501026000E112210C0E6FF11C0E6FF24
:1003C000020EE66E6DEC10F0E552E552E552E55294
:1003D000010EE76EFD0EDBCFE9FFFE0EDBCFEAFF7D
:1003E000E750E926000EEA22EF50E66EEED8E5521D
:1003F000020EE76EFD0EDBCFE9FFFE0EDBCFEAFF5C
:10040000E750E926000EEA22EF04E66E040EE76EDE
:10041000FD0EDBCF10F0FE0EDBCF11F0E750102603
:10042000000E112210C0E6FF11C0E6FF42EC09F0F9
:10043000E552E552E552E552E7CFD9FF1200D9CF98
:10044000E6FFE1CFD9FF080EE1261DD9000901E141
:1004500072D0020EF36E060EF3CFDBFF040EE76ED2
:10046000FD0EDBCFE9FFFE0EDBCFEAFFE750E9260A
:10047000000EEA22070EEFCFDBFF020EE66ED95028
:10048000060FE66E000EDA20E66EE66A6DEC10F0FE
:10049000E552E552E552E552040EE76EFD0EDBCF64
:1004A000E9FFFE0EDBCFEAFFE750E926000EEA2265
:1004B000EF50E66E10EC09F0E552DF6EFD0EDBCF7B
:1004C000E9FFFE0EDBCFEAFF010EEFCFDBFFE76EA9
:1004D000FD0EDBCFE9FFFE0EDBCFEAFFE750E9269A
:1004E000000EEA22020EEFCFDBFFF36E030EF3CF16
:1004F000DBFFE76EFD0EDBCFE9FFFE0EDBCFEAFF91
:10050000E750E926000EEA22040EEFCFDBFFDF04FE
:1005100002E1000E01D0010EE76E050EE7CFDBFF12
:10052000E66ED950010FE66E000EDA20E66E0DD8A9
:10053000E552E552E552080EE15C02E2E16AE5525D
:10054000E16EE552E7CFD9FF1200D9CFE6FFE1CF48
:10055000D9FF020EE126DF6AE66E8FEC1DF0E55250
:10056000FC0EDB501AE0FD0EDBCFE9FFFE0EDBCF09
:10057000EAFF010EEFCFDBFFFD0EDB2AFE0E01E3EB
:10058000DB2A010EDBCFE6FF8FEC1DF0E552010EFA
:10059000DB50DF1AFC0EDB06E3D7DFCFE6FF8FEC84
:1005A0001DF0E552030EE66E8FEC1DF0E552010ED4
:1005B000106E020EE15C03E200D0E16AE552E16EEA
:1005C0001050E552E7CFD9FF1200D9CFE6FFE1CFB7
:1005D000D9FF040EE126FE0EDB50DF6E06EC1FF0A5
:1005E000E76E010EE7CFDBFFF36E020EF3CFDBFF0A
:1005F000060EF36E030EF3CFDBFF040EE66ED9CFCB
:10060000E6FFDACFE6FFA1DFE552E552E552040E40
:10061000E15C02E2E16AE552E16EE552E7CFD9FF23
:100620001200D9CFE6FFE1CFD9FF050EE126FE0E7D
:10063000DB50DF6E06EC1FF0E76E010EE7CFDBFF4D
:10064000020EF36EF3CFDBFF150EF36E030EF3CF46
:10065000DBFFFD0EDB50E76E040EE7CFDBFF050E80
:10066000E66ED9CFE6FFDACFE6FF6FDFE552E5525F
:10067000E552050EE15C02E2E16AE552E16EE55207
:10068000E7CFD9FF120000EC1FF0F350010B02E09E
:10069000010E01D0000E00D01200D9CFE6FFE1CF4D
:1006A000D9FF030EE126EFDF000901E1A3D0FC0E24
:1006B000DBCFE6FFFD0EDBCFE6FFFE0EDBCFE6FF76
:1006C000020EE66E6DEC10F0E552E552E552E55291
:1006D000FC0EDB04E66ED950010FE96EDACFEAFFBB
:1006E000E552E750EE6EED6A010EDBCF10F0020E20
:1006F000DBCF11F00001800E11142BE1010EDBCFD6
:1007000012F0020EDBCF13F0FD0EDB501224E96E67
:10071000FE0EDB501320EA6EEF50E66E010EDBCFCB
:1007200010F0020EDBCF11F0040E1026000E112285
:10073000FD0EDB501024E96EFE0EDB501120EA6E38
:10074000E552E750EF6E010EDB06020E01E2DB061A
:10075000CBD7FD0EDBCFE9FFFE0EDBCFEAFFEF6A62
:1007600006EC1FF0E66E010EE76EFD0EDBCFE9FF33
:10077000FE0EDBCFEAFFE750E926000EEA22E55243
:10078000E750EF6EFC0EDB28E66E020EE76EFD0E04
:10079000DBCFE9FFFE0EDBCFEAFFE750E926000ED4
:1007A000EA22E552E750EF6E030EE76EFD0EDBCF57
:1007B000E9FFFE0EDBCFEAFFE750E926000EEA2252
:1007C000020EEF6EE76EFD0EDBCFE9FFFE0EDBCF14
:1007D000EAFFE750E926000EEA22EF50030FE66E2B
:1007E000FD0EDBCFE6FFFE0EDBCFE6FFAEDEE55211
:1007F000E552E552030EE15C02E2E16AE552E16E88
:10080000E552E7CFD9FF1200D9CFE6FFE1CFD9FFFC
:10081000E552E7CFD9FF1200D9CFE6FFE1CFD9FFEC
:10082000090EE12630DF000901E159D0040EF36E14
:10083000080EF3CFDBFF010EE66ED950080FE66E0F
:10084000000EDA20E66EE66A6DEC10F0E552E55235
:10085000E552E55200EC1FF0060EF3CFDBFF070E6A
:10086000F4CFDBFF010EE76EFD0EDBCFE9FFFE0EDE
:10087000DBCFEAFFE750E926000EEA22EFCFDFFFE9
:1008800006EC1FF0E76E010EE7CFDBFF030EF36E01
:10089000020EF3CFDBFF050EF36E030EF3CFDBFF8B
:1008A000020EE66EE66AD950060FE66E000EDA20FA
:1008B000E66ED950040FE66E000EDA20E66E82EC8A
:1008C00018F0106E060EE15E1050060EE66ED9CFDF
:1008D000E6FFDACFE6FF39DEE552E552E552090ED2
:1008E000E15C02E2E16AE552E16EE552E7CFD9FF51
:1008F0001200D9CFE6FFE1CFD9FF110EE126C3DE0A
:10090000000901E17FD0050EF36E100EF3CFDBFF7F
:10091000010EE66ED950100FE66E000EDA20E66E7C
:10092000E66A6DEC10F0E552E552E552E5520C0E28
:10093000DB6A0D0EDB6A020EF36E0E0EF3CFDBFFE9
:10094000010EF36E0F0EF3CFDBFF010EE76EFD0E0F
:10095000DBCFE9FFFE0EDBCFEAFFE750E926000E12
:10096000EA22EFCFDFFF06EC1FF0E76E010EE7CFC4
:10097000DBFF090EF36E020EF3CFDBFF070EF36E03
:10098000030EF3CFDBFF040EE66EE66AD9500C0FC0
:10099000E66E000EDA20E66ED950040FE66E000E09
:1009A000DA20E66E82EC18F0106E060EE15E105052
:1009B0000C0EDB6A0D0EDB6A0E0EDB6A010EF36EA7
:1009C0000F0EF3CFDBFF040EE66EE66AD9500C0F74
:1009D000E66E000EDA20E66ED950080FE66E000EC5
:1009E000DA20E66E82EC18F0106E060EE15E105012
:1009F0000C0EE66ED9CFE6FFDACFE6FFA6DDE552B4
:100A0000E552E552110EE15C02E2E16AE552E16E67
:100A1000E552E7CFD9FF1200D9CFE6FFE1CFD9FFEA
:100A2000090EE12630DE000901E177D0070EF36EF2
:100A3000080EF3CFDBFF010EE66ED950080FE66E0D
:100A4000000EDA20E66EE66A6DEC10F0E552E55233
:100A5000E552E552040EE76EFD0EDBCFE9FFFE0E18
:100A6000DBCFEAFFE750E926000EEA22080EEFCFBF
:100A7000DBFF050EE76EFD0EDBCFE9FFFE0EDBCFE1
:100A8000EAFFE750E926000EEA22070EEFCFDBFF70
:100A9000DBCFE6FF080EDBCFE6FF4FEC14F0E552AC
:100AA000E552E76E060EE7CFDBFFDB0402E0070E40
:100AB000DB68010EE76EFD0EDBCFE9FFFE0EDBCF3C
:100AC000EAFFE750E926000EEA22EFCFDFFF06EC4F
:100AD0001FF0E76E010EE7CFDBFF030EF36E020E91
:100AE000F3CFDBFF0B0EF36E030EF3CFDBFF080E2D
:100AF000DB50E76E040EE7CFDBFF070EDB50E76E3F
:100B0000050EE7CFDBFF060EE66ED9CFE6FFDACFA4
:100B1000E6FF1BDDE552E552E552090EE15C02E21B
:100B2000E16AE552E16EE552E7CFD9FF1200D9CF75
:100B3000E6FFE1CFD9FF0A0EE126A5DD000901E1BC
:100B40006DD0070EF36E090EF3CFDBFF010EE66EDC
:100B5000D950090FE66E000EDA20E66EE66A6DECFB
:100B600010F0E552E552E552E552040EE76EFD0E37
:100B7000DBCFE9FFFE0EDBCFEAFFE750E926000EF0
:100B8000EA22080EEFCFDBFFD950060FE66E000E0B
:100B9000DA20E66E080EDBCFE6FFABEC14F0E55290
:100BA000E552E552E76E070EE7CFDBFFDB5002E1CF
:100BB000060EDB68010EE76EFD0EDBCFE9FFFE0ED1
:100BC000DBCFEAFFE750E926000EEA22EFCFDFFF96
:100BD00006EC1FF0E76E010EE7CFDBFF030EF36EAE
:100BE000020EF3CFDBFF0C0EF36E030EF3CFDBFF31
:100BF000080EDB50E76E040EE7CFDBFF060EDB507E
:100C0000E76E050EE7CFDBFF060EE66ED9CFE6FFF7
:100C1000DACFE6FF9ADCE552E552E5520A0EE15CD6
:100C200002E2E16AE552E16EE552E7CFD9FF120038
:100C3000D9CFE6FFE1CFD9FF26DD000901E1E9D0F8
:100C4000000EE66EE66A85EC11F0E552E552010809
:100C500001E0CBD0010EE76EFD0EDBCFE9FFFE0E0B
:100C6000DBCFEAFFE750E926000EEA22EF50E66EFE
:100C7000FD0EDBCFE9FFFE0EDBCFEAFFE552E750CA
:100C8000EF6E06EC1FF0E66E010EE76EFD0EDBCF99
:100C9000E9FFFE0EDBCFEAFFE750E926000EEA226D
:100CA000E552E750EF6E030EE76EFD0EDBCFE9FF76
:100CB000FE0EDBCFEAFFE750E926000EEA220A0E1D
:100CC000EF6E040EE76EFD0EDBCFE9FFFE0EDBCF0D
:100CD000EAFFE750E926000EEA2260C0EFFF050EAA
:100CE000E76EFD0EDBCFE9FFFE0EDBCFEAFFE7503C
:100CF000E926000EEA2263C0EFFF61C006F062C081
:100D000007F0086A096A0B6A010E0C6E0D6A0E6A1A
:100D100058EC1FF00650E66E060EE76EFD0EDBCFB8
:100D2000E9FFFE0EDBCFEAFFE750E926000EEA22DC
:100D3000E552E750EF6E070EE76EFD0EDBCFE9FFE1
:100D4000FE0EDBCFEAFFE750E926000EEA2261C083
:100D5000EFFF00016351E66EE66A640EE66E000E78
:100D6000E66E080EE76EFD0EDBCF10F0FE0EDBCF59
:100D700011F0E7501026000E112210C0E6FF11C03E
:100D8000E6FF82EC18F0126E060EE15E1250050EC0
:100D900000016325E66E020EE76EFD0EDBCFE9FF74
:100DA000FE0EDBCFEAFFE750E926000EEA22E5520D
:100DB000E750EF6E020EE76EFD0EDBCFE9FFFE0E91
:100DC000DBCFEAFFE750E926000EEA22EF50030FDF
:100DD000E66EFD0EDBCFE6FFFE0EDBCFE6FFA5ECF9
:100DE00002F0E552E552E55214D0030EE66E010E14
:100DF000E76EFD0EDBCFE9FFFE0EDBCFEAFFE7502B
:100E0000E926000EEA22EF50E66E0BDCE552E552D1
:100E100000D0E552E7CFD9FF1200D9CFE6FFE1CFEE
:100E2000D9FF050EE1262FDC000901E18ED0010E6D
:100E3000E76EFD0EDBCFE9FFFE0EDBCFEAFFE750EA
:100E4000E926000EEA22EF50E66EE5EC02F0E552EC
:100E5000010EE76EFD0EDBCFE9FFFE0EDBCFEAFFF2
:100E6000E750E926000EEA22EFCFDFFF06EC1FF085
:100E7000E76E010EE7CFDBFF020EF36EF3CFDBFF71
:100E80000D0EF36E030EF3CFDBFF020EE76EFD0EC9
:100E9000DBCFE9FFFE0EDBCFEAFFE750E926000ECD
:100EA000EA22EF04106E116A126A136A1334000EFC
:100EB000131809E6D880800E1054000E1154000E4D
:100EC0001254000E13540EE2040EDB6A050EE66E99
:100ED000D9CFE6FFDACFE6FFA5EC02F0E552E55206
:100EE000E55233D0020EE76EFD0EDBCFE9FFFE0EBA
:100EF000DBCFEAFFE750E926000EEA22EF04E66EB8
:100F0000040EE76EFD0EDBCF10F0FE0EDBCF11F00E
:100F1000E7501026000E112210C0E6FF11C0E6FFB8
:100F2000F5EC1BF0E552E552E552E76E040EE7CF13
:100F3000DBFF050EE66ED9CFE6FFDACFE6FFA5ECC4
:100F400002F0E552E552E55200D0050EE15C02E206
:100F5000E16AE552E16EE552E7CFD9FF1200D9CF41
:100F6000E6FFE1CFD9FF00D0E552E7CFD9FF12006D
:100F7000D9CFE6FFE1CFD9FF200EE126CC0EE66EF9
:100F8000120EE66EE66AE66A040EE66EE66A80EC2B
:100F900017F0106E060EE15E1050200EE66EE66A47
:100FA000E66AB40EE66E010EE66ED0EC18F0106E36
:100FB000050EE15E10505CD956D9E66A19DAE552A1
:100FC0000101D46BD769D56B120EE66EE66AE66A4C
:100FD000E66A06EC16F0E552E552E552E5520101EB
:100FE000D66F10D900096AE18FD8010866E1880E32
:100FF000E66E130EE66EE66AE66ABCEC1FF0E5529A
:10100000E552E552E552300E106E420E116E126A34
:1010100010C0E6FF11C0E6FF12C0E6FFD9CFE6FF21
:10102000DACFE6FFEAEC18F0136E050EE15E13501E
:10103000D9CFE6FFDACFE6FF03EC19F0E552E5522F
:10104000F350E66ED9CFE6FFDACFE6FF1BD9E552C3
:10105000E552E552880EE66E130EE66EE66AE66A23
:10106000BCEC1FF0E552E552E552E552250E106E3C
:10107000420E116E126A10C0E6FF11C0E6FF12C0E8
:10108000E6FFD9CFE6FFDACFE6FFEAEC18F0136E01
:10109000050EE15E1350D9CFE6FFDACFE6FF03EC91
:1010A00019F0E552E552F350E66ED9CFE6FFDACFFC
:1010B000E6FFE8D8E552E552E55203D00101010E02
:1010C000D46F0101D40507E1020EE66EE66ADAECA0
:1010D0001EF0E552E552880EE66E130EE66EE66AE5
:1010E000E66A06EC16F0E552E552E552E5520201D9
:1010F000F76F200EE15C03E200D0E16AE552E16E99
:10110000E552E7CFD9FF120083AC02D0010E2FD0F9
:101110008C8AD00EE66E070EE66EE66AE66ABCECD6
:101120001FF0E552E552E552E55283BC19D08C9A86
:10113000640EE66EE66AE66AE66ABCEC1FF0E5520B
:10114000E552E552E5528C8AD00EE66E070EE66E49
:10115000E66AE66ABCEC1FF0E552E552E552E5525C
:1011600083BC02D0000E03D08C9A010E00D0120076
:10117000D9CFE6FFE1CFD9FFE652100EE66E270E7B
:10118000E66EE66AE66A06EC16F0E552E552E552CE
:10119000E552DF6E83AC27D08C8AEE0EE66E020E2F
:1011A000E66EE66AE66ABCEC1FF0E552E552E552EF
:1011B000E5528C9A100EE66E270EE66EE66AE66A37
:1011C000DFCFE6FF28EC17F0106E050EE15E105041
:1011D000DFCFE6FFDFEC16F0E552000903E18350B4
:1011E000400BF6E140D8D9CFE6FFDACFE6FF78EC46
:1011F00016F0E552E552010E00D0E552E552E7CF78
:10120000D9FF12008350400B01E0010E00D0120004
:10121000AFDF000902E078DF02D0000E00D012003C
:10122000D9CFE6FFE1CFD9FF100EF36EFE0EDBCF74
:10123000F4FFF350F45C04E30101D769000E0FD012
:1012400012D8FE0EDBCFD7F18988FF0E0101D75DE2
:1012500004E01F0ED715896E8998010E00D0E55263
:10126000E7CFD9FF120089880101D769896A120086
:10127000959A958C8C9A929092929294929692983A
:1012800089881200D9CFE6FFE1CFD9FF83BC02D015
:10129000000E18D0FC0EDB5013E0FD0EDBCFE9FF93
:1012A000FE0EDBCFEAFFEF50E66EFCEC17F0E552E6
:1012B000FD0EDB2AFE0E01E3DB2AFC0EDB06EAD77D
:1012C000010E00D0E552E7CFD9FF1200D9CFE6FFDB
:1012D000E1CFD9FF120EE66EE66AE66AE66AD6C18B
:1012E000E6FF28EC17F0106E050EE15E10500101CC
:1012F000D551106E116AB30E105C000E115801E347
:10130000D56BD551EA6A000FE96E010EEA22FE0E96
:10131000DBCFEFFFD52B00D0E552E7CFD9FF12008E
:10132000D9CFE6FFE1CFD9FF020EE126DE6ADD6A02
:101330000101D5514AE0D551106E116AB40E105C0E
:10134000000E115807E2D6C1E6FFDFEC16F0E552B9
:1013500001083BE10101D4512BE1200E106E420E39
:10136000116E126A10C0E6FF11C0E6FF12C0E6FF60
:10137000000EE66E010EE66E3CEC19F0136E050EE3
:10138000E15E1350F3CFDEFFF4CFDDFFD9CFE9FFED
:10139000DACFEAFFEE50ED100AE00101010ED46F42
:1013A000020EE66EE66ADAEC1EF0E552E5520BD06C
:1013B000D5C1E6FF000EE66E010EE66E4DEC03F0C1
:1013C000E552E552E5520101D56B020EE15C03E204
:1013D00000D0E16AE552E16EE552E7CFD9FF120095
:1013E0000101D40502E0000E01D0010E00D0120070
:1013F000D9CFE6FFE1CFD9FF010E00D0E552E7CF0C
:10140000D9FF12000101D75100D01200D9CFE6FF59
:10141000E1CFD9FF100EE1260201F851040803E2E2
:10142000F86B030E11D1F951050A01E1EFD0010A61
:1014300001E1ABD0070A68E0010A5AE0030A19E0AB
:10144000010A02E0020E00D1FF0EFA5D0EE1D00E9D
:10145000E66E070EE66EE66AE66A06EC16F0E55200
:10146000E552E552E5520201FA6F8C8A010EF96FDE
:10147000EBD0FAC2E6FFDFEC16F0E552010838E1E6
:101480008C9A0201F82B83BC20D00A0EE66EE66A25
:10149000E66AE66ABCEC1FF0E552E552E552E55219
:1014A0008C8A0201020EF96FD00EE66E070EE66E10
:1014B000E66AE66A06EC16F0E552E552E552E552B8
:1014C0000201FA6F010EC0D013D0F86B030EF96F52
:1014D000880EE66E130EE66EE66AE66AFAC2E6FF6C
:1014E00028EC17F0106E050EE15E1050010EACD026
:1014F000FAC2E6FFDFEC16F0E552010803E1020153
:10150000010EF96F010EA0D0FAC2E6FFDFEC16F073
:10151000E552010838E1300E106E420E116E126A6B
:1015200010C0E6FF11C0E6FF12C0E6FFD9CFE6FF0C
:10153000DACFE6FFEAEC18F0136E050EE15E135009
:10154000D9CFE6FFDACFE6FF03EC19F0E552E5521A
:10155000F350E66ED9CFE6FFDACFE6FF93DEE55231
:10156000E552E5520201040EF96F880EE66E130E85
:10157000E66EE66AE66AFAC2E6FF28EC17F0106E3D
:10158000050EE15E1050010E5FD0FAC2E6FFDFECFF
:1015900016F0E552010838E1250E106E420E116E6C
:1015A000126A10C0E6FF11C0E6FF12C0E6FFD9CFF5
:1015B000E6FFDACFE6FFEAEC18F0136E050EE15E07
:1015C0001350D9CFE6FFDACFE6FF03EC19F0E5526E
:1015D000E552F350E66ED9CFE6FFDACFE6FF52DEF2
:1015E000E552E552E5520201050EF96F100EE66E66
:1015F000270EE66EE66AE66AFAC2E6FF28EC17F006
:10160000106E050EE15E1050010E1ED0FAC2E6FF0C
:10161000DFEC16F0E552010803E0E2DE010812E11A
:10162000FA0EE66E020EE66E78EC16F0E552E55222
:101630000201F96BD5DE010803E1000E05D002D0EE
:10164000040E02D0010E00D0106E100EE15C02E21A
:10165000E16AE552E16E1050E552E7CFD9FF120082
:101660000201FB51020A44E0030A27E0010A04E0F8
:10167000FF0EFC5D5DE053D0FF0EFC5D08E0FC0E4C
:10168000E66E020EE66E78EC16F0E552E552FF0EBD
:101690000201FC5D0EE1EE0EE66E020EE66EE66AFB
:1016A000E66A06EC16F0E552E552E552E552020113
:1016B000FC6F010EFB6F8C8A3FD0FCC2E6FFDFECB3
:1016C00016F0E552010812E1100EE66E270EE66EE6
:1016D000E66AE66AFCC2E6FF28EC17F0106E050E1B
:1016E000E15E10508C9A0201020EFB6F010E24D0B5
:1016F000FCC2E6FFDFEC16F0E55201080EE183AC18
:101700000CD00201FB6BFC0EE66E020EE66E78EC6E
:1017100016F0E552E552000E0FD0010E0DD0FB6B16
:10172000FC0EE66E020EE66E78EC16F0E552E5521F
:10173000020E02D0010E00D012000201FD51020A79
:101740005CE0030A20E0010A01E094D0F7C2E6FF62
:10175000DFEC16F0E552010815E142DE000904E174
:101760000201010EFD6F86D0F40EE66E010EE66EEC
:10177000E66AE66AF7C2E6FF28EC17F0106E050E7F
:10178000E15E105077D02CDE000926E13BDD010838
:1017900022E166DF020A0EE0010A0CE0070A0AE015
:1017A000050A07E0010A01E016D00201020EFD6FF2
:1017B00061D060D00201FD6BF40EE66E010EE66EA4
:1017C000E66AE66AF7C2E6FF28EC17F0106E050E2F
:1017D000E15E10504FD011D00201FD6BF40EE66EA9
:1017E000010EE66EE66AE66AF7C2E6FF28EC17F03D
:1017F000106E050EE15E10503DD0F2DD000929E1CA
:1018000005DE020A15E0010A13E0070A11E0050AE5
:101810000EE0010A01E02ED00201FD6BF70EE66E2C
:10182000020EE66E78EC16F0E552E55223D022D097
:101830000201FD6BF40EE66E010EE66EE66AE66AE4
:10184000F7C2E6FF28EC17F0106E050EE15E1050AF
:1018500011D00201FD6BF40EE66E010EE66EE66A33
:10186000E66AF7C2E6FF28EC17F0106E050EE15E9F
:06187000105000D0120030
:0A18760025EC21F000D01200D9CFBC
:10188000E6FFE1CFD9FF030EE12667D9000902E1A7
:10189000FF0E5AD035EC21F0D20EE66E64EC20F04B
:1018A000E552D950F90FE96EFF0EDA20EA6EEECF5D
:1018B000E6FFEECFE6FFEECFE6FFEFCFE6FF7BD908
:1018C000E552E552E552E552020EDB6A040EF36E74
:1018D000020EDBCFF4FFF350F45C07E2E66864EC41
:1018E00020F0E552020EDB2AF1D7DE6ADD6ADECF98
:1018F00010F0DDCF11F0F70EDBCF12F0F80EDBCFDA
:1019000013F01250105C135011581AE217EC20F02B
:10191000E76E020EE7CFDBFFFD0EDBCF10F0FE0E11
:10192000DBCF11F0DE501024E96EDD501120EA6E9D
:10193000020EDBCFEFFFDF2A010E01E3DB2AD7D750
:101940002EEC21F0DF5000D0106E030EE15C02E2BD
:10195000E16AE552E16E1050E552E7CFD9FF12007F
:10196000D9CFE6FFE1CFD9FF050EE126D950FD0F13
:10197000E96EFF0EDA20EA6EEE50ED1009E0D95064
:10198000F70FE96EFF0EDA20EA6EEE50ED1002E17D
:10199000000ED7D0F90EDBCF06F0FA0EDBCF07F042
:1019A000FB0EDBCF08F0FC0EDBCF09F0080E0B6E50
:1019B000010E0C6E0D6A0E6A40EC20F0020E02C0A1
:1019C000DBFF030E03C0DBFFF90EDBCF06F0FA0EE0
:1019D000DBCF07F0FB0EDBCF08F0FC0EDBCF09F00E
:1019E000080E0B6E010E0C6E0D6A0E6A40EC20F0B4
:1019F00006C0DEFF07C0DDFFF70EDBCF14F0F80EE8
:101A0000DBCF15F0020EDB501424106E030EDB50FA
:101A10001520116E126A136A1334000E131809E6AA
:101A2000D880080E1054010E1154000E1254000EEE
:101A300013546CE2080E146E010E156E166A176AC6
:101A4000020EDBCF18F0030EDBCF19F01A6A1B6A07
:101A50001850145C106E19501558116E1A50165803
:101A6000126E1B501758136E040E10C0DBFFFD0ED4
:101A7000DBCFE6FFFE0EDBCFE6FF040EDBCFE6FF9B
:101A8000020EDBCFE6FF030EDBCFE6FFDECFE6FF85
:101A9000DDCFE6FF77D9106E070EE15E1050040E21
:101AA000DB50106E116AD950F70FE96EFF0EDA2085
:101AB000EA6E1050EE5E1150ED5A040EDB50E76EE8
:101AC000FD0EDBCF10F0FE0EDBCF11F0E75010263D
:101AD000000E112210C0E6FF11C0E6FFF70EDBCFAB
:101AE000E6FF000EE66EE66ADECF12F0DDCF13F001
:101AF000010E1226000E132212C0E6FF13C0E6FFED
:101B000041D9146E070EE15E145018D0FD0EDBCFE4
:101B1000E6FFFE0EDBCFE6FFF70EDBCFE6FF020EA1
:101B2000DBCFE6FF030EDBCFE6FFDECFE6FFDDCF48
:101B3000E6FF28D9106E070EE15E1050F70EDB505D
:101B400000D0106E050EE15C02E2E16AE552E16E42
:101B50001050E552E7CFD9FF1200D9CFE6FFE1CF11
:101B6000D9FF020EE12635EC21F0D70EE66E64ECCB
:101B700020F0E552010EDB6A17EC20F0DF6E010E5B
:101B8000DB2ADB50100804E12EEC21F0000E07D018
:101B9000800EDF5CF1E32EEC21F0010E00D0106E20
:101BA000020EE15C02E2E16AE552E16E1050E5529C
:101BB000E7CFD9FF1200D9CFE6FFE1CFD9FF060E5C
:101BC000E126FB0EDBCF06F0FC0EDBCF07F0FD0EAF
:101BD000DBCF08F0FE0EDBCF09F0080E0B6E010E16
:101BE0000C6E0D6A0E6A40EC20F0040E02C0DBFFA2
:101BF000050E03C0DBFFFB0EDBCF06F0FC0EDBCFD8
:101C000007F0FD0EDBCF08F0FE0EDBCF09F0080E6B
:101C10000B6E010E0C6E0D6A0E6A40EC20F006C0D1
:101C2000DEFF07C0DEFF08C0DEFF09C0DDFFDD52BA
:101C3000DD52040EDBCF10F0050EDBCF11F0126A7F
:101C4000136AD9CFE9FFDACFEAFFEECF14F0EECF77
:101C500015F0EECF16F0EFCF17F0090E1F0B07E0CF
:101C6000D8901436153616361736E806F9E11450B2
:101C7000102615501122165012221750132210C090
:101C8000DFFF010E11C0DBFF020E12C0DBFF030EEF
:101C900013C0DBFFD9CFE9FFDACFEAFFEECFE6FFD3
:101CA000EECFE6FFEECFE6FFEFCFE6FF0ED8E55230
:101CB000E552E552E552060EE15C02E2E16AE552C8
:101CC000E16EE552E7CFD9FF1200D9CFE6FFE1CFB1
:101CD000D9FF040EE126030EDB6AF36EDBCFF4FFBF
:101CE000F350F45C24E2D9CF10F0DACF11F0030EF8
:101CF000DB500F011024E96E000E1120EA6EFB0E7E
:101D0000DBCFEFFFD950FB0FE96EFF0EDA20EA6E52
:101D1000080EE76ED890030EEB32020EEB32010E86
:101D2000EB32EF32E706F6E1030EDB2AD6D7030EDD
:101D3000DB6AF36EDBCFF4FFF350F45C19E2D9CF2A
:101D400010F0DACF11F0030EDBCFE6FF020EE55202
:101D5000D880E7540F011024E96E000E1120EA6EBE
:101D6000EF50E66E64EC20F0E552030EDB2AE1D77B
:101D7000040EE15C02E2E16AE552E16EE552E7CF72
:101D8000D9FF1200D9CFE6FFE1CFD9FFFA0EDB5021
:101D900009E0D950F80FE96EFF0EDA20EA6EEE5036
:101DA000ED1001E163D0FA0EDB50E76EFB0EDBCFE6
:101DB00010F0FC0EDBCF11F0E7501026000E1122C0
:101DC000126A136A1334000E131809E6D880080E3D
:101DD0001054010E1154000E1254000E13541DE243
:101DE000080E146E010E156E166A176AFB0EDBCF15
:101DF00018F0FC0EDBCF19F01A6A1B6A1850145C3D
:101E0000106E19501558116E1A501658126E1B503C
:101E10001758136EFA0E10C0DBFF9FDE35EC21F071
:101E2000FD0EDBCFE6FFFE0EDBCFE6FFA0D8E552CE
:101E3000E55293DEF80EDBCFE6FFF90EDBCFE6FFCF
:101E4000FA0EDBCFE6FFFB0EDBCFE6FF13D8E55241
:101E5000E552E552E552FD0EDBCFE6FFFE0EDBCF8D
:101E6000E6FF46D8E552E5522EEC21F0E552E7CFE9
:101E7000D9FF1200D9CFE6FFE1CFD9FFE65235EC0A
:101E800021F0840EE66E64EC20F0E552FE0EDBCF0E
:101E900010F0116A126A136A10C0E6FF11C0E6FF63
:101EA00012C0E6FF13C0E6FF10DFE552E552E5522F
:101EB000E552DF6AFD0EDB50DF5C13E2DF50E76EB8
:101EC000FB0EDBCFE9FFFC0EDBCFEAFFE750E92694
:101ED000000EEA22EF50E66E64EC20F0E552DF2AB5
:101EE000E9D72EEC21F0E552E552E7CFD9FF1200F9
:101EF000D9CFE6FFE1CFD9FF040EE12635EC21F082
:101F0000830EE66E64EC20F0E552FD0EDBCF10F0A0
:101F1000FE0EDBCF11F010C011F0106AD890113610
:101F2000000E10C0DFFF010E11C0DBFF020EDB6AE6
:101F3000030EDB6AD9CFE9FFDACFEAFFEECFE6FF87
:101F4000EECFE6FFEECFE6FFEFCFE6FFBEDEE552D7
:101F5000E552E552E5522EEC21F0040EE15C02E27E
:101F6000E16AE552E16EE552E7CFD9FF1200D9CF21
:101F7000E6FFE1CFD9FF040EE12635EC21F0530E48
:101F8000E66E64EC20F0E552FD0EDBCF10F0FE0EA5
:101F9000DBCF11F010C011F0106AD8901136000E8E
:101FA00010C0DFFF010E11C0DBFF020EDB6A030E63
:101FB000DB6AD9CFE9FFDACFEAFFEECFE6FFEECF5B
:101FC000E6FFEECFE6FFEFCFE6FF7FDEE552E5521C
:101FD000E552E5522EEC21F0040EE15C02E2E16AEA
:0C1FE000E552E16EE552E7CFD9FF120098
:041FEC000301FC05EC
:101FF00001E162D00FEC1BF00301010EFC6F040E37
:10200000E66EE66A000EE66EE66AE30EE66E000E27
:10201000E66E39EC1AF0106E060EE15E1050040EFA
:10202000E66EE66AE66EE66AE70EE66E000EE66EBD
:1020300039EC1AF0106E060EE15E1050E66A0DD90A
:10204000E552020EE66EE66A090EE66EE66AEC0EF0
:10205000E66E000EE66E39EC1AF0106E060EE15ECA
:102060001050010EE66EE66A080EE66EE66AEB0EAA
:10207000E66E000EE66E39EC1AF0106E060EE15EAA
:1020800010500001EB51000811E2EB6B010EE66EFF
:10209000E66A080EE66EE66AEB0EE66E000EE66E87
:1020A0008AEC1AF0106E060EE15E10500001EB5142
:1020B000030801E2EB6B00D01200D9CFE6FFE1CFBD
:1020C000D9FF0301FC5101E191DFFE0EDBCFEBF004
:1020D00000D0E552E7CFD9FF1200D9CFE6FFE1CF1C
:1020E000D9FF0301FC5101E181DFFE0EDB50020844
:1020F00001E222D0FE0EDBCF60F0FB0EDBCFE6FF6D
:10210000E66AFC0EDBCFE6FFFD0EDBCFE6FF640EDA
:10211000E66E000EE66E82EC18F0106E060EE15EC2
:102120001050FB0EDBCF63F0600EE66E000EE66E25
:1021300007D8E552E55200D0E552E7CFD9FF1200AB
:10214000D9CFE6FFE1CFD9FF0001ECC010F0EDC020
:1021500011F0EC2B000EED23FD0EDBCFE9FFFE0EA0
:10216000DBCFEAFFEE5210C0EEFF11C0EDFF020E12
:10217000E66EE66A090EE66EE66AEC0EE66E000EA4
:10218000E66E8AEC1AF0106E060EE15E1050FD0E3F
:10219000DBCFE9FFFE0EDBCFEAFF030EE926000EE0
:1021A000EA22EFCF10F0040E1024E66EE7C011F023
:1021B000E8C012F0E9C013F0EAC014F0830E0B6E11
:1021C0000C6A0D6A0E6A11C006F012C007F013C047
:1021D00008F014C009F020EC1FF002C011F003C099
:1021E00012F004C013F005C014F02B0E1126000EDF
:1021F00012221322142211C0E6FF12C0E6FF13C000
:10220000E6FF14C0E6FFFD0EDBCFE6FFFE0EDBCFE0
:10221000E6FF4BEC1BF0156E070EE15E155005D87E
:1022200000D0E552E7CFD9FF12000001E72B000EE6
:10223000E823E923EA23020EE66E0FD8E55200D028
:1022400012000001E32B000EE423E523E623010E38
:10225000E66E03D8E55200D01200D9CFE6FFE1CFF9
:10226000D9FFE652DF6AD880000E0001E355020E66
:10227000E455000EE555000EE65506E2E36BE46B0F
:10228000E56BE66B000EDF80D880000EE755020E8E
:10229000E855000EE955000EEA5505E2E76BE86BDC
:1022A000E96BEA6BDF82010EDF1403E1FE0EDB0453
:1022B00010E1040EE66EE66A000EE66EE66AE30ED4
:1022C000E66E000EE66E8AEC1AF0106E060EE15E07
:1022D0001050020EDF1404E1FE0EDB5002080FE185
:1022E000040EE66EE66AE66EE66AE70EE66E000E3D
:1022F000E66E8AEC1AF0106E060EE15E105000D009
:10230000E552E552E7CFD9FF1200D9CFE6FFE1CF82
:10231000D9FFE30EE96E000EEA6EEE500001E719F8
:1023200009E1EE50E81906E1EE50E91903E1EE503B
:10233000EA1900E14EE0830EE66EE3C010F0E4C05F
:1023400011F0E5C012F0E6C013F00B6E0C6A0D6AD6
:102350000E6A10C006F011C007F012C008F013C0DA
:1023600009F020EC1FF002C010F003C011F004C00F
:1023700012F005C013F02B0E1026000E11221222AF
:10238000132210C0E6FF11C0E6FF12C0E6FF13C023
:10239000E6FF600EE66E000EE66E19EC1BF0146EA2
:1023A000070EE15E1450D950FD0FE96EFF0EDA20E2
:1023B000EA6EEE50ED1009E0D950FD0FE96EDACF6C
:1023C000EAFF600EEE6E000EED6E3BDF010E07D0F1
:1023D00004D0FD0EDB6AFE0EDB6A000E00D0E55273
:0E23E000E7CFD9FF12000001EB5100D0120030
:0223EE000000ED
:1023F000000003836BF2F7703BE1F4F350131F9777
:102400009AC71C14F135E8E7A126EB64CAD4CF586B
:10241000D98ACCDBB2783828E26B3BAB8999D0CF34
:10242000434DD34C28BF27BF78AC243C135E6FC705
:102430005E106C4435E298B765F19B340E03705022
:10244000C4D773D3AF258720FF3684A394C4A09F3D
:10245000879AA31CEC6857EFBC7B546CD789BF08E4
:102460001D5DBC8B76AF487826BC4BFB4D4EDE8E97
:10247000BD20DD0DD6D229FE86C12A7DED33C119DE
:1024800027E7C29A4C1536691C0635EA77F411D64F
:1024900064AA12550F58E6A65F4BE52534B90E41E4
:1024A000FE6D0DC2959FF931C58CFAB2AE7EB14971
:1024B000E330B2CA88C24639D8D145BAB323AEDEBA
:1024C00079F7AD5D120559AE42165A2D29E47E11F9
:1024D0003ABA7D9251488961015B8AE26AA96186B4
:1024E000A07D6205CB8F96F69B9C9575F06EBC1D0A
:1024F0007B41BF9E10B34B6D40A048EE2B52A38A88
:10250000E186A0098A7454FADA675779B195734560
:10251000A2CB70C6C9398435992A87B6F2D86CD255
:10252000380C6F5153FE9BA203ED9821681FD3DA3C
:102530002551D0594EA324AA1EB027297542CC4D4F
:10254000BF96CFCED4643B3D847738BEEF851C82E6
:10255000FCDB1F019729EBF2C73AE871ACC8031501
:10256000661C00960DEEF4655DFDF7E6360F62938E
:10257000C6616110AD9395E3FD80966096727D040F
:102580005CA67E8737548A74674789F70CB5ADCB54
:102590001FEBAE4874195ABB240A59384FF8B25C85
:1025A000852CB1DFEEDE452CBECD46AFD53F0D54B8
:1025B00098710ED7F383FA24A390F9A7C86212C3C7
:1025C00002B611406944E5B33957E63052A5C20C52
:1025D00041FBC18F2A09357C7A1A36FF11E8DD9B51
:1025E000DB3CDE18B0CE2AEBE0DD29688B2F783B90
:1025F000F6827BB89D708F4BCD638CC8A69167AC7B
:102600006C45642F07B790DC57A4935F3C56B763C3
:102610002F08B4E044FA401314E943907F1BA8F458
:10262000B5CFAB77DE3D5F848E2E5C07E5DC17FC13
:10263000A892147FC360E08C9373E30FF881086B5A
:1026400032550BE859A7FF1B09B4FC986246D8A481
:102650007118DB271AEA2FD44AF92C57210BC733FC
:10266000EBDFC4B0802D3043D03E33C0BBCCA6B529
:102670004BA2A536205051C5704352461BB1B9221A
:10268000D165BAA1BA974E52EA844DD1817669EDEF
:1026900092286A6EF9DA9E9DA9C99D1EC23B767A80
:1026A00008EF75F9631D810A330E828958FCC972DF
:1026B00015B2CAF17E403E022E533D8145A1D6E5BA
:1026C0008F75D566E4872195B4942216DF66062AB5
:1026D000CC3805A9A7CAF15AF7D9F2D99C2B19BD54
:1026E00056FF1A3E3D0DEECD6D1EED4E06ECC42696
:1026F0008DC3C7A5E6313356B62230D5DDD0DBB168
:102700001704D8327CF62CC12CE52F4247170B7EDC
:10271000544908FD3FBBFC0E6FA8FF8D045A14E915
:10272000CE8E176AA57CE399F56FE01A9E9DABE10A
:10273000D3D3A862B8215C91E8325F1283C0B4762B
:102740004914B7F522E6430672F54085190764B9C6
:102750000A59673A61AB93C931B8904A5A4A7B2EFD
:10276000909E78ADFB6C8C5EAB7F8FDDC08D1AA820
:1027700030E3192B5B11EDD80B02EE5B60F0053FE7
:10278000AA2406BCC1D6F24F91C5F1CCFA37D5F0D8
:10279000E969D673829B2280D2882103B97ACA67FD
:1027A00073AEC9E4185C3D17484F3E9423BD756F66
:1027B0006EF376EC0501821F5512819C3EE06AF8AB
:1027C000F434697B9FC69D88CFD59E0BA427BA376A
:1027D000B779B9B4DC8B4D478C984EC4E76AA5A095
:0E27E0002DBEA623464C52D0165F51537DAD40
:0227EE00D9CF41
:1027F000E6FFE1CFD9FF030EE1260301F65103E125
:10280000010EF66F01D041D0DF6AD950010FE96E99
:10281000DACFEAFFF30EEE6E030EED6EDF50106EB0
:10282000116A010E105C000E11582EE2DF50EA6AA8
:10283000F70FE96E030EEA22EF50E66E010EDBCFD2
:10284000E9FF020EDBCFEAFFE552E750EF6E010E23
:10285000DBCFE9FF020EDBCFEAFFEE52EF6A010E9B
:10286000DBCFE9FF020EDBCFEAFFE926000EEA220A
:10287000EF6ADF2AD950010FE96EDACFEAFF030EC3
:10288000EE26000EEF22CAD700D0030EE15C02E272
:10289000E16AE552E16EE552E7CFD9FF1200D9CFE8
:1028A000E6FFE1CFD9FF030EE126020EDB6AF30E4D
:1028B000DE6E030EDD6E020EDB50106E116A010E2D
:1028C000105C000E115839E2DECFE9FFDDCFEAFFE0
:1028D000EF50F36EFE0EDB50F35C24E1DECFE9FF38
:1028E000DDCFEAFFEF50400B09E0DECFE9FFDDCF9F
:1028F000EAFFEE52FD0EDBCFEFFF07D0DECFE9FFA0
:10290000DDCFEAFFEE52020EEF6EDECFE9FFDDCF44
:10291000EAFF020EE926000EEA22FD0EDBCFEFFFF2
:10292000010E0DD0020EDB2AD9CFE9FFDACFEAFF84
:10293000030EEE26000EEF22BED7000E00D0106E62
:10294000030EE15C02E2E16AE552E16E1050E552ED
:10295000E7CFD9FF1200D9CFE6FFE1CFD9FF030EB1
:10296000E126020EDB6AF30EDE6E030EDD6E020E52
:10297000DB50106E116A010E105C000E115828E237
:10298000DECFE9FFDDCFEAFFEFCF10F0FE0EDB5028
:10299000105C13E1DECFE9FFDDCFEAFFEE52EF502E
:1029A000E66EFC0EDBCFE9FFFD0EDBCFEAFFE55262
:1029B000E750EF6EFE0EDB500DD0020EDB2AD9CFB2
:1029C000E9FFDACFEAFF030EEE26000EEF22CFD7A3
:1029D000000E00D0106E030EE15C02E2E16AE552E7
:1029E000E16E1050E552E7CFD9FF1200D9CFE6FFD4
:1029F000E1CFD9FF030EE1260301F65101E1F7DE35
:102A0000FF0E0301F85D0DE1640EE66EE66AE66A0C
:102A1000E66A06EC16F0E552E552E552E55203018E
:102A2000F86FF8C3E6FFDFEC16F0E552010840E16D
:102A3000640EE66EE66AE66AE66AF8C3E6FF28EC2C
:102A400017F0106E050EE15E1050020EDB6AF30EF9
:102A5000DE6E030EDD6E020EDB50106E116A010E8B
:102A6000105C000E115824E2DECFE9FFDDCFEAFF53
:102A7000020EE926000EEA22EFCF10F0DECFE9FFCA
:102A8000DDCFEAFFEE52EF50105C07E0DECFE6FF4D
:102A9000DDCFE6FF18D8E552E552020EDB2AD9CF8A
:102AA000E9FFDACFEAFF030EEE26000EEF22D3D7BE
:102AB000030EE15C03E200D0E16AE552E16EE5520B
:102AC000E7CFD9FF1200D9CFE6FFE1CFD9FF020E41
:102AD000E126DE52010EDD6EFD0EDBCFE9FFFE0EBC
:102AE000DBCFEAFFEF500F0BDF6EDF50010A01E092
:102AF00049D0FD0EDBCFE9FFFE0EDBCFEAFFEE5241
:102B0000EF5002083EE1FD0EDBCFE9FFFE0EDBCF0A
:102B1000EAFF020EE926000EEA22EF0407E106ECC6
:102B20000AF0E76E010EE7CFDBFF12D0FD0EDBCF20
:102B3000E9FFFE0EDBCFEAFF020EE926000EEA22D5
:102B4000EF5006E130EC0BF0E76E010EE7CFDBFF54
:102B5000010EDB5016E1FD0EDBCFE9FFFE0EDBCFF1
:102B6000EAFF020EE926000EEA22EF50E66EFD0EA5
:102B7000DBCFE9FFFE0EDBCFEAFFEE52E552E75076
:102B8000EF6E00D0020EE15C02E2E16AE552E16E16
:082B9000E552E7CFD9FF120066
:082B98000301FA0501E124D05C
:102BA000A00EE66EE66AE668000EE66E040EE66EBD
:102BB000D0EC18F0106E050EE15E10500401A06B11
:102BC000A16BA26BA36B790ECA6E480ECB6E3F0E43
:102BD000F2169D829F829E92D08EC00EF212CA84FF
:102BE0000301010EFA6F00D01200A0C406F0A1C4C8
:102BF00007F0A2C408F0A3C409F000D01200040139
:102C0000A02B000EA123A223A3231200D9CFE6FFFD
:102C1000E1CFD9FFE6520301FA5101E1BDDF010E18
:102C2000DF6EDF50106E116A200E105C000E11581E
:102C300043E2DF50050DF3CFE9FFF4CFEAFF000ECA
:102C4000E926040EEA22EF50FF0834E1DF50050DBB
:102C5000F3CFE9FFF4CFEAFF000EE926040EEA22E3
:102C6000DFCFEFFFD950FB0FE96EFF0EDA20EA6EDF
:102C7000EE500401A025106EEE50A121116EEE5011
:102C8000A221126EEE50A321136EDF50050DF3CF7B
:102C9000E9FFF4CFEAFF000EE926040EEA22EE5225
:102CA00010C0EEFF11C0EEFF12C0EEFF13C0EEFF2A
:102CB000DF5019D0DF2AB5D7DFCF00F4D950FB0F92
:102CC000E96EFF0EDA20EA6EEE500401A025016FD6
:102CD000EE50A121026FEE50A221036FEE50A3210E
:102CE000046F000E00D0E552E552E7CFD9FF120085
:102CF000D9CFE6FFE1CFD9FF0301FA5101E14CDF63
:102D0000FD0EDBCFE9FFFE0EDBCFEAFFEF50106ECA
:102D1000116A200ED8801054000E115409E3FD0EE4
:102D2000DBCFE9FFFE0EDBCFEAFFEF50FF0801E14A
:102D300042D0FD0EDBCFE9FFFE0EDBCFEAFFEF5006
:102D4000050DF3CFE9FFF4CFEAFF000EE926040EEC
:102D5000EA22EFCF10F0FD0EDBCFE9FFFE0EDBCF56
:102D6000EAFFEF50105C01E026D0050EE66EE66A41
:102D7000E668FD0EDBCFE9FFFE0EDBCFEAFFEF508A
:102D8000050DF3CF10F0F4CF11F0000E1026040E55
:102D9000112210C0E6FF11C0E6FFD0EC18F0126E51
:102DA000050EE15E1250FD0EDBCFE9FFFE0EDBCF1C
:102DB000EAFFEF6800D0E552E7CFD9FF1200D9CF84
:102DC000E6FFE1CFD9FF0301FA5101E1E5DEFE0E96
:102DD000DB50106E116A200ED8801054000E115472
:102DE00004E3FE0EDB50FF0802E1000E2DD0FE0EC4
:102DF000DB50050DF3CFE9FFF4CFEAFF000EE92623
:102E0000040EEA22EFCF10F0FE0EDB50105C02E061
:102E1000000E1AD0FE0EDB50050DF3CFE9FFF4CF04
:102E2000EAFF000EE926040EEA22EE520401A05148
:102E3000EE5CA151EE58A251EE58A351EE5802E2B9
:102E4000010E02D0000E00D0E552E7CFD9FF1200EC
:102E5000D9CFE6FFE1CFD9FFFE0EDB50106E116A2D
:102E6000200ED8801054000E115404E3FE0EDB50E7
:102E7000FF0802E1000E40D00301FA5101E18CDEAF
:102E8000FE0EDB50050DF3CFE9FFF4CFEAFF000E95
:102E9000E926040EEA22EFCF10F0FE0EDB50105CA4
:102EA00002E0000E29D0D950FA0FE96EFF0EDA20A9
:102EB000EA6EEE500401A025106EEE50A121116EB5
:102EC000EE50A221126EEE50A321136EFE0EDB50C7
:102ED000050DF3CFE9FFF4CFEAFF000EE926040E5B
:102EE000EA22EE5210C0EEFF11C0EEFF12C0EEFF5C
:102EF00013C0EEFF010E00D0E552E7CFD9FF12005C
:102F0000D9CFE6FFE1CFD9FF030EE1263F0EF2163F
:102F1000CF0E9E169D169F16790EAB16FD0EDB503A
:102F2000106E116A090ED8801054000E115405E27B
:102F3000040EF36EFD0EF3CFDBFFFC0EDB50010839
:102F400002E2FC0EDB6AFB0EDB50020802E2FB0E23
:102F5000DB6AFD0EDBCFE7F3FB0EDBCFE9F3FC0E04
:102F6000DBCFE8F30301E751E96EEA6AD890E9366E
:102F7000EA36D80EE926020EEA22EECFDEFFEDCFCA
:102F8000DDFFDF50AF6E010EDB50B06EC00E94124D
:102F9000B886B892B890AC98AC8AAC849E8A9D8A68
:102FA000AB88AB8EF212D950F90FE96EFF0EDA2022
:102FB000EA6EEE50ED1006E0F90EDBCFE5F3FA0E07
:102FC000DBCFE6F3030EE15C03E200D0E16AE552F9
:102FD000E16EE552E7CFD9FF12000301E75100D0BF
:102FE00012000301E85100D012000301E95100D0A2
:102FF0001200AE5000D01200D9CFE6FFE1CFD9FFCA
:10300000ACA2FED7FE0EDB50AD6E050EE66EEBEC0D
:1030100020F0E552E552E7CFD9FF1200AB98AB9E06
:103020009E9A9D9A00D01200AB88AB8E9D8A9EAA74
:103030000AD0ABA402D0AB94FAD7ABA202D0AB9229
:10304000F6D7D7DFF4D700D01200D9CFE6FFE1CF13
:10305000D9FFFC0EDBCFF3FFDB06F350000810E2D4
:10306000FD0EDBCFE9FFFE0EDBCFEAFFEF50E66E91
:10307000C3DFE552FD0EDB2AFE0E01E3DB2AE9D7B2
:10308000E552E7CFD9FF1200D9CFE6FFE1CFD9FF54
:10309000FE0EDBCF10F0116A10BE1168090ED88049
:1030A0001054000E115409E2C4C206F0C5C207F064
:1030B000C6C208F0C7C209F021D0FE0EDBCFE9FF7F
:1030C000EA6AE9BEEA68D890E936EA36D890E93685
:1030D000EA36B40EE926020EEA22EECF10F0EECF69
:1030E00011F0EECF12F0EFCF13F010C006F011C0C8
:1030F00007F012C008F013C009F000D0E552E7CF86
:04310000D9FF1200E1
:0C310400D9CFE6FFDACFE6FFFA0EE3CFEA
:10311000D9FFFB0EE3CFDAFFFC0EE3CFE9FFFD0E94
:10312000E3CFEAFFE9CFF3FFEACFF4FFF80EE35075
:1031300003E1F90EE35008E0F80EE30602E2F90EAF
:10314000E306DECFEEFFF2D7FF0EE3CFDAFFE55264
:10315000FF0EE3CFD9FFE5521200FB0EE3CFF6FFDF
:10316000FC0EE3CFF7FFFD0EE3CFF8FFFE0EE3CF3B
:10317000E9FFFF0EE3CFEAFFE9CFF3FFEACFF4FF69
:10318000F90EE35003E1FA0EE35009E0F90EE3060D
:1031900002E2FA0EE3060900F5CFEEFFF1D71200C6
:1031A000FE0EE3CFE9FFFF0EE3CFEAFFE9CFF3FF27
:1031B000EACFF4FFFB0EE35003E1FC0EE35009E01D
:1031C000FB0EE30602E2FC0EE306FD0EE350EE6E9C
:1031D000F1D71200FB0EE3CFF6FFFC0EE3CFF7FFB3
:1031E000FD0EE3CFF8FFFE0EE3CFE9FFFF0EE3CFC6
:1031F000EAFFE9CFF3FFEACFF4FF0900F5CFEFFFD5
:10320000EE66FBD71200FE0EE3CFE9FFFF0EE3CF21
:10321000EAFFF36AF46AEE5203E0F34AF42AFBD7BA
:103220001200D9CFE6FFDACFE6FFFA0EE3CFD9FFDF
:10323000FB0EE3CFDAFFFC0EE3CFE9FFFD0EE3CF99
:10324000EAFFF80EE35003E1F90EE3500AE0F80E4E
:10325000E30602E2F90EE306DE50EF5C02E1EE6601
:10326000F0D7F36EFF0EE3CFDAFFE552FF0EE3CFA8
:10327000D9FFE552F3501200FE0EE3CFF3FFFF0E2D
:10328000E3CFF4FFFB0EE3CFF6FFFC0EE3CFF7FF37
:10329000FD0EE3CFF8FFF3CFE9FFF4CFEAFF09001B
:1032A000F5500CE0F550EF5C02E1EE52F8D7EF522A
:0E32B00003E0F34AF42AE6D7F36AF46A120048
:0232BE0002010B
:1032C000F60501E113D094908B90E66AE66AE66A0F
:1032D000E66A06EC16F0E552E552E552E5520001C9
:1032E000FF6F0201F46B010EF66F00D01200D9CF10
:1032F000E6FFE1CFD9FFFE0EDB50010BE8B08B807B
:10330000E8A08B90E552E7CFD9FF1200D9CFE6FFB6
:10331000E1CFD9FF040EE1260201F65101E1CFDF32
:10332000FFC0E6FFDFEC16F0E552000901E197D09F
:1033300000EC1FF0F3CFDEFFF4CFDDFFD9CFE9FFC4
:10334000DACFEAFFEE50ED100EE0960EE66EE66A7A
:10335000E66AE66AFFC0E6FF28EC17F0106E050E7D
:10336000E15E10500ED0DC0EE66E050EE66EE66AEB
:10337000E66AFFC0E6FF28EC17F0106E050EE15E6E
:1033800010500201F451010B23E1F4417F0BEA6A72
:10339000EF0FE96E020EEA22EF50E76E000EDFCF6C
:1033A00010F0010EDBCF11F0E7501016116A10502B
:1033B00011100BE0F4417F0BEA6AEA0FE96E020E8E
:1033C000EA22EFCFF5F2F42B02D0020EF42742D01E
:1033D000F4417F0BEA6AEF0FE96E020EEA22EF502A
:1033E000E76E000EDFCF10F0010EDBCF11F0E750DB
:1033F0001016116A105011102DE08B70F507F55161
:1034000029E1F42BF4417F0BEA6AEA0FE96E020E20
:10341000EA22EF50960DF3CF10F0F4CF11F0B80E72
:10342000D88010560B0E1156126A136A11AE02D0D4
:103430001268136810C0E6FF11C0E6FF12C0E6FF75
:1034400013C0E6FFFFC0E6FF28EC17F0146E050E70
:10345000E15E14500201F4510A0801E2F46B040E1B
:10346000E15C02E2E16AE552E16EE552E7CFD9FFA5
:02347000120048
:0E347200D9CFE6FFE1CFD9FFE652DF6ADFCF08
:1034800010F0F90EDBCF11F0FA0EDBCF12F0115075
:10349000105C000E125434E2D950FB0FE96EFF0E9F
:1034A000DA20EA6EEE52030EED16FB0EDB50A96E2B
:1034B000FB0EDBCF06F0FC0EDBCF07F0086A096AD3
:1034C0000B6A010E0C6E0D6A0E6A58EC1FF0065066
:1034D000AA6EA69EA69CA680FD0EDBCFE9FFFE0E7F
:1034E000DBCFEAFFA8CFEFFFDF2AFD0EDB2AFE0EBF
:1034F00001E3DB2AFB0EDB2AFC0E01E3DB2ABFD74C
:10350000A68EA68CA690010E00D0E552E552E7CF1C
:10351000D9FF1200D9CFE6FFE1CFD9FF020EE12695
:10352000DF6ADFCF10F0F90EDBCF11F0FA0EDBCF40
:1035300012F01150105C000E125460E2D950FB0FD3
:10354000E96EFF0EDA20EA6EEE52030EED16FB0E68
:10355000DB50A96EFB0EDBCF06F0FC0EDBCF07F0D5
:10356000086A096A0B6A010E0C6E0D6A0E6A58EC45
:103570001FF00650AA6EFD0EDBCFE9FFFE0EDBCF7B
:10358000EAFFEF50A86EA69EA69CA684F29E550E5A
:10359000A76EAA0EA76EA682F28EA1A8FED7A1984A
:1035A000010EE66EE66AFB0EDBCFE6FFFC0EDBCF1C
:1035B000E6FFD950010FE66E000EDA20E66E59DF05
:1035C000106E060EE15E1050FD0EDBCFE9FFFE0E21
:1035D000DBCFEAFFEF50F36E010EDB50F35C02E04D
:1035E000000E11D0DF2AFD0EDB2AFE0E01E3DB2ADE
:1035F000FB0EDB2AFC0E01E3DB2A93D7A68EA68CFA
:10360000A694010E00D0106E020EE15C02E2E16AA7
:0E361000E552E16E1050E552E7CFD9FF1200EF
:02361E000301A6
:10362000F96B3BEC0CF069D8000901E19DD800D0A2
:103630001200D9CFE6FFE1CFD9FFE6520301F951DD
:1036400001E0FCD7F92BF80EDBCFE6FFE66AD95094
:10365000F90FE96EFF0EDA20EA6EEECFE6FFEECF4D
:10366000E6FFEECFE6FFEFCFE6FFFD0EDBCFE6FF96
:10367000FE0EDBCFE6FF3FEC0CF0106E080EE15EB5
:103680001050DF6E0301F907DF5000D0E552E5521C
:10369000E7CFD9FF1200D9CFE6FFE1CFD9FFE6523D
:1036A0000301F95101E0FCD7F92BF80EDBCFE6FF5F
:1036B000E66AD950F90FE96EFF0EDA20EA6EEECF16
:1036C000E6FFEECFE6FFEECFE6FFEFCFE6FFFD0E23
:1036D000DBCFE6FFFE0EDBCFE6FFB0EC0CF0106EAA
:1036E000080EE15E1050DF6E0301F907DF5000D0D5
:1036F000E552E552E7CFD9FF1200D9CFE6FFE1CF7F
:10370000D9FF0B0EE126E66EE66AE66AE66AE66A2D
:10371000D9CFE6FFDACFE6FF8CDF106E070EE15E51
:1037200010500B0EE66EE66AB40EE66E030EE66E01
:10373000D9CFE6FFDACFE6FF11EC19F0106E060ED6
:10374000E15E1050000902E1010E01D0000E106E82
:103750000B0EE15C03E200D0E16AE552E16E10502D
:10376000E552E7CFD9FF12000B0EE66EE66AE66A75
:10377000E66AE66AB40EE66E030EE66E8CDF106E45
:10378000070EE15E1050200EE66E0B0EE66EE66A46
:10379000E66AE66ABF0EE66E030EE66E7CDF106E2A
:0A37A000070EE15E105000D0120089
:0637AA00D9CFE6FFE1CFDC
:1037B000D9FFE652010EE66EE66A0B0EE66EE66A89
:1037C000D9CFE6FFDACFE6FF39EC1AF0106E060E1D
:1037D000E15E1050DFA002D0010E02D0000E00D03A
:1037E000E552E552E7CFD9FF1200D9CFE6FFE1CF8E
:1037F000D9FF020EE66EE66A0C0EE66EE66AE30E8E
:10380000E66E030EE66E39EC1AF0106E060EE15EFF
:103810001050FC0EDBCFE6FFE3C310F0E4C311F061
:10382000126A136A2F0E1026060E1122010E1222A2
:10383000000E132210C0E6FF11C0E6FF12C0E6FF23
:1038400013C0E6FFFD0EDBCFE6FFFE0EDBCFE6FF8B
:103850004BEC1BF0146E070EE15E1450FC0EDB50B7
:10386000106E116A10500301E3271150E423020E79
:10387000E66EE66A0C0EE66EE66AE30EE66E030E90
:10388000E66E8AEC1AF0106E060EE15E1050040E21
:10389000E66EE66A0E0EE66EE66ADF0EE66E030E72
:1038A000E66E39EC1AF0106E060EE15E1050FC0E5A
:1038B000DBCFE6FFE66AFD0EDBCFE6FFFE0EDBCFD9
:1038C000E6FFDFC3E6FFE0C3E6FFE1C3E6FFE2C3D6
:1038D000E6FF99EC1CF0106E080EE15E105006C079
:1038E000DFF307C0E0F308C0E1F309C0E2F3040E20
:1038F000E66EE66A0E0EE66EE66ADF0EE66E030E12
:10390000E66E8AEC1AF0106E060EE15E1050010EA3
:1039100000D0E552E7CFD9FF1200DFC306F0E0C3C5
:1039200007F0E1C308F0E2C309F000D0120000D0B4
:02393000120083
:0E393200D9CFE6FFE1CFD9FFF70EDBCF10F0C3
:10394000DB06F80EDBCF11F001E2DB0610501110A0
:1039500062E0FB0EDBCF1CF0FC0EDBCF1DF0FD0E9A
:10396000DBCF1EF0FE0EDBCF1FF0080ED8901F320B
:103970001E321D321C32E806F9E1F90EDBCFE9FFF9
:10398000DB2AFA0EDBCFEAFF01E3DB2AEFCF18F0E8
:10399000196A1A6A1B6AD950FB0FE96EFF0EDA200A
:1039A000EA6EEE501818146EEE501918156EEE509F
:1039B0001A18166EEE501B18176E156A166A176ADB
:1039C00014C0F6FF15C0F7FFD890F636F736D8903A
:1039D000F636F736EE0EF626230EF7220900F550DE
:1039E0001C18106E0900F5501D18116E0900F550D5
:1039F0001E18126E0900F5501F18136EFB0E10C032
:103A0000DBFFFC0E11C0DBFFFD0E12C0DBFFFE0E64
:103A100013C0DBFF92D7FB0EDBCF10F0FC0EDBCF29
:103A200011F0FD0EDBCF12F0FE0EDBCF13F010C055
:103A300006F011C007F012C008F013C009F000D062
:083A4000E552E7CFD9FF1200A7
:083A4800DACFE4FFE2CFDAFF60
:103A5000E9CFE4FFEACFE4FFF6CFE4FFF7CFE4FFDE
:103A6000F5CFE4FFF3CFE4FFF4CFE4FFFACFE4FFB8
:103A7000E652D9CFE6FFE1CFD9FFE652F2A209D054
:103A8000B0EC1DF0DF6EDFCFE6FF55EC00F0E55245
:103A9000F2929EA203D0FFEC15F09E929EAA1DD03A
:103AA000ABA403D0F9EC17F018D0ABA204D0AB78DC
:103AB0000000AB7812D00301E551E6110DE0F9ECFE
:103AC00017F0DF6EDFCFE6FF05D0E6C3FAFF030194
:103AD000E551F96EFADFE552E1D7E552E552E7CF5D
:103AE000D9FFE552E5CFFAFFE5CFF4FFE5CFF3FFCD
:103AF000E5CFF5FFE5CFF7FFE5CFF6FFE5CFEAFF2E
:103B0000E5CFE9FFE5CFDAFF1100DACFE4FFE2CF3E
:0E3B1000DAFFE65200D0E552E5CFDAFF1100F1
:023B1E0007ECB2
:103B200000F00201FF0EE3CFFEF2090EFF6FD89006
:103B30000F019DEF1DF00201FE330F01D8A08B9203
:103B4000D8B08B820000A3EC20F00201FF2F9BEF86
:103B50001DF00F018B82A3EC20F01BEC21F0120072
:103B60000201080EFF6F0F0181B0B4EF1DF0ADEC44
:103B700020F00F0181B0B4EF1DF0B3EC20F00F0185
:103B800081A0D89081B0D8800201FE33FF2FBDEF15
:103B90001DF0B3EC20F0ADEC20F000000201FE516E
:103BA00012000F013F0EF2160F010F0EC16E0F0132
:103BB000F19C0F01F2880F01C00EF2120F019492D6
:0A3BC0008B820F01938081801200B8
:063BCA00D9CFE6FFE1CFB8
:103BD000D9FFE652FE0EDBCFE6FFE66AB9EC20F035
:103BE000E552E552F350DF6E300EDF5C07E3DF5045
:103BF000390804E3300EDF5C0DD00AD0410EDF5CE3
:103C000007E3DF50460804E3410EDF5C0A0F02D0F1
:103C1000000E00D0E552E552E7CFD9FF1200D9CF10
:103C2000E6FFE1CFD9FFFD0EDBCF12F0FE0EDBCFBA
:103C300013F0133404E212500008000E135407E28C
:103C4000FD0EDBCF10F0FE0EDBCF11F00AD0FD0E23
:103C5000DBCF10F0FE0EDBCF11F0106C111E000E4A
:103C6000112210C0F3FF11C0F4FF00D0E552E7CFDE
:043C7000D9FF120066
:0C3C740000D0120042EC21F0000908E131
:103C80004EEC21F0000904E1F9EC20F000092BE0F2
:103C900042EC21F0010807E1040EE66EE66ADAEC78
:103CA0001EF0E552E5524EEC21F0010807E1100E3E
:103CB000E66EE66ADAEC1EF0E552E552F9EC20F029
:103CC000010807E1080EE66EE66ADAEC1EF0E5523E
:103CD000E552010EE66E77EC19F0E55286EC19F02C
:103CE00048EC21F0FBD7F6EC0FF05FEC19F04CEC50
:103CF00000F0B8EC07F006EC1FF0D5EC00F090EC0B
:103D000009F086EC19F09DEC0BF0F6EC14F048ECA1
:063D100021F0F3D71200C0
:0A3D16001E0EF66E000EF76E000E92
:103D2000F86E00010900F550F36F0900F550F46FCB
:103D300003E1F36701D03DD00900F550EE6F0900B3
:103D4000F550EF6F0900F550F06F09000900F550CC
:103D5000E96E0900F550EA6E090009000900F55006
:103D6000F16F0900F550F26F09000900F6CFF5F088
:103D7000F7CFF6F0F8CFF7F0EEC0F6FFEFC0F7FFA1
:103D8000F0C0F8FF0001F15302E1F25307E009002F
:103D9000F550EE6EF107F8E2F207F9D7F5C0F6FF3D
:103DA000F6C0F7FFF7C0F8FF0001F307000EF45B61
:043DB000BFD7120067
:0C3DB400D9CFE6FFE1CFD9FFFD0EDBCF39
:103DC00008F0FE0EDBCF09F008500001F81309508F
:103DD000F913E552E7CFD9FF1200D9CFE6FFE1CFC3
:103DE000D9FFFD0EDB1C106EFE0EDB1C116E105099
:103DF0000001F8171150F917E552E7CFD9FF12006B
:103E0000F8C0F3FFF9C0F4FF00D01200E868000129
:103E1000FB1908E1E868FC1905E1E868FD1902E111
:103E2000E868FE190AE1FB0EE66E000EE66E8CEC09
:103E30001FF0E552E552FBC0FAF0010E00D012006F
:103E400006500B02F3CF02F0F4CF03F00C02F35054
:103E50000326000EF420046E06500D02F3500426D3
:103E6000000EF420056E06500E02F3500526075092
:103E70000B02F3500326F4500422000E05220750D3
:103E80000C02F3500426F450052207500D02F350A3
:103E9000052608500B02F3500426F4500522085062
:103EA0000C02F350052609500B02F35005261200B0
:103EB000006AE86A0EAE65EF1FF00B6C0C1E0D1E5B
:103EC0000E1E0C220D220E22001E09AE70EF1FF0F6
:103ED000066C071E081E091E072208220922001E62
:103EE00040EC20F009BE87EF1FF000AE000C066C1E
:103EF000071E081E091EE86A072208220922026C12
:103F0000031E041E051E032204220522000C00BE0F
:083F100077EF1FF00188FF0CA0
:083F1800D9CFE6FFE1CFD9FF8C
:103F20000301FB511BE1040EE66EE66AA20E106E61
:103F3000420E116E126A10C0E6FF11C0E6FF12C0F9
:103F4000E6FFEF0EE66E030EE66EADEC18F0136EB4
:103F5000070EE15E13500301010EFB6FD950FD0FF8
:103F6000E96EDACFEAFFEF0EEE6E030EED6E00D0D3
:083F7000E552E7CFD9FF120072
:083F7800D9CFE6FFE1CFD9FF2C
:103F8000E652D950FB0FE96EFF0EDA20EA6EEECF53
:103F9000E6FFEECFE6FFEECFE6FFEFCFE6FF06EC63
:103FA00016F0E552E552E552E552DF6EDFCFE6FF4F
:103FB000DFEC16F0E552000901E1F8D7D9CFE6FFB2
:103FC000DACFE6FF78EC16F0E552E55200D0E55284
:083FD000E552E7CFD9FF120012
:083FD800D9CFE6FFE1CFD9FFCC
:103FE000020EE126DF6AFC0EDB50DF5C16E2B0EC6D
:103FF0001DF0E76E010EE7CFDBFFFD0EDBCFE9FF23
:10400000FE0EDBCFEAFF010EDBCFEFFFFD0EDB2A5A
:10401000FE0E01E3DB2ADF2AE6D7020EE15C02E2B4
:0E402000E16AE552E16EE552E7CFD9FF1200EA
:02402E00D9CFE8
:10403000E6FFE1CFD9FF020EE126010EDB6ADF6A5F
:10404000080EDF5C0DE2010EDBCFF3FFF39EF346BB
:10405000F3CFDBFF828682B8DB808296DF2AF0D73F
:104060008298010EDB50106E020EE15C03E200D07C
:10407000E16AE552E16E1050E552E7CFD9FF120038
:10408000056A046A036A026A200EE76ED890063653
:1040900007360836093602360336043605360B5025
:1040A000025C0C5003580D5004580E50055809E39B
:1040B0000B50025E0C50035A0D50045A0E50055A14
:0840C000062AE72EE4D71200E6
:0840C800D9CFE6FFE1CFD9FFDB
:1040D000E652829ADF6A080EDF5C10E2FE0EDBAE6B
:1040E00002D0828A01D0829ADBCFF3FFF39EF3469F
:1040F000F3CFDBFF82868296DF2AEDD7829A00D04B
:0A410000E552E552E7CFD9FF1200A7
:06410A00D9CFE6FFE1CF72
:10411000D9FFFD0EDBCFE9FFFE0EDBCFEAFFEF504C
:10412000E66E8FEC1DF0E552FD0EDBCFE9FFDB2ADA
:10413000FE0EDBCFEAFF01E3DB2AEF50EAE1E552B6
:06414000E7CFD9FF1200D9
:0A414600160EE66E05EC21F0E552BE
:1041500000000000000000001200180EE66E3CECAB
:1041600021F0E5521200350EE66E3CEC21F0E552EE
:0241700012003B
:0E417200FF0EE124E96EFF0EE220EA6EEDCFB3
:10418000F4FFEFCFF3FFF46607D0600EF36404D0C2
:0A4190007B0EF36001D0F39A1200D9
:06419A00000EF36E00EEC2
:1041A00000F00D0E01D81200EA6002D0EE6AFCD7D2
:0A41B000F350E9601200EE6AFCD73C
:0641BA001CEE00F02CEEEB
:1041C00000F0F86A019C8BEC1EF03AEC1EF03CEC1F
:0641D0001EF0FBD71200F7
:0A41D600FF0EE350206E1B0E00D018
:1041E00001D0200EE76EE72EFED7202EFAD700D0A2
:0241F0001200BB
:0E41F200D0A209D0D0A406D0D0A003D0D0B661
:0A420000000C010C000C000C000C77
:06420A00FF0EE350E84E38
:104210001200000000D000D000D0E82EFAD7120023
:104220002B4950520041542B4950523D3F0D0A003A
:054230002E41542E0098
:014235000088
:0A4236000F01F290F2920F01F090D8
:0A424000F0920F01C00EF2121200FE
:06424A0082848288829A42
:0C425000829694949488949A949612009C
:04425C008284000058
:0A42600000000000000000D0120072
:06426A0082940000000038
:084270000000000000D0120064
:08427800FF0EE3500000E82EE8
:04428000FDD7120054
:0C428400D0B003D0D0A2000C010C000C44
:0C429000040000D01200FF0000D012005B
:04429C00A1B4010CBC
:0242A000000C10
:0442A2000100000017
:0742A6000000FFFFFFFFFF16
:0342AD002C0100E1
:1042B00000B004000060090000C01200008025006A
:1042C00000004B00000096000000E1000000C20169
:1042D00000FF3BFF0E7F07BF03DF01EF0077004FBA
:0342E000002700B4
:0742E300FF0000FF00FF00D7
:0642EA00020406080A01AF
:0742F00002040810000000A9
:0342F7000001FFC4
:0642FA00000000000000BE
:10430000594857482D526170686100AAFF55FFAAAD
:10431000FF55FFAAFF55FFAAFF55FFAAFF55FFAAA9
:0B432000FF55FFAAFF55FFAAFF55FF45
:020000040030CA
:0100010002FC
:0100020001FC
:010003001FDD
:01000500807A
:010006008178
:0200000400F00A
:1000000000000000000000000000000000000000F0
:09001000007856341212435678B0
:00000001FF
