:040000000CEF00F011
:1000180005EE01F015EE0BF061EC3FF068EF3FF0F4
:1070000003D095EF3DF01200FCD7ACD3F29ED190A7
:10701000949C828C948E05010F6B106B116B126B1C
:10702000000E125D08E1000E115D05E19C0E105D81
:1070300002E1400E0F5DD8A001D001D001D017D0E1
:1070400000F000F005010F2B000E10231123122376
:10705000000E125D08E1000E115D05E19C0E105D51
:1070600002E1400E0F5DD8A001D001D0E9D7040E97
:10707000E4DBF298F096F098F296F29AF29C9D9CDE
:10708000420EA0DB4F0E9EDB4F0E9CDB540E9ADBB4
:1070900067D369DB0501386F3DD3780E93DB00D0F1
:1070A000ACA205D000D09EA802D000D002D000D063
:1070B000F7D756D3A5DF760E85DB0B0E83DB00D02A
:1070C000ACA205D000D09EA802D000D002D000D043
:1070D000F7D746D3720E76DB00D0ACA205D000D035
:1070E0009EA802D000D002D000D0F7D7480E006E84
:1070F0007E0E016E050100C039F501C03AF53B6B0B
:107100003C6B040E3D6F010E3E6F050E3F6F69DB59
:1071100002C5E8FFEF0AD8A401D001D003D0FC6A71
:1071200024EF3FF01DD3480E006E7E0E016E050168
:1071300000C039F501C03AF53B6B3C6B040E3D6F66
:10714000010E3E6F050E3F6F4CDB02C5E8FFEF0AF4
:10715000D8A401D001D003D0FC6A24EF3FF000D3C3
:10716000700E30DBFDD2620E2DDBFAD20501366BDC
:10717000FADA05010F6F106B116B126B0F51362786
:10718000F2DA0501356F355136273551016E006A47
:1071900000C000F001C001F0000E01BEFF0E026E43
:1071A000036E00500F27015010230250112303508B
:1071B0001223D9DA0501356FFF0E006E016A3551D1
:1071C000005C026E0150D8A00104036E36C5E8FFD2
:1071D000021801E10352D8A401D001D024D0EF0E4F
:1071E0000C6F0A0E006E700E016ED89001320032E4
:1071F00000C00FF501C010F5116B126B0F510B6F32
:10720000F00E0E6F10510D6F346BA69C0B0E396F84
:10721000050E3A6F040E3B6F3C6B3D6B3E6B3F6B54
:1072200034DB660ECFDA05013851540AD8A401D0F8
:1072300001D00CD000D0ACA205D000D09EA802D0C6
:1072400000D002D000D0F7D7070EF7DA89D20501B7
:10725000366B89DA0501136F1351362784DA05017D
:107260000F6F106B116B126B0F5136277CDA050113
:10727000356F35513627080E0FC500F010C501F0E7
:1072800011C502F012C503F04AEC3FF0355100245D
:10729000046E000E0120056E000E0220066E000E28
:1072A0000320076E04C00FF505C010F506C011F5E8
:1072B00007C012F558DA0501376F37513627356B9D
:1072C00014D051DA006E0501355105EE14F0E926AF
:1072D000000EEA2200C0EFFF355105EE14F0E9265A
:1072E000000EEA22EF503627352B05011351355D8C
:1072F000D8A001D001D0E5D736DA05013625D8A4CB
:1073000001D001D0E5D137510009D8A401D001D076
:10731000ACD134510009D8A401D001D06FD0000EF7
:10732000125D08E1000E115D05E1700E105D02E1D5
:10733000000E0F5DD8B001D001D05DD012510F11F9
:1073400010111111D8A401D001D03FD0356B040E1B
:10735000355DD8A001D001D001D016D0050135513E
:1073600015EE14F0E126000EE222355105EE0BF089
:10737000E926000EEA22E7CFEFFF352B040E355D3C
:10738000D8A001D001D0EAD7FC0E05011327040EC6
:107390000F27000E1023000E1123000E122313518D
:1073A0000009D8B401D001D00FD0180E396F050EE6
:1073B0003A6F13513B6F0FC53CF510C53DF511C534
:1073C0003EF512C53FF561DA16D0050113510009EB
:1073D000D8B401D001D00FD0140E396F050E3A6F1A
:1073E00013513B6F0FC53CF510C53DF511C53EF57A
:1073F00012C53FF54ADA660EE5D936D105013405E6
:10740000D8A401D001D05CD013510009D8B401D068
:1074100001D053D00F51356F2FD035C500F0016A20
:10742000026A036A000E002405018A6F000E012023
:107430008B6F200E02208C6F000E03208D6F28DBD7
:1074400005010F51355D006E1051D8A01029016A59
:10745000015E140E0024E96E050E0120EA6EEF5065
:10746000F56E0C00A68EA684F29E550EA76EAA0E8F
:10747000A76EA68200F0352B050113510F25046E6F
:10748000000E1021056E000E1121066E000E122155
:10749000076E35C500F0016A026A036A0750035C93
:1074A00008E10650025C05E10550015C02E1045070
:1074B000005CD8A001D001D0B0D7660E83D9D4D05B
:1074C00005013451020AD8A401D001D09CD0135137
:1074D0000009D8B401D001D093D00F51356F6FD0CF
:1074E00005013551020AD8A401D005D03551030A4F
:1074F000D8A402D000D006D000D03551050AD8A4B7
:1075000002D000D002D000D058D0A68C35C500F0F3
:10751000016A026A036A000E00248A6F000E0120CD
:107520008B6F300E02208C6F000E03208D6FB0DA4F
:1075300005013551030AD8A401D001D023D00F5141
:10754000355D006E1051D8A01029016A015E140E3D
:107550000024E16E050E0120E26EFE0E006E0F515A
:10756000355D026E1051D8A01029036A035E140E17
:107570000224E96E050E0320EA6EEF50016E005002
:107580000114E76E05010F51355D006E1051D8A052
:107590001029016A015E140E0024E96E050E012017
:1075A000EA6EEF50F56E0C00A68EA684F29E550E84
:1075B000A76EAA0EA76EA68200F00501352B050165
:1075C00013510F25046E000E1021056E000E1121BF
:1075D000066E000E1221076E35C500F0016A026AC0
:1075E000036A0750035C08E10650025C05E10550A0
:1075F000015C02E10450005CD8A001D001D070D73A
:10760000660EE0D831D005013451030AD8A401D068
:1076100001D02AD013510009D8B401D001D022D012
:10762000356B19D0050135510F25396F000E10212A
:107630003A6F355105EE14F0E926000EEA22EF50BC
:107640003B6F29EC3FF001D000D0A6B201D001D0B1
:10765000FBD70501352B05011351355DD8A001D0AD
:1076600001D0E0D7660EAED833D005013751040AF9
:10767000D8A401D001D028D005EE15F0EF50D8A441
:1076800001D001D002D0346BA69C05011551200A0F
:10769000D8A401D001D002D0010E346F05011551DC
:1076A000300AD8A401D001D003D0020E346FA68CCA
:1076B00005011551F00AD8A401D001D002D0030E63
:1076C000346F660E7FD804D0660E7CD80501346B0B
:1076D00047D005010B0E396F050E3A6F040E3B6F54
:1076E000480E006E7E0E016E00C03CF501C03DF5F7
:1076F0003E6B3F6BCAD8660E65D800D0ACA205D0F1
:1077000000D09EA802D000D002D000D0F7D7FC6AEB
:107710009BD326D005013851410A01E1CBD4030A9D
:1077200001E121D5070A01E1FED4030AD2E0160ADD
:1077300001E116D5020A01E1CDD4010A01E116D515
:10774000070A01E113D5010A01E1EDD4030A01E1C1
:10775000B2D40E0A01E1A1D4020A01E178D500D029
:1077600098D4120053D42DD00501400E396F0D0E60
:107770003A6F030E3B6F000E3C6F06D005013907D0
:10778000000E3A5B3B5B3C5B9EAA01D008D0050132
:107790003C5139113A113B11D8A402D000D002D08B
:1077A00000D0ECD705013C5139113A113B11D8A456
:1077B00001D001D003D0450E03D002D0AE5000D08E
:1077C0001200D2D70CD00501396F01D000D09EA88D
:1077D00001D001D0FBD705013951AD6E1200F3D7AE
:1077E00039052AD005013951F66E3A51F76E080E67
:1077F00039C500F03AC501F03BC502F03CC503F0C5
:1078000055EC3FF0080E55EC3FF00050F86E406B21
:107810000BD00900050140513E25E96E000E3F21C5
:10782000EA6EF5CFEFFF402B05013D51405DD8A03A
:1078300001D001D0EED71200D5D725D00501416F78
:10784000BF0E396F5F0E3A6F2F0E3B6F170E3C6FF6
:107850000B0E3D6F050E3E6F030E3F6F010E406F26
:10786000415105EE39F0E926000EEA22EF50AF6EE5
:10787000AC84AC98AB8EAB88AB9A9D989D9AAC9C2F
:10788000AB9CAC8A1200DAD7390500D10501406BF8
:107890003F0E006E00503C15846F8451836F8351FE
:1078A0003B2783C500F0016A026A036A00503C5F0F
:1078B00001503D5B02503E5B03503F5BDFD0050152
:1078C0003B51826FC00E3B27410E825DD8A001D094
:1078D00001D003D0400E826F02D005013B6B420EF7
:1078E000006E050E016E080E026ED8900132003255
:1078F000022EFBD700C0E2FF420E006E050E016EA5
:1079000000C0E1FF3CC58AF53DC58BF53EC58CF551
:107910003FC58DF5BDD806D00900F550E66E0501CE
:10792000402B8307050183510009D8A401D001D061
:10793000F3D70CD039C5E9FF3AC5EAFFEF5005018E
:10794000856F394B3A2B8551E66E402B05018251EC
:10795000405DD8A001D001D0EDD7050140513C25B4
:10796000006E000E3D21016E000E3E21026E000EE3
:107970003F21036EFF0E00248A6FFF0E01208B6FE4
:10798000FF0E02208C6FFF0E03208D6F81D805D073
:107990000B00F550E66E0501402B400E0501405DE1
:1079A000D8A001D001D0F4D705014051406F3CC5AB
:1079B00086F53DC587F53EC588F53FC589F581D873
:1079C0000501FF0E3C25006EFF0E3D21016EFF0EEE
:1079D0003E21026EFF0E3F21036EFF0E00148A6FE0
:1079E000FF0E01148B6F1F0E02148C6F000E031418
:1079F0008D6F4ED8420E006E050E016E080E026E9F
:107A0000D89001320032022EFBD700C0E2FF420EB6
:107A1000006E050E016E00C0E1FF080E0501416F0A
:107A20001BD0080E0501406F05D0E650F56E0F0023
:107A300005014007050140510009D8A401D001D03B
:107A4000F4D7A68EA684F29E550EA76EAA0EA76E38
:107A5000A68200F005014107050141510009D8A4A3
:107A600001D001D0DED7A6940501400E3C27000EC0
:107A70003D23000E3E23000E3F23846B05013B5146
:107A80000009D8A401D001D01AD71200FFD68A0568
:107A900016D0080E8AC500F08BC501F08CC502F027
:107AA0008DC503F055EC3FF0080E55EC3FF000504B
:107AB000F86E05018B51F76E8A51F66E1200E9D708
:107AC000860514D086C58AF587C58BF588C58CF5E3
:107AD00089C58DF5DDDFA69CA68EA684A688550EE9
:107AE000A76EAA0EA76EA68200F01200EBD70BD0ED
:107AF000A69CA96EA69EA680A8CF0BF505010C6FCB
:107B00000B5100D01200F4D70B050ED0A68C0BC57C
:107B10008AF50CC58BF50DC58CF50EC58DF5B8DF56
:107B20000900F55000D01200F1D78DD1E8500501C1
:107B3000186FF250166FF29ED1909E50176FD8506A
:107B4000126FAF50116FAC50136FAB50146FAD503C
:107B5000156F040E72DE530E35DE460E33DE520E06
:107B600031DEFF502FDEFE502DDEFD502BDEFC50AF
:107B700029DEFB5027DEFA5025DEF95023DEF850CF
:107B800021DEF7501FDEF6501DDEF5501BDEF450EF
:107B900019DEF35017DE0501165114DEF15012DE26
:107BA000F05010DEEA500EDEE9500CDE05011851EF
:107BB00009DEE25007DEE15005DEE05003DEDA5078
:107BC00001DED950FFDD05011251FCDDD750FADD91
:107BD000D650F8DDD550F6DDD350F4DDD250F2DDCD
:107BE000D150F0DDD050EEDDCF50ECDDCE50EADDEF
:107BF000CD50E8DDCC50E6DDCB50E4DDCA50E2DD0F
:107C0000C950E0DDC850DEDDC750DCDDC650DADD2E
:107C1000C550D8DDC450D6DDC350D4DDC250D2DD4E
:107C2000C150D0DDBF50CEDDBE50CCDDBD50CADD71
:107C3000BC50C8DDBB50C6DDBA50C4DDB350C2DD98
:107C4000B250C0DDB150BEDD05011151BBDDAE50FB
:107C5000B9DD05011551B6DD05011351B3DD05018F
:107C60001451B0DDA950AEDDA850ACDDA750AADD9F
:107C7000A650A8DDA250A6DDA150A4DDA050A2DD33
:107C80009F50A0DD050117519DDD9D509BDD000E2D
:107C900099DD000E97DD945095DD935093DD925061
:107CA00091DD000E8FDD000E8DDD8B508BDD8A5057
:107CB00089DD895087DD000E85DD000E83DD825071
:107CC00081DD81507FDD80507DDDE96AEA6A050152
:107CD0000B6B0C6B060E0C5D000ED8B40B5DD8A0C0
:107CE00001D001D001D00ED0EE506CDD05010B4B60
:107CF0000C2B060E0C5D000ED8B40B5DD8A001D085
:107D000001D0F2D705010D6BFD0E0D5DD8A001D09D
:107D100001D001D00CD005010D51E9DE53DD050184
:107D20000D2BFD0E0D5DD8A001D001D0F4D70501BB
:107D3000000E0B6F000E0C6F200E0D6F000E0E6FFD
:107D4000E4DE40DD0501010E0B6F000E0C6F200E0E
:107D50000D6F000E0E6FD9DE35DD0501020E0B6FC3
:107D6000000E0C6F200E0D6F000E0E6FCEDE2ADDA2
:107D700000D0ACA205D000D09EA802D000D002D086
:107D800000D0F7D75ED0EFDC0501106F1051580A14
:107D9000D8A401D001D002D0780E14DD0501105115
:107DA000500AD8A401D001D002D0700E0BDD05011D
:107DB0001051420AD8A401D001D00ED0620E02DDCB
:107DC00000D0ACA205D000D09EA802D000D002D036
:107DD00000D0F7D705EF38F005011051410AD8A4BB
:107DE00001D001D002D000EF38F005011051520A45
:107DF000D8A401D005D01051550AD8A402D000D083
:107E000002D000D01ED0480E006E7E0E016E00C063
:107E100039F501C03AF53B6B3C6B020E3D6F0E0E1F
:107E20003E6F050E3F6FDDDC05010F51EF0AD8A450
:107E300001D001D003D0FC6A07D003D0FC6A05EF63
:107E400038F0A1D7120072D602D000F01200FDD790
:107E50003905A6B2FED739C5A9FF05013B51A86E69
:107E6000A69EA69CD890F2BED880F29ED892F2BC74
:107E7000D882F29CA684550EA76EAA0EA76EA68283
:107E8000A694A1A8FED7A198D8B0F28ED8A21200CD
:107E9000F28C1200046E042A0406D8B4000CD890A8
:107EA0000036013602360336F7D7046E042A04067C
:107EB000D8B4000CD8900332023201320032F7D726
:107EC000EE6AEA50E262FCD7E950E162F9D71200AB
:087ED00005EC38F00CEF00F0A6
:020000040030CA
:04000000FFF9FCFE0A
:08000600FAFFFFFFFFFFFFFFFF
:0200000400F00A
:080000000102030405060708D4
:020000040000FA
:00000001FF
