:04000000000000F00C
:10000600EE6AFFFFEA50E262FBD7E950E162F8D7F9
:100016001200FFFF05EEF6F016EE00F004EC00F01D
:100026003FEF06F0FFFFADEF04F0FFFFFCD7FFFF49
:10003600F29ED190949C828C948E00018A6B8B6B7D
:100046008C6B8D6B000E8D5D08E1000E8C5D05E1FD
:100056009C0E8B5D02E1400E8A5DD8B013D000F095
:1000660000F000018A2B000E8B238C238D238D5DDF
:1000760008E1000E8C5D05E19C0E8B5D02E1400EF1
:100086008A5DEBD7040E28DBF298F096F098F2968C
:10009600F29AF29C9D9C420EECDA4F0EEADA4F0E73
:1000A600E8DA540EE6DAC3DA0001806F98D2780EE9
:1000B600E0DAACB29EA8FDD7F6D7B4DF760ED9DA71
:1000C6000B0ED7DAACB29EA8FDD7EDD7720ED1DAF9
:1000D600ACB29EA8FDD7D20E0001AE6F0B0EAF6F6D
:1000E600B06BB16B040EB26FF60EB36F050EB46F44
:1000F600C8DAF7C5E8FFEF0AD8A4D5D7E2EF05F0CE
:10010600D20E0001AE6F0B0EAF6FB06BB16B040E6B
:10011600B26FF60EB36F050EB46FB3DAEAD7700E90
:10012600A8DAC1D7620EA5DABED70001846B7FDAE2
:1001360000018A6F8B6B8C6B8D6B8A51842777DA03
:100146000001856F855184278551016E006A000E76
:1001560001BEFF0E026E036E00508A2701508B23EC
:1001660002508C2303508D2362DA0001856F0068EC
:10017600016A8551005E000E015A84C0E8FF00182E
:1001860001E10152D8A426D0EF0E876F340E006E1F
:10019600000E016ED8900130036E0030026E0250E0
:1001A6008A6F03508B6F8C6B8D6B8A51866FF00E46
:1001B600896F8B51886F826BA69C860EAE6F000E80
:1001C600AF6F040EB06FB16BB26BB36BB46BAADAE0
:1001D600660E4FDA00018051540AD8A464D7ACB237
:1001E6009EA8FDD7070E78DA5ED70001846B1FDA6A
:1001F6000001836F835184271ADA00018A6F8B6BA3
:100206008C6B8D6B8A51842712DA0001856F8551BC
:100216008427080E8AC000F08BC001F08CC002F063
:100226008DC003F021EC06F0855100248A6F000E84
:1002360001208B6F000E02208C6F000E03208D6F45
:10024600F6D90001816F81518427856B00018351A6
:10025600855DD8B015D0EBD9006E0001855100EE52
:100266008EF0E926000EEA2200C0EFFF855100EE6F
:100276008EF0E926000EEA22EF508427852BE6D77A
:10028600D6D9006E000184510024D8A40CD7815120
:10029600D8A469D18251D8A458D0000E8D5D08E14A
:1002A600000E8C5D05E1700E8B5D02E1000E8A5D2D
:1002B600D8B048D08D518A118B118C11D8A42FD06B
:1002C600D96AD95010EE8EF0E126000EE222D950FE
:1002D60000EE86F0E926000EEA22E7CFEFFFD92AE4
:1002E600030ED964EED7FC0E00018327040E8A277D
:1002F600000E8B238C238D238351D8B423D0920EEA
:10030600AE6F000EAF6F8351B06F8AC0B1F08BC075
:10031600B2F08CC0B3F08DC0B4F004DA13D0000193
:100326008351D8B40FD08E0EAE6F000EAF6F8351CF
:10033600B06F8AC0B1F08BC0B2F08CC0B3F08DC084
:10034600B4F0F0D9660E95D9AED600018205D8A4D0
:1003560056D08351D8B450D08A51856F000183514D
:100366008A25046E000E8B21056E000E8C21066E0A
:10037600000E8D21076E85C000F0016A026A036ACD
:100386000750035C08E10650025C05E10550015C7C
:1003960002E10450005CD8B02FD085C000F0016A9D
:1003A600026A036A000E00240001FC6F000E0120A1
:1003B600FD6F200E0220FE6F000E0320FF6F7DDA18
:1003C60000018551D8908A55006E000E8B55016E3E
:1003D6008E0E0024E96E000E0120EA6EEF50F56ED7
:1003E6000C00A68EA684F29E550EA76EAA0EA76EC8
:0A03F600A68200F0852BB2D7660E38
:100400003BD954D600018251020AD8A488D0835126
:10041000D8B482D08A51856F000183518A25046E39
:10042000000E8B21056E000E8C21066E000E8D21B4
:10043000076E85C000F0016A026A036A0750035C18
:1004400008E10650025C05E10550015C02E1045040
:10045000005CD8B061D000018551020AD8B409D03F
:100460008551030AD8B405D000018551050AD8A4E6
:1004700050D0A68C85C000F0016A026A036A000EA3
:1004800000240001FC6F000E0120FD6F300E0220E1
:10049000FE6F000E0320FF6F13DA00018551030A7F
:1004A000D8A41DD08551D8908A55006E000E8B556A
:1004B000016E8E0E0024E16E000E0120E26E855169
:1004C000D8908A55006E000E8B55016E8E0E00245A
:1004D000E96E000E0120EA6EEF50FE0BE76E0001A0
:1004E0008551D8908A55006E000E8B55016E8E0E88
:1004F0000024E96E000E0120EA6EEF50F56E0C004C
:10050000A68EA684F29E550EA76EAA0EA76EA68290
:1005100000F00001852B80D7660EAED8C7D500014C
:100520008251030AD8A4C2D58351D8B41CD0856B9C
:1005300000018351855DD8B016D0000185518A2510
:10054000AE6F000E8B21AF6F855100EE8EF0E92665
:10055000000EEA22EF50B06FEFEC05F0A6B2FED726
:100560000001852BE5D7660E87D8A0D50001815103
:10057000040AD8A41ED08F51D8A402D0826BA69CA6
:1005800000018F51200AD8A402D0010E826F000111
:100590008F51300AD8A403D0020E826FA68C0001BE
:1005A0008F51F00AD8A402D0030E826F660E64D871
:1005B0007DD5660E61D80001826B78D50001860E6C
:1005C000AE6F000EAF6F040EB06FD20EB16F0B0E98
:1005D000B26FB36BB46BA9D8660E4ED8ACB29EA8FE
:1005E000FDD7F0D200018051410A01E169D5030A2B
:1005F00001E19BD5070A01E186D5030ADFE0160A6F
:1006000001E190D5020A01E164D5010A01E190D52A
:10061000070A01E18DD5010A01E175D5030A01E15F
:1006200050D50E0A01E146D5020A01E1E1D53ED5D9
:10063000FFFF01D5FFFF400E006E0D0E016E030E91
:10064000026E036A05D00006000E015A025A035AD0
:100650000350001001109EBA06D00210D8A4F3D7A0
:100660000350001001100210D8A402D0450E01D092
:10067000AE501200FFFFDFD7FFFF9EA8FED7AD6E82
:100680001200FFFFFAD7AE00FFFF0001AE51F66E79
:10069000AF51F76E080EAEC000F0AFC001F0B0C0B1
:1006A00002F0B1C003F02DEC06F0080E2DEC06F0C0
:1006B0000050F86ED96A0001B251D95CD8B00CD0A4
:1006C0000900D9500001B325E96E000EB421EA6E8D
:1006D000F5CFEFFFD92AEFD71200FFFFD6D7FFFFE4
:1006E000D96E0001AE69AF69B069810EB16F400E7D
:1006F000B26F200EB36F150EB46F0A0EB56FD950DE
:1007000000EEAEF0E926000EEA22EF50AF6EAC84A8
:10071000AC98AB8EAB88AB9A9D989D9AAC9CAB9CE9
:10072000AC8A1200FFFFDCD7AE00FFFF0001B76B01
:10073000B1513F0BD96ED950B66FB651B027B6C084
:1007400000F0016A026A036A0050B15F0150B25BB7
:100750000250B35B0350B45B0001B051D8B4ACD0CD
:100760000001B051B56FC00EB027400EB56502D084
:10077000B56F02D00001B06B000EE26EB80E006ED5
:10078000000E016E0050E16EB1C0FCF0B2C0FDF091
:10079000B3C0FEF0B4C0FFF093D80001B651D8B496
:1007A00013D00900F550E66E0001B72BB607F5D758
:1007B000AEC0E9FFAFC0EAFFEF50D96E0001AE4B0B
:1007C000AF2BD950E66EB72B0001B551B75DD8A05D
:1007D000EFD70001B751B125006E000EB221016EB6
:1007E000000EB321026E000EB421036EFF0E002432
:1007F000FC6FFF0E0120FD6FFF0E0220FE6FFF0E4B
:100800000320FF6F5DD805D00B00F550E66E0001A8
:10081000B72B3F0E0001B765F7D7B751B1C0F8F05D
:10082000B2C0F9F0B3C0FAF0B4C0FBF063D8000175
:10083000FF0EB125006EFF0EB221016EFF0EB32137
:10084000026EFF0EB421036E0050FC6F0150FD6F6D
:100850001F0E0214FE6FFF6B33D8000EE26EB80E4F
:10086000006E000E016E0050E16E080ED96ED95078
:10087000D8B418D0080E0001B76F0001B751D8B432
:1008800006D0E650F56E0F000001B707F6D7A68E2A
:10089000A684F29E550EA76EAA0EA76EA68200F041
:1008A000D906E5D7A6940001400EB127000EB22369
:1008B000B323B423D96A50D71200FFFF37D7FC0007
:1008C000FFFF080EFCC000F0FDC001F0FEC002F00A
:1008D000FFC003F02DEC06F0080E2DEC06F00050E2
:1008E000F86E0001FD51F76EFC51F66E1200FFFF2D
:1008F000E8D7F800FFFFF8C0FCF0F9C0FDF0FAC03F
:10090000FEF0FBC0FFF0DCDFA69CA68EA684A688C6
:10091000550EA76EAA0EA76EA68200F01200FFFF6A
:10092000EAD7FFFFA69CA96EA69EA680A850D96E06
:10093000D9501200FFFFF6D78000FFFFA68C80C0C1
:10094000FCF081C0FDF082C0FEF083C0FFF0B8DF94
:100950000900F5501200FFFFF1D7FFFFF46EF250CF
:10096000016EF29ED1909E50006ED850E16EAF5055
:10097000F36EAC500001806FAB50036EAD50026E51
:10098000040EADDE530E78DE460E76DE520E74DEB9
:10099000FF5072DEFE5070DEFD506EDEFC506CDEED
:1009A000FB506ADEFA5068DEF95066DEF85064DE0D
:1009B000F75062DEF65060DEF5505EDEF4505CDE2D
:1009C000F3505ADE015058DEF15056DEF05054DE3E
:1009D000EA5052DEE95050DEF4504EDEE2504CDE7A
:1009E000E1504ADEE05048DEDA5046DED95044DEBF
:1009F000E15042DED75040DED6503EDED5503CDEE0
:100A0000D3503ADED25038DED15036DED05034DE0C
:100A1000CF5032DECE5030DECD502EDECC502CDE2C
:100A2000CB502ADECA5028DEC95026DEC85024DE4C
:100A3000C75022DEC65020DEC5501EDEC4501CDE6C
:100A4000C3501ADEC25018DEC15016DEBF5014DE8D
:100A5000BE5012DEBD5010DEBC500EDEBB500CDEB0
:100A6000BA500ADEB35008DEB25006DEB15004DEE2
:100A7000F35002DEAE5000DE0250FEDD0001805178
:100A8000FBDD0350F9DDA950F7DDA850F5DDA750D7
:100A9000F3DDA650F1DDA250EFDDA150EDDDA05059
:100AA000EBDD9F50E9DD0050E7DD9D50E5DD965020
:100AB000E3DD9550E1DD9450DFDD9350DDDD9250B4
:100AC000DBDD8D50D9DD8C50D7DD8B50D5DD8A50E4
:100AD000D3DD8950D1DD8450CFDD8350CDDD825010
:100AE000CBDD8150C9DD8050C7DDE96AEA6AF36A6F
:100AF000F46AEE50C1DDF34AF42A060EF45C000EEF
:100B0000D8B4F35CD8A0F5D7E16AE1500ADFB4DDD0
:100B1000E12AFC0EE164F9D70001806B816B200EA5
:100B2000826F836B0ADFA8DD0001010E806F816B8D
:100B3000200E826F836B01DF9FDD0001020E806F4C
:100B4000816B200E826F836BF8DE96DDACB29EA8BF
:100B5000FDD770DDD96ED950580AD8A402D0780ECE
:100B60008BDDD950500AD8A402D0700E85DDD95043
:100B7000420AD8A407D0620E7FDDACB29EA8FDD792
:100B80001AEF00F0D950410AD8B415EF00F0D9504F
:100B9000520AD8B404D0D950550AD8A4DAD7D20E04
:100BA0000001AE6F0B0EAF6FB06BB16B020EB26F88
:100BB000810EB36F000EB46F67DD00018251EF0A42
:100BC000D8A402D0FC6A05D0FC6A1AEF00F0FFFF3F
:100BD000C5D6FFFF00F01200FFFFFCD7AE00FFFFFD
:100BE00039EC06F00001AE51A96EB051A86E3F0E6F
:100BF000A616D890F2BED880F29EA684550EA76E97
:100C0000AA0EA76EA682A198A694D8B0F28E120062
:100C1000FFFFE6D7FFFFE96EE906E928D8B40ED05A
:100C2000040EE16EE106E128D8B4F6D7770ED96E4E
:100C300002D000F000F0D92EFCD7F4D71200FFFF4D
:100C4000EAD7FFFF046E042A0406D8B4000CD8903B
:100C50000036013602360336F7D7FFFF046E042A4A
:100C60000406D8B4000CD8900332023201320032AC
:100C7000F7D7FFFFA6A21200FDD7FFFFFBD7FFFFAC
:080C80001AEC00F00CEF00F08B
:020000040030CA
:04000000FFFAFCFE09
:08000600FAFFFFFFFFFFFFFFFF
:0200000400F00A
:080000000102030405060708D4
:020000040000FA
:00000001FF
