:040000000CEF00F011
:10001800FFFF05EE01F015EE0BF025EC3EF033EF97
:020028003EF0A8
:10700000FFFF98EF3CF0FFFFFCD7FFFFF29ED1900F
:10701000949C828C948E0501156B166B176B186B04
:10702000000E185D08E1000E175D05E19C0E165D6F
:1070300002E1400E155DD8B013D000F000F005015C
:10704000152B000E162317231823185D08E1000ED8
:10705000175D05E19C0E165D02E1400E155DEBD754
:10706000040E28DBF298F096F098F296F29AF29CD1
:107070009D9C420EECDA4F0EEADA4F0EE8DA540E1F
:10708000E6DAC3DA05010B6F98D2780EE0DAACB21B
:107090009EA8FDD7F6D7B4DF760ED9DA0B0ED7DA75
:1070A000ACB29EA8FDD7EDD7720ED1DAACB29EA8D5
:1070B000FDD7A80E0501396F7B0E3A6F3B6B3C6B19
:1070C000040E3D6F010E3E6F050E3F6FC8DA02C51C
:1070D000E8FFEF0AD8A4D5D7CDEF3DF0A80E050103
:1070E000396F7B0E3A6F3B6B3C6B040E3D6F010EAC
:1070F0003E6F050E3F6FB3DAEAD7700EA8DAC1D73C
:10710000620EA5DABED705010F6B7FDA0501156F98
:10711000166B176B186B15510F2777DA0501106F77
:1071200010510F271051016E006A000E01BEFF0EB4
:10713000026E036E005015270150162302501723CC
:107140000350182362DA0501106F0068016A1051BC
:10715000005E000E015A0FC5E8FF001801E1015260
:10716000D8A426D0EF0E126F0A0E006E700E016EBC
:10717000D8900130036E0030026E0250156F03503C
:10718000166F176B186B1551116FF00E146F1651A7
:10719000136F0D6BA69C110E396F050E3A6F040E1E
:1071A0003B6F3C6B3D6B3E6B3F6BAADA660E4FDA72
:1071B00005010B51540AD8A464D7ACB29EA8FDD7E0
:1071C000070E78DA5ED705010F6B1FDA05010E6F27
:1071D0000E510F271ADA0501156F166B176B186B16
:1071E00015510F2712DA0501106F10510F27080EE5
:1071F00015C500F016C501F017C502F018C503F05B
:107200000CEC3EF010510024156F000E0120166F9B
:10721000000E0220176F000E0320186FF6D905012B
:107220000C6F0C510F27106B05010E51105DD8B07B
:1072300015D0EBD9006E0501105105EE19F0E926C5
:10724000000EEA2200C0EFFF105105EE19F0E9260A
:10725000000EEA22EF500F27102BE6D7D6D9006E8A
:1072600005010F510024D8A40CD70C51D8A469D122
:107270000D51D8A458D0000E185D08E1000E175D1E
:1072800005E1700E165D02E1000E155DD8B048D024
:107290001851151116111711D8A42FD0D96AD95029
:1072A00015EE19F0E126000EE222D95005EE11F09C
:1072B000E926000EEA22E7CFEFFFD92A030ED964B0
:1072C000EED7FC0E05010E27040E1527000E16231F
:1072D000172318230E51D8B423D01D0E396F050E75
:1072E0003A6F0E513B6F15C53CF516C53DF517C5F8
:1072F0003EF518C53FF504DA13D005010E51D8B498
:107300000FD0190E396F050E3A6F0E513B6F15C530
:107310003CF516C53DF517C53EF518C53FF5F0D946
:10732000660E95D9AED605010D05D8A456D00E51DE
:10733000D8B450D01551106F05010E511525046EAB
:10734000000E1621056E000E1721066E000E182184
:10735000076E10C500F0016A026A036A0750035CF9
:1073600008E10650025C05E10550015C02E10450B1
:10737000005CD8B02FD010C500F0016A026A036A21
:10738000000E00240501876F000E0120886F200E7B
:107390000220896F000E03208A6F7DDA05011051EB
:1073A000D8901555006E000E1655016E190E00246A
:1073B000E96E050E0120EA6EEF50F56E0C00A68E08
:1073C000A684F29E550EA76EAA0EA76EA68200F0A6
:1073D000102BB2D7660E3BD954D605010D51020AC7
:1073E000D8A488D00E51D8B482D01551106F0501A1
:1073F0000E511525046E000E1621056E000E172184
:10740000066E000E1821076E10C500F0016A026AB0
:10741000036A0750035C08E10650025C05E1055071
:10742000015C02E10450005CD8B061D0050110514C
:10743000020AD8B409D01051030AD8B405D0050106
:107440001051050AD8A450D0A68C10C500F0016ACE
:10745000026A036A000E00240501876F000E0120F6
:10746000886F300E0220896F000E03208A6F13DAB6
:1074700005011051030AD8A41DD01051D8901555FC
:10748000006E000E1655016E190E0024E16E050EF9
:107490000120E26E1051D8901555006E000E165561
:1074A000016E190E0024E96E050E0120EA6EEF5000
:1074B000FE0BE76E05011051D8901555006E000EB9
:1074C0001655016E190E0024E96E050E0120EA6EB4
:1074D000EF50F56E0C00A68EA684F29E550EA76E98
:1074E000AA0EA76EA68200F00501102B80D7660EAB
:1074F000AED8C7D505010D51030AD8A4C2D50E5187
:10750000D8B41CD0106B05010E51105DD8B016D048
:10751000050110511525396F000E16213A6F1051D3
:1075200005EE19F0E926000EEA22EF503B6FDAEC87
:107530003DF0A6B2FED70501102BE5D7660E87D821
:10754000A0D505010C51040AD8A41ED01A51D8A404
:1075500002D00D6BA69C05011A51200AD8A402D0B6
:10756000010E0D6F05011A51300AD8A403D0020E86
:107570000D6FA68C05011A51F00AD8A402D0030E93
:107580000D6F660E64D87DD5660E61D805010D6B52
:1075900078D50501110E396F050E3A6F040E3B6F59
:1075A000A80E3C6F7B0E3D6F3E6B3F6BA9D8660EFD
:1075B0004ED8ACB29EA8FDD7F0D205010B51410ABE
:1075C00001E169D5030A01E19BD5070A01E186D5EE
:1075D000030ADFE0160A01E190D5020A01E164D551
:1075E000010A01E190D5070A01E18DD5010A01E107
:1075F00075D5030A01E150D50E0A01E146D5020A0C
:1076000001E1E1D53ED5FFFF01D5FFFF400E006E41
:107610000D0E016E030E026E036A05D00006000E09
:10762000015A025A035A0350001001109EBA06D0A4
:107630000210D8A4F3D70350001001100210D8A4F0
:1076400002D0450E01D0AE501200FFFFDFD7FFFF82
:107650009EA8FED7AD6E1200FFFFFAD73905FFFFD7
:1076600005013951F66E3A51F76E080E39C500F032
:107670003AC501F03BC502F03CC503F018EC3EF002
:10768000080E18EC3EF00050F86ED96A05013D5125
:10769000D95CD8B00CD00900D95005013E25E96E5F
:1076A000000E3F21EA6EF5CFEFFFD92AEFD7120087
:1076B000FFFFD6D7FFFFD96E050139693A693B69EB
:1076C000810E3C6F400E3D6F200E3E6F150E3F6FDA
:1076D0000A0E406FD95005EE39F0E926000EEA2275
:1076E000EF50AF6EAC84AC98AB8EAB88AB9A9D98E4
:1076F0009D9AAC9CAB9CAC8A1200FFFFDCD739058D
:10770000FFFF0501426B3C513F0BD96ED950416FD1
:1077100041513B2741C500F0016A026A036A0050EB
:107720003C5F01503D5B02503E5B03503F5B0501F7
:107730003B51D8B4ACD005013B51406FC00E3B2744
:10774000400E406502D0406F02D005013B6B050E34
:10775000E26E430E006E050E016E0050E16E3CC5F8
:1077600087F53DC588F53EC589F53FC58AF593D8AF
:1077700005014151D8B413D00900F550E66E05015A
:10778000422B4107F5D739C5E9FF3AC5EAFFEF506B
:10779000D96E0501394B3A2BD950E66E422B0501C3
:1077A0004051425DD8A0EFD7050142513C25006E03
:1077B000000E3D21016E000E3E21026E000E3F21A3
:1077C000036EFF0E0024876FFF0E0120886FFF0EEF
:1077D0000220896FFF0E03208A6F5DD805D00B0051
:1077E000F550E66E0501422B3F0E05014265F7D7C5
:1077F00042513CC583F53DC584F53EC585F53FC581
:1078000086F563D80501FF0E3C25006EFF0E3D2175
:10781000016EFF0E3E21026EFF0E3F21036E0050EF
:10782000876F0150886F1F0E0214896F8A6B33D8DF
:10783000050EE26E430E006E050E016E0050E16E05
:10784000080ED96ED950D8B418D0080E0501426F71
:1078500005014251D8B406D0E650F56E0F0005017F
:107860004207F6D7A68EA684F29E550EA76EAA0EE4
:10787000A76EA68200F0D906E5D7A6940501400EB2
:107880003C27000E3D233E233F23D96A50D71200E8
:10789000FFFF37D78705FFFF080E87C500F088C5B3
:1078A00001F089C502F08AC503F018EC3EF0080E1D
:1078B00018EC3EF00050F86E05018851F76E8751C4
:1078C000F66E1200FFFFE8D78305FFFF83C587F53B
:1078D00084C588F585C589F586C58AF5DCDFA69C53
:1078E000A68EA684A688550EA76EAA0EA76EA6829F
:1078F00000F01200FFFFEAD7FFFFA69CA96EA69E2C
:10790000A680A850D96ED9501200FFFFF6D70B05FC
:10791000FFFFA68C0BC587F50CC588F50DC589F54D
:107920000EC58AF5B8DF0900F5501200FFFFF1D748
:10793000FFFFF46EF250016EF29ED1909E50006EE9
:10794000D850E16EAF50F36EAC5005010B6FAB50E9
:10795000036EAD50026E040EADDE530E78DE460EA1
:1079600076DE520E74DEFF5072DEFE5070DEFD5089
:107970006EDEFC506CDEFB506ADEFA5068DEF950B9
:1079800066DEF85064DEF75062DEF65060DEF550D9
:107990005EDEF4505CDEF3505ADE015058DEF150EA
:1079A00056DEF05054DEEA5052DEE95050DEF4501C
:1079B0004EDEE2504CDEE1504ADEE05048DEDA5066
:1079C00046DED95044DEE15042DED75040DED6508C
:1079D0003EDED5503CDED3503ADED25038DED150B8
:1079E00036DED05034DECF5032DECE5030DECD50D9
:1079F0002EDECC502CDECB502ADECA5028DEC950F9
:107A000026DEC85024DEC75022DEC65020DEC55018
:107A10001EDEC4501CDEC3501ADEC25018DEC15038
:107A200016DEBF5014DEBE5012DEBD5010DEBC505C
:107A30000EDEBB500CDEBA500ADEB35008DEB25088
:107A400006DEB15004DEF35002DEAE5000DE02501E
:107A5000FEDD05010B51FBDD0350F9DDA950F7DD1B
:107A6000A850F5DDA750F3DDA650F1DDA250EFDD03
:107A7000A150EDDDA050EBDD9F50E9DD0050E7DDCA
:107A80009D50E5DD9650E3DD9550E1DD9450DFDD5E
:107A90009350DDDD9250DBDD8D50D9DD8C50D7DD8C
:107AA0008B50D5DD8A50D3DD8950D1DD8450CFDDB8
:107AB0008350CDDD8250CBDD8150C9DD8050C7DDE4
:107AC000E96AEA6AF36AF46AEE50C1DDF34AF42A1D
:107AD000060EF45C000ED8B4F35CD8A0F5D7E16ACA
:107AE000E1500ADFB4DDE12AFC0EE164F9D70501BB
:107AF0000B6B0C6B200E0D6F0E6B0ADFA8DD050102
:107B0000010E0B6F0C6B200E0D6F0E6B01DF9FDDF6
:107B10000501020E0B6F0C6B200E0D6F0E6BF8DE65
:107B200096DDACB29EA8FDD770DDD96ED950580A4B
:107B3000D8A402D0780E8BDDD950500AD8A402D038
:107B4000700E85DDD950420AD8A407D0620E7FDDC1
:107B5000ACB29EA8FDD705EF38F0D950410AD8B491
:107B600000EF38F0D950520AD8B404D0D950550A91
:107B7000D8A4DAD7A80E0501396F7B0E3A6F3B6B9C
:107B80003C6B020E3D6F0C0E3E6F050E3F6F67DDC6
:107B900005010D51EF0AD8A402D0FC6A05D0FC6A99
:107BA00005EF38F0FFFFC5D6FFFF00F01200FFFF22
:107BB000FCD73905FFFF2DEC3EF005013951A96EC8
:107BC0003B51A86E3F0EA616D890F2BED880F29E0A
:107BD000A684550EA76EAA0EA76EA682A198A6949B
:107BE000D8B0F28E1200FFFFE6D7FFFFE96EE9067C
:107BF000E928D8B40ED0040EE16EE106E128D8B42D
:107C0000F6D7770ED96E02D000F000F0D92EFCD74F
:107C1000F4D71200FFFFEAD7FFFF046E042A040620
:107C2000D8B4000CD8900036013602360336F7D7A8
:107C3000FFFF046E042A0406D8B4000CD890033267
:107C4000023201320032F7D7EE6AFFFFEA50E262F9
:107C5000FBD7E950E162F8D71200FFFFA6A212009D
:107C6000FDD7FFFFFBD7FFFF05EC38F00CEF00F06E
:020000040030CA
:04000000FFFAFCFE09
:08000600FAFFFFFFFFFFFFFFFF
:0200000400F00A
:080000000102030405060708D4
:020000040000FA
:00000001FF
