:020000040000FA
:06000000BCEF14F0120039
:0100060000F9
:0600080004EF08F01200F5
:02000E0000D020
:080010001200FF0000D01200F5
:060018000CEF08F01200DD
:02001E000800D8
:10002000132A0000D40100002C000000161000006C
:10003000B403000002000000062A0000D402000001
:100040000D000000032A0000B103000003000000BF
:1000500006000000BC03000001000000FC290000B5
:10006000F702000007000000FF4F0000BB03000084
:1000700001000000FE4F0000BA0300000100000074
:100080000301A46BA56BA66BA76B03EC12F007EC46
:1000900014F000D01200D9CFE6FFE1CFD9FF030161
:1000A000A851106E116AD40E105C000E115803E3B3
:1000B000A86BA56BB0D0A551060A01E197D0040A40
:1000C0001BE0010A19E0070A17E0050A15E0040A17
:1000D00013E0050A01E09AD0A66BA76BA86B010E8E
:1000E000E66E1FEC14F0E552FE0EDB50020803E151
:1000F0000301020EA56F8ED0A50535E10301B405FD
:1001000015E1FE0EDB50200AE66E0301A851EA6AF3
:10011000000FE96E020EEA22E552E750EF6EFE0E86
:10012000DB50A61BA82B0301B46B1CD0FE0EDB50CA
:10013000100808E0FE0EDB50030804E0FE0EDB5062
:10014000020803E1010EB46F0DD00301A851EA6A61
:10015000000FE96E020EEA22FE0EDBCFEFFFDB504E
:10016000A61BA82B0CD0A851EA6A000FE96E020E5C
:10017000EA22FE0EDBCFEFFFDB50A61BA82B03010C
:10018000A551050A29E0040A1EE0050A19E0070A3C
:1001900014E0010A01E029D008EC13F0F36EFE0E22
:1001A000DB50F35C06E00301A66BA86BA56BA46BA8
:1001B00003D00301030EA56F18D0040EA56F15D050
:1001C000010EA56F12D0030EA85D0201025D03E1CE
:1001D0000301050EA56F09D0A65104E0A66BA86B1C
:1001E000A56BA46B060EA56F00D014D0A66BA86BF0
:1001F000A56B010EA46FE66A1FEC14F0E552FE0E2B
:10020000DB50030802E00301A46B04D0A66BA86BCB
:10021000A56BA46B00D0E552E7CFD9FF1200D9CF70
:10022000E6FFE1CFD9FFE6520301A45101E15BD023
:10023000A46B02C2DFFF040EDF24E66EE66A000E46
:10024000E66E020EE66E000EE66E010EE66E64ECE1
:1002500011F0106E060EE15E1050010103510F0AFD
:100260003AE0010A30E0030A26E00A0A1CE0020A2A
:1002700012E0040A08E0020EE66E00C1E6FF54D95F
:10028000E552E55230D0000EE66E010EE66E30D833
:10029000E552E55228D0000EE66E010EE66E4DDA0C
:1002A000E552E55220D0000EE66E010EE66E9EDAB3
:1002B000E552E55218D0020EE66E00C1E6FF34D9D1
:1002C000E552E55210D0020EE66E00C1E6FF2CD9D1
:1002D000E552E55208D0020EE66E00C1E6FF24D9D1
:1002E000E552E55200D0E552E552E7CFD9FF1200C2
:1002F000D9CFE6FFE1CFD9FF0D0EE126B4EC13F024
:10030000080E06C0DBFF090E07C0DBFF0A0E08C09F
:10031000DBFF0B0E09C0DBFF010EE66EE66ADCECCC
:1003200012F0E552E552010EE66EE76EFD0EDBCFF0
:10033000E9FFFE0EDBCFEAFFE750E926000EEA22D6
:10034000EF50E66E080EE66ED9CFE6FFDACFE6FF95
:10035000F7EC05F0106E050EE15E1050040EF36E22
:100360000C0EF3CFDBFFDB5032E0D950080F146ED8
:10037000DACF15F00C0EDB04166E176A16BE17687E
:1003800014501624E96E15501720EA6EEF50E66EF1
:10039000D9CF10F0DACF11F00C0EDB04126E136A15
:1003A00012BE1368040ED8801256000E1356030EA8
:1003B0001226000E132210501224E96E1150132041
:1003C000EA6EE552E750EF6E0C0EDB06CCD7080E56
:1003D000E66ED9CFE6FFDACFE6FF0DD8E552E5525B
:1003E000E5520D0EE15C02E2E16AE552E16EE55292
:1003F000E7CFD9FF1200D9CFE6FFE1CFD9FF030E37
:10040000E126DF6A020EE66ED4EC11F0E552020E30
:10041000DB6AFC0EDB50F36E020EDBCFF4FFF35011
:10042000F45C40E2020EDB50E76EFD0EDBCFE9FF2D
:10043000FE0EDBCFEAFFE750E926000EEA22010EAE
:10044000EFCFDBFF030EF36E020EDBCFF4FFF350B2
:10045000F45C1CE3010EDB50020808E0010EDB50E7
:10046000030804E0010EDB50100810E1100EE66EE8
:10047000D4EC11F0E552010EDB50200AE66ED4EC0C
:1004800011F0E552010EDB50DF1A09D0010EDBCF6F
:10049000E6FFD4EC11F0E552010EDB50DF1A020E3C
:1004A000DB2AB7D7DFCFE6FFD4EC11F0E552030E1D
:1004B000E66ED4EC11F0E552010E106E030EE15C15
:1004C00003E200D0E16AE552E16E1050E552E7CF59
:1004D000D9FF1200D9CFE6FFE1CFD9FF040EE12604
:1004E000060EE66EFE0EDBCFE6FF040EE66ED9CFFB
:1004F000E6FFDACFE6FF7BDB106E050EE15E105003
:10050000040EE66ED9CFE6FFDACFE6FF74DFE552E0
:10051000E552E552040EE15C02E2E16AE552E16E69
:10052000E552E7CFD9FF1200D9CFE6FFE1CFD9FFDF
:10053000050EE126150EE66EFE0EDBCFE6FF050E7C
:10054000E66ED9CFE6FFDACFE6FF51DB106E050E7F
:10055000E15E1050FD0EDB50E76E040EE7CFDBFFCF
:10056000050EE66ED9CFE6FFDACFE6FF44DFE552AF
:10057000E552E552050EE15C02E2E16AE552E16E08
:10058000E552E7CFD9FF120002EC13F0F350010B54
:1005900002E0010E01D0000E00D01200D9CFE6FF1C
:1005A000E1CFD9FF030EE126EFDF000901E1B3D06F
:1005B000FB0EDBCF10F0FC0EDBCF11F01006000EAF
:1005C000115A010E10C0DBFF020E11C0DBFF010E3D
:1005D000DBCF10F0020EDBCF11F00001800E111402
:1005E0002BE1010EDBCF12F0020EDBCF13F0FD0E7C
:1005F000DB501224E96EFE0EDB501320EA6EEF5042
:10060000E66E010EDBCF10F0020EDBCF11F0040E10
:100610001026000E1122FD0EDB501024E96EFE0E96
:10062000DB501120EA6EE552E750EF6E010EDB065B
:10063000020E01E2DB06CBD7FD0EDBCFE9FFFE0E9B
:10064000DBCFEAFFEF6A08EC13F0E66E010EE76E0F
:10065000FD0EDBCFE9FFFE0EDBCFEAFFE750E92618
:10066000000EEA22E552E750EF6E010EE76EFB0E38
:10067000DBCF10F0FC0EDBCF11F0E7501026000EA0
:100680001122020EE76EFD0EDBCFE9FFFE0EDBCF7F
:10069000EAFFE750E926000EEA2210C0EFFF020E43
:1006A000E76EFD0EDBCFE9FFFE0EDBCFEAFFE75082
:1006B000E926000EEA22EF50106E116A113404E2AE
:1006C0001050F708000E115400E2030EE76EFD0E05
:1006D000DBCFE9FFFE0EDBCFEAFFE750E926000E95
:1006E000EA22020EEF6EE76EFD0EDBCFE9FFFE0E93
:1006F000DBCFEAFFE750E926000EEA22EF50030FB6
:10070000E66EFD0EDBCFE6FFFE0EDBCFE6FF73DE0F
:10071000E552E552E552030EE15C02E2E16AE55280
:10072000E16EE552E7CFD9FF1200D9CFE6FFE1CF66
:10073000D9FFE552E7CFD9FF1200D9CFE6FFE1CFCD
:10074000D9FF080EE12620DF000901E145D002ECC7
:1007500013F0060EF3CFDBFF070EF4CFDBFF050E21
:10076000E66E010EE76EFD0EDBCFE9FFFE0EDBCF7E
:10077000EAFFE750E926000EEA22EF50E66E060E89
:10078000E66ED9CFE6FFDACFE6FF31DA106E050E5E
:10079000E15E1050060EDBCF06F0070EDBCF07F050
:1007A000086A096A0B6A010E0C6E0D6A0E6A24EC67
:1007B00013F0040E06C0DBFF060EDB50E76E050EDD
:1007C000E7CFDBFF060EE66ED9CFE6FFDACFE6FF16
:1007D00012DEE552E552E552080EE15C02E2E16A02
:1007E000E552E16EE552E7CFD9FF1200D9CFE6FF1F
:1007F000E1CFD9FF190EE126C7DE000901E199D04A
:10080000070EE66E010EE76EFD0EDBCFE9FFFE0E72
:10081000DBCFEAFFE750E926000EEA22EF50E66E52
:10082000100EE66ED9CFE6FFDACFE6FFE0D9106E04
:10083000050EE15E1050E9EC10F0110EF3CFDBFF76
:10084000120EF4CFDBFF12EC11F0130EF3CFDBFF2F
:10085000140EF4CFDBFF3BEC11F0150EF3CFDBFFF2
:10086000160EF4CFDBFF100EDB6ADB50106E116A40
:10087000030E105C000E115852E2040EF36E180EB7
:10088000F3CFDBFFDB5048E0100EDB50040DF350DC
:10089000030F106E116A180EDB04126E136A12BE7B
:1008A0001368040ED8801256000E135610501224EE
:1008B000E76E170EE7CFDBFF180EDB04146E156A28
:1008C00014BE1568D950110F126EDACF13F0100E46
:1008D000DB50020D1250F324E96E1350F420EA6E3F
:1008E0001450EE24E76E1550EE20EA6EE7CFE9FFD4
:1008F000EF50E66ED9CF10F0DACF11F0170EDB50C3
:100900000F011024E96E000E1120EA6EE552E75047
:10091000EF6E180EDB06B6D7100EDB2AA6D7100E28
:10092000E66ED9CFE6FFDACFE6FF65DDE552E552A8
:10093000E552190EE15C02E2E16AE552E16EE55230
:10094000E7CFD9FF1200D9CFE6FFE1CFD9FF060EDE
:10095000E1261ADE000901E16CD00301B52B020E7D
:10096000E76EFD0EDBCFE9FFFE0EDBCFEAFFE750BF
:10097000E926000EEA22EF04E76E050EE7CFDBFF63
:100980000D0EE66E010EE76EFD0EDBCFE9FFFE0EEB
:10099000DBCFEAFFE750E926000EEA22EF50E66ED1
:1009A000050EE66ED9CFE6FFDACFE6FF20D9106E4E
:1009B000050EE15E1050050EDB50106E116A440EFC
:1009C000D8801054000E115406E2030EF36E040E8C
:1009D000F3CFDBFF21D0050EDBCFE6FF040EE76E81
:1009E000FD0EDBCF10F0FE0EDBCF11F0E75010262E
:1009F000000E112210C0E6FF11C0E6FF9DEC26F0AC
:100A0000E552E552E552000902E1010E01D0000E67
:100A1000E76E040EE7CFDBFF050EE66ED9CFE6FFEB
:100A2000DACFE6FFE8DCE552E552E5520301B5070F
:100A300000D0060EE15C02E2E16AE552E16EE552A9
:100A4000E7CFD9FF1200D9CFE6FFE1CFD9FF0C0ED7
:100A5000E1269ADD000901E181D00E0EE66E010E5D
:100A6000E76EFD0EDBCFE9FFFE0EDBCFEAFFE750BE
:100A7000E926000EEA22EF50E66E080EE66ED9CFA8
:100A8000E6FFDACFE6FFB3D8106E050EE15E105038
:100A900064EC27F0080E06C0DBFF090E07C0DBFF81
:100AA0000A0E08C0DBFF0B0E09C0DBFF6EEC27F05F
:100AB000080EDBCF06F0090EDBCF07F00A0EDBCF06
:100AC00008F00B0EDBCF09F0100ED8900932083277
:100AD00007320632E806F9E10B6A010E0C6E0D6A68
:100AE0000E6A2FEC14F0040E06C0DBFF080EDBCFFD
:100AF00006F0090EDBCF07F00A0EDBCF08F00B0E75
:100B0000DBCF09F00B6A0C6A010E0D6E0E6A2FEC3A
:100B100014F0050E06C0DBFF080EDBCF06F0090E51
:100B2000DBCF07F0086A096A0B6A010E0C6E0D6ACA
:100B30000E6A24EC13F0060E06C0DBFF080EDB5035
:100B4000E76E070EE7CFDBFF080EE66ED9CFE6FFB4
:100B5000DACFE6FF50DCE552E552E5520C0EE15CDF
:100B600002E2E16AE552E16EE552E7CFD9FF1200F9
:100B7000D9CFE6FFE1CFD9FF050EE12605DD00095B
:100B800001E12BD00F0EE66E010EE76EFD0EDBCFFE
:100B9000E9FFFE0EDBCFEAFFE750E926000EEA226E
:100BA000EF50E66E050EE66ED9CFE6FFDACFE6FF30
:100BB0001ED8106E050EE15E105085EC27F0E76E32
:100BC000040EE7CFDBFF050EE66ED9CFE6FFDACFE6
:100BD000E6FF11DCE552E552E552050EE15C02E26A
:100BE000E16AE552E16EE552E7CFD9FF1200D9CFB5
:100BF000E6FFE1CFD9FFFD0EDBCFE9FFFE0EDBCF35
:100C0000EAFFFB0EDBCFEFFF08EC13F0E66E010E00
:100C1000E76EFD0EDBCFE9FFFE0EDBCFEAFFE7500C
:100C2000E926000EEA22E552E750EF6EFC0EDB509B
:100C3000FD0FE66E020EE76EFD0EDBCFE9FFFE0E46
:100C4000DBCFEAFFE750E926000EEA22E552E75043
:100C5000EF6E030EE76EFD0EDBCFE9FFFE0EDBCF7E
:100C6000EAFFE750E926000EEA22FA0EDBCFEFFF9B
:0A0C700000D0E552E7CFD9FF1200D3
:060C7A0000D01200D9CFEA
:100C8000E6FFE1CFD9FF420EE126010EDF6EDE5214
:100C9000020EDD6E030EF36E020EF3CFDBFF040EC9
:100CA000F36E030EF3CFDBFF050EF36E040EF3CFEE
:100CB000DBFF060EF36E050EF3CFDBFF070EF36EC0
:100CC000060EF3CFDBFF080EF36E070EF3CFDBFF4C
:100CD000090EF36E080EF3CFDBFF090EDB6A010E7F
:100CE000F36E0A0EF3CFDBFF020EF36E0B0EF3CFA3
:100CF000DBFF030EF36E0C0EF3CFDBFF040EF36E7F
:100D00000D0EF3CFDBFF050EF36E0E0EF3CFDBFF00
:100D1000060EF36E0F0EF3CFDBFF070EF36E100E11
:100D2000F3CFDBFF080EF36E110EF3CFDBFF090EDE
:100D3000F36E120EF3CFDBFF130EDB6A010EF36EC0
:100D4000140EF3CFDBFF020EF36E150EF3CFDBFFB5
:100D5000030EF36E160EF3CFDBFF040EF36E170EC9
:100D6000F3CFDBFF050EF36E180EF3CFDBFF060E9D
:100D7000F36E190EF3CFDBFF070EF36E1A0EF3CFEF
:100D8000DBFF080EF36E1B0EF3CFDBFF090EF36ED5
:100D90001C0EF3CFDBFF1D0EDB6A010EF36E1E0E81
:100DA000F3CFDBFF020EF36E1F0EF3CFDBFF030E5C
:100DB000F36E200EF3CFDBFF040EF36E210EF3CFA4
:100DC000DBFF050EF36E220EF3CFDBFF060EF36E94
:100DD000230EF3CFDBFF070EF36E240EF3CFDBFF02
:100DE000080EF36E250EF3CFDBFF090EF36E260E11
:100DF000F3CFDBFF270EDB6A010EF36E280EF3CF75
:100E0000DBFF020EF36E290EF3CFDBFF030EF36E52
:100E10002A0EF3CFDBFF040EF36E2B0EF3CFDBFFB6
:100E2000050EF36E2C0EF3CFDBFF060EF36E2D0EC8
:100E3000F3CFDBFF070EF36E2E0EF3CFDBFF080EB2
:100E4000F36E2F0EF3CFDBFF090EF36E300EF3CFF0
:100E5000DBFF310EDB6A010EF36E320EF3CFDBFFE8
:100E6000020EF36E330EF3CFDBFF030EF36E340E80
:100E7000F3CFDBFF040EF36E350EF3CFDBFF050E71
:100E8000F36E360EF3CFDBFF060EF36E370EF3CFA5
:100E9000DBFF070EF36E380EF3CFDBFF080EF36EA9
:100EA000390EF3CFDBFF090EF36E3A0EF3CFDBFF03
:100EB0003B0EDB6A3C0EDB6A3D0EDB6A3E0EDB6AF4
:100EC0003F0EDB6A3C0EF36E400EF3CFDBFF410EAC
:100ED000DB6A3C0EE66EE66AE66AE66AD9CFE6FFB2
:100EE000DACFE6FFD9503C0FE66E000EDA20E66E50
:100EF00050EC10F0146E080EE15E1450F3CF10F0B9
:100F0000F4CF11F0126A136A11AE02D0126813689E
:100F10003C0E10C0DBFF3D0E11C0DBFF3E0E12C0C9
:100F2000DBFF3F0E13C0DBFFAA0E0301B75D02E03B
:100F300058EC0FF07FEC0FF040EC00F008EC13F0F1
:100F4000C3EC0BF0000911E1AA0E0301B75D06E046
:100F50000301AA0EB76F00EF20F006D00FEC01F0EE
:100F600011D807EC00F0FAD702D0E4EC0BF0E8D788
:100F7000420EE15C02E2E16AE552E16EE552E7CF42
:100F8000D9FF1200FF0E0301B15D11E1F40EE66E10
:100F9000010EE66EE66AE66A49EC0AF0E552E552B1
:100FA000E552E5520301B16F58EC13F022D0B1C302
:100FB000E6FF22EC0BF0E55201081AE1F40EE66EB2
:100FC000010EE66EE66AE66AB1C3E6FF6BEC0BF073
:100FD000106E050EE15E1050B3C3E6FF61EC13F036
:100FE000E5520301B39FB347B3A902D0010EB36F1B
:040FF00000D012001B
:0C0FF4000F01F290F2920F01F090F092C9
:081000000F01C00EF2121200F4
:061008006EEF0EF0120075
:02100E000F01D0
:061010003F0EF216120073
:021016000000D8
:06101800A5EF0EF012002E
:02101E000000D0
:10102000000003836BF2F7703BE1F4F350131F975A
:101030009AC71C14F135E8E7A126EB64CAD4CF584F
:10104000D98ACCDBB2783828E26B3BAB8999D0CF18
:10105000434DD34C28BF27BF78AC243C135E6FC7E9
:101060005E106C4435E298B765F19B340E03705006
:10107000C4D773D3AF258720FF3684A394C4A09F21
:10108000879AA31CEC6857EFBC7B546CD789BF08C8
:101090001D5DBC8B76AF487826BC4BFB4D4EDE8E7B
:1010A000BD20DD0DD6D229FE86C12A7DED33C119C2
:1010B00027E7C29A4C1536691C0635EA77F411D633
:1010C00064AA12550F58E6A65F4BE52534B90E41C8
:1010D000FE6D0DC2959FF931C58CFAB2AE7EB14955
:1010E000E330B2CA88C24639D8D145BAB323AEDE9E
:1010F00079F7AD5D120559AE42165A2D29E47E11DD
:101100003ABA7D9251488961015B8AE26AA9618697
:10111000A07D6205CB8F96F69B9C9575F06EBC1DED
:101120007B41BF9E10B34B6D40A048EE2B52A38A6B
:10113000E186A0098A7454FADA675779B195734544
:10114000A2CB70C6C9398435992A87B6F2D86CD239
:10115000380C6F5153FE9BA203ED9821681FD3DA20
:101160002551D0594EA324AA1EB027297542CC4D33
:10117000BF96CFCED4643B3D847738BEEF851C82CA
:10118000FCDB1F019729EBF2C73AE871ACC80315E5
:10119000661C00960DEEF4655DFDF7E6360F629372
:1011A000C6616110AD9395E3FD80966096727D04F3
:1011B0005CA67E8737548A74674789F70CB5ADCB38
:1011C0001FEBAE4874195ABB240A59384FF8B25C69
:1011D000852CB1DFEEDE452CBECD46AFD53F0D549C
:1011E00098710ED7F383FA24A390F9A7C86212C3AB
:1011F00002B611406944E5B33957E63052A5C20C36
:1012000041FBC18F2A09357C7A1A36FF11E8DD9B34
:10121000DB3CDE18B0CE2AEBE0DD29688B2F783B73
:10122000F6827BB89D708F4BCD638CC8A69167AC5E
:101230006C45642F07B790DC57A4935F3C56B763A7
:101240002F08B4E044FA401314E943907F1BA8F43C
:10125000B5CFAB77DE3D5F848E2E5C07E5DC17FCF7
:10126000A892147FC360E08C9373E30FF881086B3E
:1012700032550BE859A7FF1B09B4FC986246D8A465
:101280007118DB271AEA2FD44AF92C57210BC733E0
:10129000EBDFC4B0802D3043D03E33C0BBCCA6B50D
:1012A0004BA2A536205051C5704352461BB1B922FE
:1012B000D165BAA1BA974E52EA844DD1817669EDD3
:1012C00092286A6EF9DA9E9DA9C99D1EC23B767A64
:1012D00008EF75F9631D810A330E828958FCC972C3
:1012E00015B2CAF17E403E022E533D8145A1D6E59E
:1012F0008F75D566E4872195B4942216DF66062A99
:10130000CC3805A9A7CAF15AF7D9F2D99C2B19BD37
:1013100056FF1A3E3D0DEECD6D1EED4E06ECC42679
:101320008DC3C7A5E6313356B62230D5DDD0DBB14B
:101330001704D8327CF62CC12CE52F4247170B7EC0
:10134000544908FD3FBBFC0E6FA8FF8D045A14E9F9
:10135000CE8E176AA57CE399F56FE01A9E9DABE1EE
:10136000D3D3A862B8215C91E8325F1283C0B4760F
:101370004914B7F522E6430672F54085190764B9AA
:101380000A59673A61AB93C931B8904A5A4A7B2EE1
:10139000909E78ADFB6C8C5EAB7F8FDDC08D1AA804
:1013A00030E3192B5B11EDD80B02EE5B60F0053FCB
:1013B000AA2406BCC1D6F24F91C5F1CCFA37D5F0BC
:1013C000E969D673829B2280D2882103B97ACA67E1
:1013D00073AEC9E4185C3D17484F3E9423BD756F4A
:1013E0006EF376EC0501821F5512819C3EE06AF88F
:1013F000F434697B9FC69D88CFD59E0BA427BA374E
:10140000B779B9B4DC8B4D478C984EC4E76AA5A078
:0E1410002DBEA623464C52D0165F51537DAD23
:02141E000301C8
:10142000BB0501E124D0A00EE66EE66AE668000E78
:10143000E66E030EE66E8FEC11F0106E050EE15EA7
:1014400010500301A06BA16BA26BA36B790ECA6E47
:10145000480ECB6E3F0EF2169D829F829E92D08EDA
:10146000C00EF212CA840301010EBB6F00D012003D
:10147000A0C306F0A1C307F0A2C308F0A3C309F0FC
:1014800000D012000301A02B000EA123A223A3234E
:101490001200D9CFE6FFE1CFD9FFE6520301BB51DD
:1014A00001E1BDDF010EDF6EDF50106E116A200E0C
:1014B000105C000E115843E2DF50050DF3CFE9FF39
:1014C000F4CFEAFF000EE926030EEA22EF50FF08F0
:1014D00034E1DF50050DF3CFE9FFF4CFEAFF000E52
:1014E000E926030EEA22DFCFEFFFD950FB0FE96EAA
:1014F000FF0EDA20EA6EEE500301A025106EEE50CA
:10150000A121116EEE50A221126EEE50A321136E96
:10151000DF50050DF3CFE9FFF4CFEAFF000EE92617
:10152000030EEA22EE5210C0EEFF11C0EEFF12C011
:10153000EEFF13C0EEFFDF5019D0DF2AB5D7DFCFA3
:1015400000F3D950FB0FE96EFF0EDA20EA6EEE5081
:101550000301A025016FEE50A121026FEE50A221E0
:10156000036FEE50A321046F000E00D0E552E55248
:10157000E7CFD9FF1200D9CFE6FFE1CFD9FF0301B2
:10158000BB5101E14CDFFD0EDBCFE9FFFE0EDBCFEF
:10159000EAFFEF50106E116A200ED8801054000E32
:1015A000115409E3FD0EDBCFE9FFFE0EDBCFEAFFAE
:1015B000EF50FF0801E142D0FD0EDBCFE9FFFE0E48
:1015C000DBCFEAFFEF50050DF3CFE9FFF4CFEAFFE1
:1015D000000EE926030EEA22EFCF10F0FD0EDBCF5E
:1015E000E9FFFE0EDBCFEAFFEF50105C01E026D0F2
:1015F000050EE66EE66AE668FD0EDBCFE9FFFE0E3D
:10160000DBCFEAFFEF50050DF3CF10F0F4CF11F070
:10161000000E1026030E112210C0E6FF11C0E6FFD7
:101620008FEC11F0126E050EE15E1250FD0EDBCF55
:10163000E9FFFE0EDBCFEAFFEF6800D0E552E7CF0F
:10164000D9FF1200D9CFE6FFE1CFD9FF0301BB518B
:1016500001E1E5DEFE0EDB50106E116A200ED8802F
:101660001054000E115404E3FE0EDB50FF0802E19B
:10167000000E2DD0FE0EDB50050DF3CFE9FFF4CFA9
:10168000EAFF000EE926030EEA22EFCF10F0FE0E6D
:10169000DB50105C02E0000E1AD0FE0EDB50050D90
:1016A000F3CFE9FFF4CFEAFF000EE926030EEA22AA
:1016B000EE520301A051EE5CA151EE58A251EE583A
:1016C000A351EE5802E2010E02D0000E00D0E55206
:1016D000E7CFD9FF1200D9CFE6FFE1CFD9FFFE0E49
:1016E000DB50106E116A200ED8801054000E115479
:1016F00004E3FE0EDB50FF0802E1000E40D00301C0
:10170000BB5101E18CDEFE0EDB50050DF3CFE9FF8E
:10171000F4CFEAFF000EE926030EEA22EFCF10F025
:10172000FE0EDB50105C02E0000E29D0D950FA0FFB
:10173000E96EFF0EDA20EA6EEE500301A025106E6E
:10174000EE50A121116EEE50A221126EEE50A32197
:10175000136EFE0EDB50050DF3CFE9FFF4CFEAFF69
:10176000000EE926030EEA22EE5210C0EEFF11C071
:10177000EEFF12C0EEFF13C0EEFF010E00D0E552E7
:06178000E7CFD9FF1200C3
:0A178600D9CFE6FFE1CFD9FFE6520C
:10179000010EE66EE66A0B0EE66EE66AD9CFE6FF4C
:1017A000DACFE6FF52EC0DF0106E060EE15E10503F
:1017B000DFA003D0010E03D002D0000E00D0E5520E
:1017C000E552E7CFD9FF1200D9CFE6FFE1CFD9FF2D
:1017D000540EE126040EE66EE66A0C0EE66EE66A2C
:1017E000D950040FE66E000EDA20E66EC6EC0DF05E
:1017F000106E060EE15E1050DE6ADE6ADE6ADD6A99
:10180000DD52DD52440EE66ED9CFE9FFDACFEAFFB2
:10181000EECF10F0EECF11F0EECF12F0EFCF13F0CD
:101820002F0E1026060E1122010E1222000E132278
:1018300010C0E6FF11C0E6FF12C0E6FF13C0E6FFCE
:10184000D950080FE66E000EDA20E66E8CEC0FF031
:10185000146E070EE15E1450E66ED9504C0FE96E1F
:10186000DACFEAFFE552E750EE6EED6AD9504C0F41
:10187000E96EDACFEAFFFF0EEE1802E1FF0EED1877
:1018800002E1000E03D14C0EDBCF10F04D0EDBCF8A
:1018900011F0126A136A1050DE261150DE22125027
:1018A000DE221350DD22DD52DD52080EDB50E76EE2
:1018B000530EE7CFDBFF090EDBCF12F0136A146A79
:1018C000156A14C015F013C014F012C013F0126A98
:1018D0000A0EDB5000011224106E000E1320116E50
:1018E0004C0E10C0DBFF4D0E11C0DBFF0B0EDB50AA
:1018F000E76E520EE7CFDBFF400EF36E520EDBCFEA
:10190000F4FFF350F45C03E3000EC0D083D0530E19
:10191000DB50200A1CE0100A1AE0C00A01E017D0D0
:10192000520EDBCFE6FFE66A4C0EDBCFE6FF4D0E34
:10193000DBCFE6FFD9500C0FE66E000EDA20E66E24
:10194000C6EC0DF0106E060EE15E105063D0000E76
:10195000F36E530EDBCFF4FFF350F45C59E3530EF8
:10196000DB501F0855E3530EDBCF06F0076A086A09
:10197000096A0B6A010E0C6E0D6A0E6ABCEC27F048
:1019800002C010F003C011F0126A136A100ED89052
:101990001036113612361336E806F9E14C0EDBCF5D
:1019A00014F04D0EDBCF15F0166A176A145010268E
:1019B0001550112216501222175013224E0E10C02D
:1019C000DBFF4F0E11C0DBFF500E12C0DBFF510ECC
:1019D00013C0DBFF520EDBCFE6FFD9504E0FE96E8E
:1019E000DACFEAFFEECFE6FFEECFE6FFEECFE6FF7F
:1019F000EFCFE6FFD9500C0FE66E000EDA20E66E50
:101A0000F2EC23F0106E070EE15E105003D002D00E
:101A1000000E3CD0040EDBCF10F0050EDBCF11F032
:101A2000060EDBCF12F0070EDBCF13F0D9CFE9FFA4
:101A3000DACFEAFF1050EE5C1150EE581250EE581B
:101A40001350EE5801E2DED6520EDB6A010EE66E4E
:101A5000E66A0C0EE66EE66A000EE66EE66AC6EC14
:101A60000DF0106E060EE15E1050040EE66EE66A92
:101A7000100EE66EE66A000EE66EE66AC6EC0DF043
:101A8000106E060EE15E1050010E00D0106E540E66
:101A9000E15C02E2E16AE552E16E1050E552E7CF07
:041AA000D9FF120058
:0C1AA400D9CFE6FFE1CFD9FFE652F90EE2
:101AB000DBCF14F0FA0EDBCF15F0FB0EDB50142455
:101AC000106EFC0EDB501520116E1006000E115A20
:101AD000126A136A1334000E131809E6D880000E38
:101AE0001054040E1154000E1254000E135402E24E
:101AF000000E47D0DF6ADFCF10F0F90EDBCF11F018
:101B0000FA0EDBCF12F01150105C000E125434E2CA
:101B1000D950FB0FE96EFF0EDA20EA6EEE52030E8B
:101B2000ED16FB0EDB50A96EFB0EDBCF06F0FC0EB4
:101B3000DBCF07F0086A096A0B6A010E0C6E0D6AAA
:101B40000E6A24EC13F00650AA6EA69EA69CA680F0
:101B5000FD0EDBCFE9FFFE0EDBCFEAFFA8CFEFFFE4
:101B6000DF2AFD0EDB2AFE0E01E3DB2AFB0EDB2A59
:101B7000FC0E01E3DB2ABFD7A68EA68CA690010E31
:101B800000D0E552E552E7CFD9FF1200D9CFE6FFEA
:101B9000E1CFD9FF020EE126F90EDBCF14F0FA0EE9
:101BA000DBCF15F0FB0EDB501424106EFC0EDB5067
:101BB0001520116E1006000E115A126A136A1334A2
:101BC000000E131809E6D880000E1054040E1154AC
:101BD000000E1254000E135402E2000E73D0DF6A9E
:101BE000DFCF10F0F90EDBCF11F0FA0EDBCF12F0E1
:101BF0001150105C000E125460E2D950FB0FE96ED8
:101C0000FF0EDA20EA6EEE52030EED16FB0EDB50ED
:101C1000A96EFB0EDBCF06F0FC0EDBCF07F0086AE7
:101C2000096A0B6A010E0C6E0D6A0E6A24EC13F041
:101C30000650AA6EFD0EDBCFE9FFFE0EDBCFEAFFFA
:101C4000EF50A86EA69EA69CA684F29E550EA76E87
:101C5000AA0EA76EA682F28EA1A8FED7A198010EA9
:101C6000E66EE66AFB0EDBCFE6FFFC0EDBCFE6FF9F
:101C7000D950010FE66E000EDA20E66E13DF106E0B
:101C8000060EE15E1050FD0EDBCFE9FFFE0EDBCF4E
:101C9000EAFFEF50F36E010EDB50F35C02E0000E42
:101CA00011D0DF2AFD0EDB2AFE0E01E3DB2AFB0E3C
:101CB000DB2AFC0E01E3DB2A93D7A68EA68CA69422
:101CC000010E00D0106E020EE15C02E2E16AE55204
:0C1CD000E16E1050E552E7CFD9FF120082
:041CDC00DACFE4FF78
:101CE000E2CFDAFFE9CFE4FFEACFE4FFF6CFE4FF8B
:101CF000F7CFE4FFF5CFE4FFF3CFE4FFF4CFE4FF49
:101D0000FACFE4FFE652F2A207D017EC12F0E66E2B
:101D10004BEC00F0E552F2929EA203D042EC0AF0A6
:101D20009E92E552E5CFFAFFE5CFF4FFE5CFF3FF52
:101D3000E5CFF5FFE5CFF7FFE5CFF6FFE5CFEAFF0B
:101D4000E5CFE9FFE5CFDAFF1100DACFE4FFE2CF1C
:101D5000DAFFE65200D0E552E5CFDAFF1100D9CF25
:101D6000E6FFE1CFD9FF090EE126FC0EDBCF10F034
:101D7000FD0EDBCF11F0000E10C0DFFF010E11C011
:101D8000DBFF020EDB6A030EDB6AD9CFE9FFDACF95
:101D9000EAFFD890EB32020EEB32010EEB32EF325B
:101DA000000EDB50E76E050EE7CFDBFFEF0EF36EA4
:101DB000060EF3CFDBFFDFCF06F0010EDBCF07F01F
:101DC000086A096A0B6A0C6E0D6A0E6A24EC13F03D
:101DD000070E06C0DBFFD9CFE9FFDACFEAFFEECF6F
:101DE00006F0EECF07F0EECF08F0EFCF09F00B6A68
:101DF0000C6A010E0D6E0E6A2FEC14F006500F0BDC
:101E0000F009E76E080EE7CFDBFFFE0EDB0405E10D
:101E1000180E106E100E116E04D0080E106E100EFB
:101E2000116E126A136A11AE02D01268136810C0E4
:101E3000DFFF010E11C0DBFF020E12C0DBFF030E3D
:101E400013C0DBFF040EE66ED9CFE9FFDACFEAFF5D
:101E5000EECFE6FFEECFE6FFEECFE6FFEFCFE6FFF9
:101E6000D950050FE66E000EDA20E66EF2EC23F094
:101E7000106E070EE15E1050E76E040EE7CFDBFF39
:101E8000DB50106E116A040E101801E1115002E0CF
:101E9000FF0E02D0000E00D0106E090EE15C02E2CF
:101EA000E16AE552E16E1050E552E7CFD9FF12002A
:101EB000D9CFE6FFE1CFD9FFE6524A0EE66E1D0EFE
:101EC000E66E010EE66E4BDFE552E552E552DF6E3F
:101ED000DF5001E0FFD7DC0EE66E1C0EE66EE66A10
:101EE0003EDFE552E552E552DF6EDF5001E0FFD7FD
:0E1EF000000E00D0E552E552E7CFD9FF1200F8
:021EFE000301DE
:101F0000B96B0101010EFF6F02EC20F071D80009DE
:101F100001E1A5D800D01200D9CFE6FFE1CFD9FF6B
:101F2000E6520101FF5101E1EADF0301B95101E08D
:101F3000FCD7B92BF80EDBCFE6FFE66AD950F90FD4
:101F4000E96EFF0EDA20EA6EEECFE6FFEECFE6FF97
:101F5000EECFE6FFEFCFE6FFFD0EDBCFE6FFFE0E96
:101F6000DBCFE6FF06EC20F0106E080EE15E1050AD
:101F7000DF6E0301B907DF5000D0E552E552E7CF2D
:101F8000D9FF1200D9CFE6FFE1CFD9FFE652010118
:101F9000FF5101E1B4DF0301B95101E0FCD7B92BD6
:101FA000F80EDBCFE6FFE66AD950F90FE96EFF0EB7
:101FB000DA20EA6EEECFE6FFEECFE6FFEECFE6FFE9
:101FC000EFCFE6FFFD0EDBCFE6FFFE0EDBCFE6FF39
:101FD00082EC20F0106E080EE15E1050DF6E0301FF
:101FE000B907DF5000D0E552E552E7CFD9FF120024
:101FF000D9CFE6FFE1CFD9FF0B0EE126E66EE66A08
:10200000E66AE66AE66AD9CFE6FFDACFE6FF84DF62
:10201000106E070EE15E10500B0EE66EE66AD40EEF
:10202000E66E010EE66ED9CFE6FFDACFE6FFA9EC49
:1020300011F0106E060EE15E1050000902E1010E73
:1020400001D0000E106E0B0EE15C03E200D0E16ADD
:10205000E552E16E1050E552E7CFD9FF12000B0EAA
:10206000E66EE66AE66AE66AE66AD40EE66E010E97
:10207000E66E88DF106E070EE15E1050200EE66EF1
:102080000B0EE66EE66AE66AE66ADF0EE66E010EA3
:10209000E66E78DF106E070EE15E105000D0120081
:1020A000D9CFE6FFE1CFD9FFD950F70FE96EFF0E88
:1020B000DA20EA6EEE50ED1005E1066A076A086A5A
:1020C000096A83D0F70EDB06DBCF10F0F80E01E2D1
:1020D000DB06DBCF11F01050111062E0FB0EDBCFFE
:1020E0001CF0FC0EDBCF1DF0FD0EDBCF1EF0FE0E54
:1020F000DBCF1FF0080ED8901F321E321D321C326B
:10210000E806F9E1F90EDBCFE9FFDB2AFA0EDBCFB7
:10211000EAFF01E3DB2AEFCF18F0196A1A6A1B6A9B
:10212000D950FB0FE96EFF0EDA20EA6EEE50181858
:10213000146EEE501918156EEE501A18166EEE50F9
:102140001B18176E156A166A176A14C0F6FF15C0B9
:10215000F7FFD890F636F736D890F636F7361E0EDB
:10216000F626100EF7220900F5501C18106E090013
:10217000F5501D18116E0900F5501E18126E090059
:10218000F5501F18136EFB0E10C0DBFFFC0E11C0C4
:10219000DBFFFD0E12C0DBFFFE0E13C0DBFF92D78C
:1021A000FB0EDBCF10F0FC0EDBCF11F0FD0EDBCF12
:1021B00012F0FE0EDBCF13F010C006F011C007F0D6
:1021C00012C008F013C009F000D0E552E7CFD9FFE4
:0221D0001200FB
:0E21D2000301BAB11CD0040EE66E000E106EB2
:1021E000500E116E126A136A10C0E6FF11C0E6FFAE
:1021F00012C0E6FF13C0E6FFE10EE66E020EE66EC9
:10220000C9EC23F0146E070EE15E14500301BA818D
:10221000E10E106E020E116E10C0F3FF11C0F4FF3C
:1022200000D012000301BAB31CD0040EE66E040EF7
:10223000106E500E116E126A136A10C0E6FF11C0C4
:10224000E6FF12C0E6FF13C0E6FFE50EE66E020EE3
:10225000E66EC9EC23F0146E070EE15E1450030124
:10226000BA83E50E106E020E116E10C0F3FF11C09E
:10227000F4FF00D012000301BAB51CD0040EE66EC4
:10228000080E106E500E116E126A136A10C0E6FF2F
:1022900011C0E6FF12C0E6FF13C0E6FFE90EE66ECE
:1022A000020EE66EC9EC23F0146E070EE15E1450C8
:1022B0000301BA85E90E106E020E116E10C0F3FF15
:0822C00011C0F4FF00D0120070
:0822C800D9CFE6FFDACFE6FFF3
:1022D000FA0EE3CFD9FFFB0EE3CFDAFFFC0EE3CF1C
:1022E000E9FFFD0EE3CFEAFFE9CFF3FFEACFF4FF0A
:1022F000F80EE35003E1F90EE35008E0F80EE306B0
:1023000002E2F90EE306DECFEEFFF2D7FF0EE3CFD7
:10231000DAFFE552FF0EE3CFD9FFE5521200FE0EC1
:10232000E3CFE9FFFF0EE3CFEAFFE9CFF3FFEACF08
:10233000F4FFFB0EE35003E1FC0EE35009E0FB0E5B
:10234000E30602E2FC0EE306FD0EE350EE6EF1D76B
:102350001200D9CFE6FFDACFE6FFFA0EE3CFD9FFBE
:10236000FB0EE3CFDAFFFC0EE3CFE9FFFD0EE3CF78
:10237000EAFFF80EE35003E1F90EE3500AE0F80E2D
:10238000E30602E2F90EE306DE50EF5C02E1EE66E0
:10239000F0D7F36EFF0EE3CFDAFFE552FF0EE3CF87
:0823A000D9FFE552F3501200D1
:0823A800000007EC08F002013F
:1023B000FF0EE3CFFEF2090EFF6FD8900F01E3EF9F
:1023C00011F00201FE330F01D8A08B92D8B08B829E
:1023D000000092EC14F00201FF2FE1EF11F0000079
:1023E00000000F018B8292EC14F00000000000004E
:1023F00000000000000000000000000000000000DD
:10240000FAEC07F012000F013F0EF2160F010F0E4B
:10241000C16E0F01F19C0F01F2880F01C00EF21284
:102420000F0194928B820F01938081801200020130
:10243000080EFF6F0F0181B01BEF12F09CEC14F03F
:102440000F0181B01BEF12F0A2EC14F00F0181A07C
:10245000D89081B0D8800201FE33FF2F24EF12F014
:10246000A2EC14F09CEC14F000000201FE511200EA
:10247000D9CFE6FFE1CFD9FFE652FE0EDBCFE6FF74
:10248000E66AA8EC14F0E552E552F350DF6E300E28
:10249000DF5C07E3DF50390804E3300EDF5C0DD06A
:1024A0000AD0410EDF5C07E3DF50460804E3410E2B
:1024B000DF5C0A0F02D0000E00D0E552E552E7CFF4
:1024C000D9FF1200D9CFE6FFE1CFD9FFFD0EDBCF58
:1024D00012F0FE0EDBCF13F0133404E212500008AA
:1024E000000E135407E2FD0EDBCF10F0FE0EDBCF23
:1024F00011F00AD0FD0EDBCF10F0FE0EDBCF11F095
:10250000106C111E000E112210C0F3FF11C0F4FF59
:0A25100000D0E552E7CFD9FF12001A
:06251A001E0EF66E000E1D
:10252000F76E000EF86E02010900F550F26F090017
:10253000F550F36F03E1F26701D03DD00900F5508B
:10254000ED6F0900F550EE6F0900F550EF6F0900CF
:102550000900F550E96E0900F550EA6E090009001E
:102560000900F550F06F0900F550F16F09000900FE
:10257000F6CFF4F2F7CFF5F2F8CFF6F2EDC2F6FFB0
:10258000EEC2F7FFEFC2F8FF0201F05302E1F15390
:1025900007E00900F550EE6EF007F8E2F107F9D711
:1025A000F4C2F6FFF5C2F7FFF6C2F8FF0201F20728
:0825B000000EF35BBFD712001F
:0825B800D9CFE6FFE1CFD9FF06
:1025C000FD0EDBCF08F0FE0EDBCF09F00850020154
:1025D000F7130950F813E552E7CFD9FF1200D9CF0E
:1025E000E6FFE1CFD9FFFD0EDB1C106EFE0EDB1CFB
:1025F000116E10500201F7171150F817E552E7CF8E
:10260000D9FF1200F7C2F3FFF8C2F4FF00D01200A6
:10261000E8680201FA1908E1E868FB1905E1E868D1
:10262000FC1902E1E868FD190CE1B4EC13F006C0F6
:10263000FAF207C0FBF208C0FCF209C0FDF2FAC2D0
:08264000F9F2010E00D01200B6
:08264800006AE86A0EAE31EFF2
:1026500013F00B6C0C1E0D1E0E1E0C220D220E22F2
:10266000001E09AE3CEF13F0066C071E081E091E83
:10267000072208220922001E2FEC14F009BE53EF96
:1026800013F000AE000C066C071E081E091EE86A57
:10269000072208220922026C031E041E051E0322C3
:1026A00004220522000C00BE43EF13F00188FF0C4A
:1026B0000301B66992909292929492969298898828
:1026C0001200D9CFE6FFE1CFD9FF1DD8100EF36E6F
:1026D000FE0EDBCFF4FFF350F45C03E2FE0EDBCF23
:1026E000B6F3FF0E0301B65D08E0F00E89160F0E7B
:1026F000B61589128998010E02D0000E00D0E5525D
:10270000E7CFD9FF120089880301B669F00E891658
:022710001200B5
:0E271200D9CFE6FFE1CFD9FF020EE126DF6A44
:10272000FC0EDB50DF5C16E217EC12F0E76E010ED8
:10273000E7CFDBFFFD0EDBCFE9FFFE0EDBCFEAFFCD
:10274000010EDBCFEFFFFD0EDB2AFE0E01E3DB2ADD
:10275000DF2AE6D7020EE15C02E2E16AE552E16EB1
:08276000E552E7CFD9FF12009A
:082768000301BC511DE1040E48
:10277000E66EF40E106E290E116E126A136A10C006
:10278000E6FF11C0E6FF12C0E6FF13C0E6FFA90E88
:10279000E66E030EE66EC9EC23F0146E070EE15EE2
:1027A00014500301010EBC6FA9C306F0AAC307F0C1
:0C27B000ABC308F0ACC309F000D012006D
:0427BC00D9CFE6FF8C
:1027C000E1CFD9FF020EE126010EDB6ADF6A080EB7
:1027D000DF5C0DE2010EDBCFF3FFF39EF346F3CF98
:1027E000DBFF828682B8DB808296DF2AF0D7829870
:1027F000010EDB50106E020EE15C03E200D0E16AD4
:0E280000E552E16E1050E552E7CFD9FF12000D
:02280E000201C5
:10281000E00501E113D094908B90E66AE66AE66ADF
:10282000E66A49EC0AF0E552E552E552E552030149
:10283000B86F0201DE6B010EE06F00D01200D9CF3D
:10284000E6FFE1CFD9FFFE0EDB50010BE8B08B8035
:0E285000E8A08B90E552E7CFD9FF12001200EE
:02285E00056A09
:10286000046A036A026A200EE76ED89006360736BD
:102870000836093602360336043605360B50025C3C
:102880000C5003580D5004580E50055809E30B50D6
:10289000025E0C50035A0D50045A0E50055A062A77
:0628A000E72EE4D7120050
:0A28A600D9CFE6FFE1CFD9FFE652DB
:1028B000829ADF6A080EDF5C10E2FE0EDBAE02D009
:1028C000828A01D0829ADBCFF3FFF39EF346F3CFE7
:1028D000DBFF82868296DF2AEDD7829A00D0E5520E
:0828E000E552E7CFD9FF120019
:0828E800D9CFE6FFE1CFD9FFD3
:1028F000FD0EDBCFE9FFFE0EDBCFEAFFEF50E66E09
:10290000D4EC11F0E552FD0EDBCFE9FFDB2AFE0E21
:10291000DBCFEAFF01E3DB2AEF50EAE1E552E7CF44
:04292000D9FF1200C9
:0C292400160EE66EF4EC27F0E552000001
:102930000000000000001200180EE66ED4EC14F047
:10294000E5521200350EE66ED4EC14F0E55212009A
:10295000FF0EE124E96EFF0EE220EA6EEDCFF4FFF8
:10296000EFCFF3FFF46607D0600EF36404D07B0E64
:08297000F36001D0F39A12009C
:082978001CEE00F02CEE00F053
:10298000F86A019C8DEC12F0DAEC14F03DEC06F0E4
:082990003FEC06F0FBD712003A
:08299800FF0EE350E84E1200AF
:1029A0000000E82EFED71200FF0EE3500000E82ED4
:0429B000FDD712003D
:0C29B400D59CD59AD586D594D582D584C3
:0629C000D58E00D01200CC
:0A29C60082848288829A829694949B
:0829D0009488949A9496120079
:0829D8008294000000000000E1
:0629E000000000D012000F
:0A29E60000EE00F00D0EEE6AEA624A
:0429F000FDD71200FD
:0429F4009A02000043
:0429F80081841200C4
:0429FC000000FFFFD9
:032A0000FFFFFFD6
:032A0300FF0001D0
:0A2A0600020406080A010204081089
:032A1000000000C3
:0D2A1300594857482D526170686100AAFFB4
:102A200055FFAAFF55FFAAFF55FFAAFF55FFAAFFB2
:0F2A300055FFAAFF55FFAAFF55FFAAFF55FF004C
:0440000009EF00F0D4
:0C400400E3EC14F000D01200D9CFE6FF6E
:10401000E1CFD9FF040EE12673D9000902E1FF0EBA
:1040200065D0D950F70FE96EFF0EDA20EA6EEE5038
:10403000ED1002E1000E5AD0ECEC14F0D20EE66E58
:1040400053EC14F0E552D950F90FE96EFF0EDA2067
:10405000EA6EEECFE6FFEECFE6FFEECFE6FFEFCF64
:10406000E6FF7CD9E552E552E552E552040EDE6EDC
:10407000DD6AE66853EC14F0E552D9CFE9FFDACFF8
:10408000EAFFEE06000EED5AEECF10F0EDCF11F084
:1040900010501110EEE1FD0EDBCF08F0FE0EDBCF6D
:1040A00009F0020E08C0DBFF030E09C0DBFFDEECE7
:1040B00013F0E66E020EDBCFE9FFDB2A030EDBCF47
:1040C000EAFF01E3DB2AE552E750EF6EF70EDB066D
:1040D000DBCF10F0F80E01E2DB06DBCF11F0105061
:1040E0001110E5E1FCEC14F0DF5000D0106E040E6E
:1040F000E15C02E2E16AE552E16E1050E552E7CF81
:10410000D9FF1200D9CFE6FFE1CFD9FF050EE12696
:10411000D950FD0FE96EFF0EDA20EA6EEE50ED1079
:1041200009E0D950F70FE96EFF0EDA20EA6EEE5083
:10413000ED1002E1000ED8D0F90EDBCF06F0FA0E3A
:10414000DBCF07F0FB0EDBCF08F0FC0EDBCF09F076
:10415000080E0B6E010E0C6E0D6A0E6A2FEC14F039
:10416000020E02C0DBFF030E03C0DBFFF90EDBCF44
:1041700006F0FA0EDBCF07F0FB0EDBCF08F0FC0EEB
:10418000DBCF09F0080E0B6E010E0C6E0D6A0E6A85
:104190002FEC14F006C0DEFF07C0DDFFF70EDBCF0B
:1041A00014F0F80EDBCF15F0020EDB501424106E65
:1041B000030EDB501520116E126A136A1334000EC1
:1041C000131809E6D880080E1054010E1154000E81
:1041D0001254000E13546DE2080E146E010E156E8B
:1041E000166A176A020EDBCF18F0030EDBCF19F048
:1041F0001A6A1B6A1850145C106E19501558116E0B
:104200001A501658126E1B501758136E040E10C019
:10421000DBFFFD0EDBCFE6FFFE0EDBCFE6FF040E7D
:10422000DBCFE6FF020EDBCFE6FF030EDBCFE6FFC0
:10423000DECFE6FFDDCFE6FF78D9106E070EE15E38
:104240001050040EDB50E76EFD0EDBCF10F0FE0EBB
:10425000DBCF11F0E7501026000E112210C0E6FF50
:1042600011C0E6FF040EDB50146E156AF70EDBCFAB
:1042700008F0F80EDBCF09F01450085C126E1550F0
:104280000958136E1250E66E000EE66EE66ADECF37
:1042900016F0DDCF17F0010E1626000E172216C0FD
:1042A000E6FF17C0E6FF41D9186E070EE15E185011
:1042B00018D0FD0EDBCFE6FFFE0EDBCFE6FFF70EDC
:1042C000DBCFE6FF020EDBCFE6FF030EDBCFE6FF20
:1042D000DECFE6FFDDCFE6FF28D9106E070EE15EE8
:1042E0001050F70EDB5000D0106E050EE15C02E2BC
:1042F000E16AE552E16E1050E552E7CFD9FF1200B6
:10430000D9CFE6FFE1CFD9FF020EE126ECEC14F0A5
:10431000D70EE66E53EC14F0E552010EDB6ADEECCC
:1043200013F0DF6E010EDB2ADB50100804E1FCEC19
:1043300014F0000E07D0800EDF5CF1E3FCEC14F00B
:10434000010E00D0106E020EE15C02E2E16AE5525D
:10435000E16E1050E552E7CFD9FF1200D9CFE6FF4A
:10436000E1CFD9FF060EE126FB0EDBCF06F0FC0EF7
:10437000DBCF07F0FD0EDBCF08F0FE0EDBCF09F040
:10438000080E0B6E010E0C6E0D6A0E6A2FEC14F007
:10439000040E02C0DBFF050E03C0DBFFFB0EDBCF0C
:1043A00006F0FC0EDBCF07F0FD0EDBCF08F0FE0EB3
:1043B000DBCF09F0080E0B6E010E0C6E0D6A0E6A53
:1043C0002FEC14F006C0DEFF07C0DEFF08C0DEFFE2
:1043D00009C0DDFFDD52DD52040EDBCF10F0050E0B
:1043E000DBCF11F0126A136AD9CFE9FFDACFEAFF07
:1043F000EECF14F0EECF15F0EECF16F0EFCF17F0B2
:10440000090E1F0B07E0D8901436153616361736EE
:10441000E806F9E114501026155011221650122208
:104420001750132210C0DFFF010E11C0DBFF020E78
:1044300012C0DBFF030E13C0DBFFD9CFE9FFDACFD9
:10444000EAFFEECFE6FFEECFE6FFEECFE6FFEFCFDF
:10445000E6FF0ED8E552E552E552E552060EE15C64
:1044600002E2E16AE552E16EE552E7CFD9FF1200C0
:10447000D9CFE6FFE1CFD9FF040EE126030EDB6AB8
:10448000F36EDBCFF4FFF350F45C24E2D9CF10F0ED
:10449000DACF11F0030EDB500F011024E96E000E8D
:1044A0001120EA6EFB0EDBCFEFFFD950FB0FE96E58
:1044B000FF0EDA20EA6E080EE76ED890030EEB329C
:1044C000020EEB32010EEB32EF32E706F6E1030E9D
:1044D000DB2AD6D7030EDB6AF36EDBCFF4FFF35093
:1044E000F45C19E2D9CF10F0DACF11F0030EDBCF74
:1044F000E6FF020EE552D880E7540F011024E96E62
:10450000000E1120EA6EEF50E66E53EC14F0E55207
:10451000030EDB2AE1D7040EE15C02E2E16AE55218
:10452000E16EE552E7CFD9FF1200D9CFE6FFE1CF28
:10453000D9FFFA0EDB5009E0D950F80FE96EFF0EF3
:10454000DA20EA6EEE50ED1001E163D0FA0EDB5096
:10455000E76EFB0EDBCF10F0FC0EDBCF11F0E75067
:104560001026000E1122126A136A1334000E13185B
:1045700009E6D880080E1054010E1154000E125492
:10458000000E13541DE2080E146E010E156E166A0D
:10459000176AFB0EDBCF18F0FC0EDBCF19F01A6A9E
:1045A0001B6A1850145C106E19501558116E1A5071
:1045B0001658126E1B501758136EFA0E10C0DBFF00
:1045C0009FDEECEC14F0FD0EDBCFE6FFFE0EDBCF42
:1045D000E6FFA0D8E552E55293DEF80EDBCFE6FF0A
:1045E000F90EDBCFE6FFFA0EDBCFE6FFFB0EDBCFEB
:1045F000E6FF13D8E552E552E552E552FD0EDBCF5A
:10460000E6FFFE0EDBCFE6FF46D8E552E552FCECB6
:1046100014F0E552E7CFD9FF1200D9CFE6FFE1CF82
:10462000D9FFE652ECEC14F0840EE66E53EC14F075
:10463000E552FE0EDBCF10F0116A126A136A10C049
:10464000E6FF11C0E6FF12C0E6FF13C0E6FF10DF71
:10465000E552E552E552E552DF6AFD0EDB50DF5CC4
:1046600013E2DF50E76EFB0EDBCFE9FFFC0EDBCF82
:10467000EAFFE750E926000EEA22EF50E66E53EC1F
:1046800014F0E552DF2AE9D7FCEC14F0E552E552CC
:10469000E7CFD9FF1200D9CFE6FFE1CFD9FF040E53
:1046A000E126ECEC14F0830EE66E53EC14F0E552C8
:1046B000FD0EDBCF10F0FE0EDBCF11F010C011F0BD
:1046C000106AD8901136000E10C0DFFF010E11C025
:1046D000DBFF020EDB6A030EDB6AD9CFE9FFDACF1C
:1046E000EAFFEECFE6FFEECFE6FFEECFE6FFEFCF3D
:1046F000E6FFBEDEE552E552E552E552FCEC14F071
:10470000040EE15C02E2E16AE552E16EE552E7CFB8
:10471000D9FF1200D9CFE6FFE1CFD9FF040EE12681
:10472000ECEC14F0530EE66E53EC14F0E552FD0E73
:10473000DBCF10F0FE0EDBCF11F010C011F0106ACD
:10474000D8901136000E10C0DFFF010E11C0DBFF44
:10475000020EDB6A030EDB6AD9CFE9FFDACFEAFF8C
:10476000EECFE6FFEECFE6FFEECFE6FFEFCFE6FFC0
:104770007FDEE552E552E552E552FCEC14F0040E02
:10478000E15C02E2E16AE552E16EE552E7CFD9FF72
:02479000120015
:0E479200D9CFE6FFE1CFD9FFE652F90EDBCF1B
:1047A000F6FFFA0EDBCFF7FFFB0EDBCFF8FFDF6A79
:1047B000F80EDB50DF5C0EE20900FD0EDBCFE9FFF7
:1047C000DB2AFE0EDBCFEAFF01E3DB2AF5CFEFFFAA
:1047D000DF2AEED7F80EDB5000D0E552E552E7CFE6
:1047E000D9FF1200D9CFE6FFE1CFD9FF050EE126B0
:1047F000F90EDBCF06F0FA0EDBCF07F0FB0EDBCFB6
:1048000008F0FC0EDBCF09F0400E0B6E0C6A0D6A4F
:104810000E6A2FEC14F0DE5206C0DEFF07C0DDFF8B
:10482000DD52F90EDBCF06F0FA0EDBCF07F0FB0E00
:10483000DBCF08F0FC0EDBCF09F0400E0B6E0C6AEC
:104840000D6A0E6A2FEC14F0030E02C0DBFFF80EA7
:10485000DBCFE6FF030EDB50E552E724106E116A52
:10486000126A136A1334000E131809E6D880400E3A
:104870001054000E1154000E1254000E135467E22F
:10488000400E146E156A166A176A030EDBCF18F015
:10489000196A1A6A1B6A1850145C106E1950155860
:1048A000116E1A501658126E1B501758136E040EC4
:1048B00010C0DBFFDBCFE6FFFD0EDBCFE6FFFE0E19
:1048C000DBCFE6FF030EDBCFE6FF010EDBCFE6FF1B
:1048D000020EDBCFE6FF65D8106E060EE15E1050CB
:1048E000000902E1000E51D0F80EDBCFE6FF040E06
:1048F000DB50E552E75CE66E040EDB50E76EFD0E22
:10490000DBCF10F0FE0EDBCF11F0E7501026000ECB
:10491000112210C0E6FF11C0E6FFE66A010EE76E45
:10492000DBCF12F0020EDBCF13F0E7501226000EA1
:10493000132212C0E6FF13C0E6FF33D8146E060E32
:10494000E15E1450000902E1000E1FD01BD0F80EEA
:10495000DBCFE6FFFD0EDBCFE6FFFE0EDBCFE6FF93
:10496000030EDBCFE6FF010EDBCFE6FF020EDBCF4F
:10497000E6FF17D8106E060EE15E1050000902E146
:10498000000E03D0F80EDB5000D0106E050EE15C77
:1049900002E2E16AE552E16E1050E552E7CFD9FF3D
:1049A0001200D9CFE6FFE1CFD9FF4A0EE12607EC8E
:1049B00008F0FD0EDBCF06F0FE0EDBCF07F0086A35
:1049C000096A400E0B6E0C6A0D6A0E6ABCEC27F089
:1049D00002C0DEFF03C0DEFF04C0DEFF05C0DDFF56
:1049E000DD52DD52400EE66ED9CFE9FFDACFEAFFA5
:1049F000EECFE6FFEECFE6FFEECFE6FFEFCFE6FF2E
:104A0000D950040FE66E000EDA20E66EC2DE106E9C
:104A1000070EE15E1050D950040F126EDACF13F07A
:104A2000FC0EDB5000011224106E000E1320116EDC
:104A3000440E10C0DBFF450E11C0DBFFFA0EDBCFCA
:104A400008F0FB0EDBCF09F0460E08C0DBFF470E77
:104A500009C0DBFFFC0EDB50E76E480EE7CFDBFF43
:104A6000F90EDBCFE6FFFC0EDB50E552E724F36ED8
:104A7000480EDBCFF4FFF350F45C1AE2460EDBCFB6
:104A8000E9FFDB2A470EDBCFEAFF01E3DB2AEF5029
:104A9000E66E440EDBCFE9FFDB2A450EDBCFEAFFF3
:104AA00001E3DB2AE552E750EF6E480EDB2AD8D748
:104AB000DFCFF6FF010EDBCFF7FF020EDBCFF8FFF3
:104AC000A69CF00EF814300801E1A68CA68EA684F0
:104AD000A688550EA76EAA0EA76EA6820000D9CF93
:104AE000E9FFDACFEAFFEECF10F0EECF11F0EECF14
:104AF00012F0EFCF13F01006000E115A000E125AEA
:104B0000000E135A10C0F6FF11C0F7FF12C0F8FFD5
:104B1000D950040F106EDACF11F0440E10C0DBFF35
:104B2000450E11C0DBFF480EDB6A480EDB50106EED
:104B3000116A400E105C000E11580FE2440EDBCFDC
:104B4000E9FFDB2A450EDBCFEAFF01E3DB2AEF506A
:104B5000F56E0F00480EDB2AE8D7A69CF00EF8147D
:104B6000300801E1A68CA68EA684550EA76EAA0E6B
:104B7000A76EA682A694F90EDBCFE6FFFC0EDBCF74
:104B800010F0116A126A136AD9CFE9FFDACFEAFF8F
:104B9000EE501026EE501122EE501222EE5013224B
:104BA00010C0E6FF11C0E6FF12C0E6FF13C0E6FF2B
:104BB000D950040FE66E000EDA20E66EEADD146EC0
:104BC000070EE15E1450D950040F106EDACF11F0C9
:104BD000440E10C0DBFF450E11C0DBFFFA0EDBCF29
:104BE00008F0FB0EDBCF09F0460E08C0DBFF470ED6
:104BF00009C0DBFF010EF36E490EF3CFDBFF480E59
:104C0000DB6AF90EDB50F36E480EDBCFF4FFF35096
:104C1000F45C1DE2440EDBCFE9FFDB2A450EDBCF5F
:104C2000EAFF01E3DB2AEFCF10F0460EDBCFE9FF0E
:104C3000DB2A470EDBCFEAFF01E3DB2AEF50105CF3
:104C400003E0490EDB6A03D0480EDB2ADAD7FAEC20
:104C500007F0490EDB5000D0106E4A0EE15C02E214
:104C6000E16AE552E16E1050E552E7CFD9FF12003C
:104C7000D9CFE6FFE1CFD9FF040EE126FD0EDBCF51
:104C800006F0FE0EDBCF07F0086A096A400E0B6ED5
:104C90000C6A0D6A0E6ABCEC27F002C0DEFF03C08E
:104CA000DEFF04C0DEFF05C0DDFFDD52DD52DFCFD9
:104CB000F6FF010EDBCFF7FF020EDBCFF8FFA69E5B
:104CC000F00EF814300801E1A68CA69CA684A688F4
:104CD00007EC08F0550EA76EAA0EA76EA682FAEC96
:104CE00007F00A00040EE15C02E2E16AE552E16EBF
:084CF000E552E7CFD9FF1200E5
:084CF800D9CFE6FFE1CFD9FF9F
:104D0000E652010EE66EE66A0B0EE66EE66AD9CF53
:104D1000E6FFDACFE6FF52EC0DF0106E060EE15E14
:104D20001050000EDF1402E0010E02D0000E00D081
:104D3000E552E552E7CFD9FF1200D9CFE6FFE1CF28
:104D4000D9FF040EE126E66EE66A100EE66EE66A0C
:104D5000AD0EE66E030EE66E52EC0DF0106E060E12
:104D6000E15E1050000902E1010EA2D0FC0EDBCF83
:104D7000E6FFE66AFD0EDBCFE6FFFE0EDBCFE6FFC9
:104D8000ADC3E6FFAEC3E6FFAFC3E6FFB0C3E6FFC9
:104D900050EC10F0106E080EE15E105006C0ADF33E
:104DA00007C0AEF308C0AFF309C0B0F3040EE66E5F
:104DB000E66A100EE66EE66AAD0EE66E030EE66E6D
:104DC000C6EC0DF0106E060EE15E1050000902E117
:104DD000010E6ED007EC00F0040EE66EE66A0C0ED3
:104DE000E66EE66AD9CFE6FFDACFE6FF52EC0DF0C9
:104DF000106E060EE15E1050000902E1010E58D05F
:104E0000FC0EDBCFE6FFD9CFE9FFDACFEAFFEECF2A
:104E100011F0EECF12F0EECF13F0EFCF14F02F0E13
:104E20001126060E1222010E1322000E142211C0AA
:104E3000E6FF12C0E6FF13C0E6FF14C0E6FFFD0E5A
:104E4000DBCFE6FFFE0EDBCFE6FFC2EC0FF0156E08
:104E5000070EE15E1550106EFC0EDB50105C02E098
:104E6000020E26D0FC0EDBCF10F0116A126A136A14
:104E70001050DE261150DE221250DE221350DD22A9
:104E8000DD52DD52040EE66EE66A0C0EE66EE66A50
:104E9000D9CFE6FFDACFE6FFC6EC0DF0106E060EB6
:104EA000E15E1050000902E1010E02D0000E00D0B8
:104EB000106E040EE15C02E2E16AE552E16E105010
:104EC000E552E7CFD9FF1200ADC306F0AEC307F03D
:104ED000AFC308F0B0C309F000D012000301AD6BFE
:104EE000AE6BAF6BB06B040EE66EE66A100EE66E4C
:104EF000E66AAD0EE66E030EE66EC6EC0DF0106EC1
:104F0000060EE15E105000D01200D9CFE6FFE1CFCF
:104F1000D9FFE652010EE66EE66A0B0EE66EE66A11
:104F2000D9CFE6FFDACFE6FF52EC0DF0106E060E99
:104F3000E15E1050000902E1000E19D0000E010ED2
:104F4000E66EE66A0B0EE66EE66AD9CFE6FFDACFCA
:104F5000E6FFC6EC0DF0106E060EE15E1050000983
:104F600002E1000E04D009EC00F0010E00D0E55281
:084F7000E552E7CFD9FF120062
:084F780006500B02F3CF02F01A
:104F8000F4CF03F00C02F3500326000EF420046E5D
:104F900006500D02F3500426000EF420056E065054
:104FA0000E02F350052607500B02F3500326F4506F
:104FB0000422000E052207500C02F3500426F45080
:104FC000052207500D02F350052608500B02F3503E
:104FD0000426F450052208500C02F350052609500F
:084FE0000B02F350052612003C
:084FE800FF0EE350E84E120039
:0E4FF000000000D000D000D0E82EFAD712004A
:014FFE0000B2
:014FFF0000B1
:0C50000000000201FFFFFFFF00010000A4
:020000040030CA
:0100010002FC
:0100020001FC
:010003001EDE
:01000500807A
:010006008178
:0200000400F00A
:1000000001000000000000000000000000000000EF
:0C001000000000007856341212435678AD
:00000001FF
